:020000040800F2
:100000000050002055200008BD1E0008C31E000837
:10001000C91E0008CF1E0008D51E00080000000001
:10002000000000000000000000000000DB1E0008CF
:10003000E71E000800000000F31E0008FF1E000875
:100040009D2000089D2000089D2000089D2000089C
:100050009D2000089D2000089D2000089D2000088C
:100060009D2000089D2000089D2000089D2000087C
:100070009D2000089D2000089D2000089D2000086C
:100080009D2000089D2000089D2000089D2000085C
:100090009D2000089D2000089D2000089D2000084C
:1000A0009D2000089D2000089D2000089D2000083C
:1000B0000D1F00089D2000089D2000089D200008BD
:1000C000211F00089D2000089D2000089D20000899
:1000D0009D2000089D2000089D2000089D2000080C
:1000E0009D2000089D2000089D20000800000000C1
:1000F0000000000000000000000000000000000000
:0C01000000000000000000005FF808F1A3
:10010C0010B5054C237833B9044B13B10448AFF345
:10011C0000800123237010BD84000020000000002B
:10012C008450000808B5034B1BB103490348AFF3D7
:10013C00008008BD000000008800002084500008EA
:10014C0010F8012B11F8013B012A28BF9A42F7D075
:10015C00D01A7047034613F8012B002AFBD1181A4A
:10016C000138704780B586B000AFF860B9607A602E
:10017C003B60FB687A681A63FB683A6A5A63FB68EF
:10018C00BA6A9A63FB683A6BDA63FB683A681A617D
:10019C00FB687A6A5A61FB68FA6A9A61FB687A6B47
:1001AC00DA61FB68BA6B1A62FB683A6C5A62FB68DC
:1001BC00BA6C9A62FB683A6DDA62FB68FA6B1A6089
:1001CC00FB687A6C5A60FB68FA6C9A60FB687A6D13
:1001DC00DA6000237B611BE000233B6112E03B698A
:1001EC009B00BA681A447B6913441978FA683B6916
:1001FC009B001A447B69134440330A461A703B69CE
:10020C0001333B613B69032BE9DD7B6901337B6186
:10021C007B69032BE0DDFB68186BFB681B699BB2E9
:10022C000122194602F0DDFAFB68586BFB685B692A
:10023C009BB20122194602F0D4FAFB68986BFB685A
:10024C009B699BB20122194602F0CBFAFB68D86B72
:10025C00FB68DB699BB20122194602F0C2FA00BFAF
:10026C001837BD4680BD80B584B000AF78607B6820
:10027C00002283F850200023FB6057E07B68FA686B
:10028C000C3253F822007B68FA68043253F822309F
:10029C009BB20022194602F0A4FA0023BB6030E0A6
:1002AC007B68BA68083253F822007B68BA6853F846
:1002BC0022309BB2194602F07DFA0346002B1DD169
:1002CC007A68BB689B001A44FB68134440331A7865
:1002DC007B6883F850207B68FA680C3253F8220054
:1002EC007B68FA68043253F822309BB2012219461B
:1002FC0002F077FA7B6893F850301BE0BB6801334F
:10030C00BB60BB68032BCBDD7B68FA680C3253F8FF
:10031C0022007B68FA68043253F822309BB2012227
:10032C00194602F05EFAFB680133FB60FB68032B95
:10033C00A4DD002318461037BD4680BD80B500AF44
:10034C00224B01221A70214B00225A701F4B0022A3
:10035C009A701E4B0022DA701C4B00221A711C4B37
:10036C0000221A701A4B00225A70194B00229A70F4
:10037C00174B0022DA70174B00221A70154B002213
:10038C005A70144B00229A70124B0022DA70102211
:10039C002021114804F034FA0E4B00221A75102259
:1003AC0020210E4804F02CFA0A4B002283F8252059
:1003BC000B4B01221A700B4B0B4A10681860127908
:1003CC001A710A4B00221A7000BF80BD1001002068
:1003DC00E0010020B8010020BC010020CD0100206C
:1003EC00F80100205C0100209C5000083001002026
:1003FC0080B586B002AF78600B46FB70FB7823F0BB
:10040C000F03FB73FB781B01BB73FB7B43F00C03EB
:10041C00DBB23B72FB7B43F00803DBB27B72BB7B32
:10042C0043F00C03DBB2BB72BB7B43F00803DBB2C3
:10043C00FB727B6818687B681B7999B207F108021C
:10044C0064230093042302F03DFB00BF1037BD462C
:10045C0080BD80B586B002AF78600B46FB70FB7830
:10046C0023F00F03FB73FB781B01BB73FB7B43F087
:10047C000D03DBB23B72FB7B43F00903DBB27B72F7
:10048C00BB7B43F00D03DBB2BB72BB7B43F00903B8
:10049C00DBB2FB727B6818687B681B7999B207F139
:1004AC00080264230093042302F00CFB00BF1037F6
:1004BC00BD4680BD80B582B000AF78600121786800
:1004CC00FFF796FF022001F047FE00BF0837BD463C
:1004DC0080BD80B586B000AFF860B9607A607B688B
:1004EC00002B03D07B68012B05D00EE0BB68DBB280
:1004FC00803BFB7504E0BB68DBB2403BFB7500BF87
:10050C00FB7D1946F868FFF773FF1837BD4680BDB1
:10051C0080B582B000AF7860322001F01DFE302132
:10052C007868FFF765FF052001F016FE302178682A
:10053C00FFF75EFF012001F00FFE30217868FFF716
:10054C0057FF0A2001F008FE20217868FFF750FFC2
:10055C000A2001F001FE28217868FFF749FF0120ED
:10056C0001F0FAFD08217868FFF742FF012001F045
:10057C00F3FD01217868FFF73BFF022001F0ECFD51
:10058C0006217868FFF734FF012001F0E5FD0C210E
:10059C007868FFF72DFF00BF0837BD4680BD80B5DA
:1005AC0082B000AF7860396007E03B685A1C3A6053
:1005BC001B7819467868FFF74CFF3B681B78002BBB
:1005CC00F3D100BF00BF0837BD4680BD80B400AF7B
:1005DC00064B00221A70064B00221A70054B0022A3
:1005EC001A7000BFBD4680BC704700BFA000002041
:1005FC00A1000020A200002080B582B000AF3748D7
:10060C00FFF731FE0346FB71FB79002B08D0344B0E
:10061C001B78FA799A4203D0324AFB79137002E0C4
:10062C00304B00221A702E4AFB791370032000F015
:10063C00FDF80346BB71032000F012F903467B71F1
:10064C00284B00225A70274B00229A70BB79012B41
:10065C0006D1254B1B78002B02D1224B01225A705C
:10066C007B79012B02D11F4B01229A701E4ABB7958
:10067C001370042000F0DAF803463B71194B00228A
:10068C00DA703B79012B06D1184B1B78002B02D169
:10069C00144B0122DA70154A3B791370002000F0DC
:1006AC00C5F80346DAB2124B1A70012000F0BEF8FE
:1006BC000346DAB20E4B5A70022000F0B7F803462C
:1006CC00DAB20B4B9A70022000F0CAF80346DAB289
:1006DC00074BDA7000BF0837BD4680BD64010020AF
:1006EC00A0000020E0010020A1000020A2000020BA
:1006FC001001002080B582B000AF78607B68042BBD
:10070C002FD801A252F823F0290700083707000858
:10071C004507000853070008610700084FF4005113
:10072C00124802F047F803461CE04FF480410F4892
:10073C0002F040F8034615E04FF400410B4802F07C
:10074C0039F803460EE04FF48051094802F032F8B4
:10075C00034607E04FF40051054802F02BF803461E
:10076C0000E0012318460837BD4680BD001001404B
:10077C00000C014090B583B000AF0023FB7142E048
:10078C00FA79FB792449895C244AD154FB79FC79A8
:10079C001846FFF7AFFF03461A461F4B1A55FB7955
:1007AC001D4AD25CFB791D49CB5C9A4228D1FA795F
:1007BC00FB791949895C1A4AD154FB79184AD35CE4
:1007CC00002B14D1FB79174A32F81330632B09D85C
:1007DC00FB79144A32F81320013291B2114A22F8F3
:1007EC0013100DE0FB79104A0121D15408E0FB797C
:1007FC000C4A002122F81310FB790B4A0021D1542A
:10080C00FB790133FB71FB79042BB9D900BF00BF15
:10081C000C37BD4690BD00BFAC000020B4000020DA
:10082C00A4000020C4000020BC00002080B483B0D1
:10083C0000AF78607B68042B01D9002308E0074ADD
:10084C007B6813441B78002B0CBF01230023DBB205
:10085C0018460C37BD4680BC704700BFA400002072
:10086C0080B483B000AF78607B68042B01D900237F
:10087C0008E0074A7B6813441B78012B0CBF01234B
:10088C000023DBB218460C37BD4680BC704700BF56
:10089C00BC00002080B485B000AF786039600023C4
:1008AC00FB813B6800221A800123BB812CE0BB89B1
:1008BC007A6813441A78FB8979680B441B789A423E
:1008CC000CD1FB890133FB81BB895B003A68134473
:1008DC00FA891A80BB890133BB8115E0FB89002B97
:1008EC0009D0FB8903F10043013B5B003A681344D8
:1008FC001B88FB8108E0BB895B003A68134400222B
:10090C001A80BB890133BB81BB89032BCFD900BFB4
:10091C0000BF1437BD4680BC7047000080B586B060
:10092C0000AF78600B467B807B88032B01D80023BB
:10093C0040E007F10C0319462048FFF7ABFF0023FA
:10094C00FB820023BB8230E0BB8A1C4AD25CFB8A50
:10095C0079680B441B789A4205D1FB8A0133FB82E0
:10096C00BB8A0133BB82BB8A042B01D1012321E05A
:10097C00FA8A7B889A4218D2BB8A104AD25CFB8ACC
:10098C0079680B441B789A420FD0BB8A002B09D094
:10099C00BB8A013B5B0007F11802134433F80C3C93
:1009AC00BB8202E0FB8A0133FB82FA8A7B889A4283
:1009BC00CAD3002318461837BD4680BD5C01002001
:1009CC0080B58EB00EAF01F065FB00F06DF800F055
:1009DC0021F900F0D3F800F0A3F8294803F036FB16
:1009EC00284B294A1A60274B27221A712548FFF7F2
:1009FC008FFD2448FFF75EFDFFF7A0FC00F010FC14
:100A0C0008230D93214B0C9304230B931F4B0A9338
:100A1C00022309931D4B0893012307931B4B069349
:100A2C0080230593194B049340230393174B029394
:100A3C0020230193154B00931023144A1449154895
:100A4C00FFF790FBFFF7C2FD00F048FB00F01EFE25
:100A5C000A220021104800F001FC0A2201210F4853
:100A6C0000F0FCFB0A2202210D4800F0F7FB1422D7
:100A7C0003210C4800F0F2FB00F0DAFCFCE700BFAD
:100A8C005002002028010020FC0100200008014039
:100A9C000000002064010020810700080506000802
:100AAC00C11600085511000880B590B000AF07F1D1
:100ABC00180328220021184603F0A2FE3B1D002239
:100ACC001A605A609A60DA601A610223BB610123D2
:100ADC00BB621023FB6200237B6307F118031846EB
:100AEC0002F06AFE0346002B01D000F025F90F231B
:100AFC007B600023BB600023FB6000233B61002371
:100B0C007B613B1D0021184603F0D6F80346002BF1
:100B1C0001D000F011F900BF4037BD4680BD000088
:100B2C0080B500AF124B134A1A60114B124A5A602F
:100B3C000F4B00229A600E4B0022DA600C4B4FF4E4
:100B4C0080421A610A4B00225A61094B00229A61B9
:100B5C00074B0022DA61064B00221A62044801F0AE
:100B6C0059FE0346002B01D000F0E6F800BF80BD13
:100B7C00FC01002000540040A086010080B586B026
:100B8C0000AF07F1080300221A605A609A60DA601D
:100B9C003B4600221A605A601D4B4FF080421A608F
:100BAC001B4B41F63F725A60194B00229A60184B4E
:100BBC000922DA60164B00221A61154B00229A6149
:100BCC00134803F0F3F90346002B01D000F0B4F8FE
:100BDC004FF48053BB6007F1080319460C4803F02F
:100BEC0077FB0346002B01D000F0A6F800233B60F6
:100BFC0000237B603B461946054803F059FD03462C
:100C0C00002B01D000F098F800BF1837BD4680BD0E
:100C1C005002002080B588B000AF07F1100300220D
:100C2C001A605A609A60DA60394B9B69384A43F013
:100C3C0010039361364B9B6903F01003FB60FB6858
:100C4C00334B9B69324A43F004039361304B9B69ED
:100C5C0003F00403BB60BB682D4B9B692C4A43F02B
:100C6C00080393612A4B9B6903F008037B607B6844
:100C7C000022F021274801F0B4FD00221B21264858
:100C8C0001F0AFFD4FF460433B6100237B61012316
:100C9C00BB6107F110031946204801F007FC0F2334
:100CAC003B6100237B610123BB6107F110031946F3
:100CBC00184801F0FBFBF0233B6101237B6100230F
:100CCC00BB610223FB6107F110031946114801F0C7
:100CDC00EDFB1B233B6101237B610023BB610223E2
:100CEC00FB6107F1100319460B4801F0DFFB4FF4D1
:100CFC0040533B6100237B610023BB6107F1100370
:100D0C001946054801F0D2FB00BF2037BD4680BD17
:100D1C000010024000080140000C0140001001408E
:100D2C0080B582B000AF786000F03EFB01F05CF95A
:100D3C0000BF0837BD4680BD80B400AF72B600BF9F
:100D4C00FEE780B584B000AF786039603868FFF793
:100D5C0001FAF860FB68102B01D91023FB60FB68CB
:100D6C00C3F110035B08BB6010222021786803F0EC
:100D7C0047FD7A68BB681344FA683968184603F073
:100D8C0031FD7B68103300221A7000BF1037BD464E
:100D9C0080BD000080B58EB000AF3B1D102220211D
:100DAC00184603F02DFD00233B752E48FFF7D2F9B2
:100DBC000346BB622C4B1B68BA6A9A4209DD2B4B6B
:100DCC001B684FF47A7292FBF3F31946042001F07E
:100DDC00E7F8254ABB6A1360BB6A042BB8BF04232F
:100DEC00043B7B62BB6A3B623A6A7B6AD31AFB6147
:100DFC0006237B6300233B6326E07A6A3B6B134438
:100E0C00BB61184ABB6913441B7887F82F30BB6A47
:100E1C00013BBA699A4207D1154B1B69002B06DCC2
:100E2C002A2387F82F3002E02A2387F82F307B6B98
:100E3C005A1C7A6307F13802134497F82F2003F8F1
:100E4C00342C3B6B01333B633A6BFB699A42D4DB2A
:100E5C003B1D1946074803F0FBFC00BF3837BD4665
:100E6C0080BD00BF30010020F800002010000020E1
:100E7C0048010020CD01002090B589B000AF774B20
:100E8C001B78013B0D2B00F2E38001A252F823F0FA
:100E9C00D50E0008E70E0008F90E00080B0F00082D
:100EAC00190F00087D0F0008D10F0008E30F000890
:100EBC00F50F000803100008151000082710000893
:100ECC00391000084B10000865496648FFF739FFD8
:100EDC0063496548FFF735FFBBE064496148FFF79C
:100EEC0030FF63496048FFF72CFFB2E061495D4871
:100EFC00FFF727FF60495C48FFF723FFA9E05F4934
:100F0C005848FFF71EFFFFF745FFA2E05C48FFF7CC
:100F1C0021F90346032B05D95948FFF71BF9034662
:100F2C00142B08D957494F48FFF70BFF56494E4829
:100F3C00FFF707FF8DE055494A48FFF702FF544B76
:100F4C001968544BA3FB01235A0813465B00134446
:100F5C00CA1AC2F103037B613B467A694E491846B3
:100F6C0003F056FC3B4619463F48FFF7EAFE70E09B
:100F7C004A493C48FFF7E5FE454B9C6801F0E2F816
:100F8C0003469C4219D9424B9C6801F0DBF803469E
:100F9C00E31AFB61FB69424AA2FB03239B0B01335F
:100FAC00BB613B46BA693F49184603F031FC3B46EE
:100FBC0019462D48FFF7C5FE4BE03B492A48FFF781
:100FCC00C0FE46E039492748FFF7BBFE38492648A2
:100FDC00FFF7B7FE3DE037492248FFF7B2FE36492E
:100FEC002148FFF7AEFE34E034491E48FFF7A9FE56
:100FFC00FFF7D0FE2DE032491A48FFF7A2FE184940
:10100C001948FFF79EFE24E02E491648FFF799FE7B
:10101C002D491548FFF795FE1BE02C491148FFF7A9
:10102C0090FE2B491048FFF78CFE12E029490D4821
:10103C00FFF787FE28490C48FFF783FE09E0244997
:10104C000848FFF77EFE06490748FFF77AFE00E0E6
:10105C0000BF00BF2437BD4690BD00BFF801002083
:10106C00A4500008BC010020CD010020A8500008AD
:10107C00B8500008C4500008CC500008DC500008E0
:10108C0030010020EC500008FC5000080C51000806
:10109C0018010020ABAAAAAA1C5100082C51000868
:1010AC0073B2E7453C510008485100085051000804
:1010BC005C51000868510008745100088451000804
:1010CC0094510008A0510008AC510008B051000820
:1010DC00BC510008C8510008D451000880B500AFBD
:1010EC0000220821134801F07CFB0022102111483A
:1010FC0001F077FB002201210E4801F072FB002267
:10110C0002210C4801F06DFB0B48FFF701FA0A486D
:10111C00FFF7D0F911220021084803F071FB1122CE
:10112C000021074803F06CFB064B00221A6000BF3D
:10113C0080BD00BF000C014028010020D000002021
:10114C00E4000020F800002080B500AFFFF794FE0B
:10115C002C4B1B78012B0CBF01230023DBB21A464E
:10116C000821294801F03DFB264B5B78012B0CBF75
:10117C0001230023DBB21A461021234801F031FB76
:10118C00204BDB78012B0CBF01230023DBB21A466A
:10119C0001211D4801F025FB1A4B9B78012B0CBF3C
:1011AC0001230023DBB21A460221174801F019FB78
:1011BC0016491748FEF7C4FF0346002B0CD000223B
:1011CC0000211448FFF785F911491248FFF7E7F998
:1011DC000F490E4803F03CFB0F491048FEF7B0FFD7
:1011EC000346002B0CD0012200210A48FFF771F9AD
:1011FC000A490848FFF7D3F90849074803F028FBC8
:10120C0000BF80BDB8010020000C0140D0000020C0
:10121C00BC01002028010020E4000020CD010020AA
:10122C0080B582B000AF0023FB7106E0FB79184655
:10123C0000F030F9FB790133FB71FB79272BF5D9E1
:10124C00044B00221A70044B00221A7000BF08379E
:10125C00BD4680BDFC000020FD000020B0B487B06E
:10126C0000AFF860B9607A604C4B1B78272B04D91F
:10127C004B4B01221A7028238BE00023FB750EE0E8
:10128C00FA7D484913469B0013449B000B440433DE
:10129C001B68BA68D31ABB60FB7D0133FB753F4BEF
:1012AC001B78FA7D9A420BD2FA7D3E4913469B007D
:1012BC0013449B000B4404331B68BA689A42DFD278
:1012CC00364B1B78BB7517E0BB7D5A1EB97D354874
:1012DC000B469B000B449B001844324913469B0061
:1012EC0013449B000B4404461D460FCD0FC42B68C2
:1012FC002360BB7D013BBB75BA7DFB7D9A42E3D875
:10130C00FA7D284913469B0013449B000B44FA6852
:10131C001A60FA7D234913469B0013449B000B442F
:10132C000433BA681A60FA7D1E4913469B001344B5
:10133C009B000B4408337A681A60FA7D19491346EE
:10134C009B0013449B000B440C3300221A70134B6C
:10135C001B78FA7D9A4215D2FB7D5A1C1149134613
:10136C009B0013449B000B4404331968FB7D5A1CEF
:10137C00BB68C91A0B4813469B0013449B000344DB
:10138C0004331960054B1B780133DAB2034B1A7026
:10139C00FB7D18461C37BD46B0BC7047FC000020D6
:1013AC00FD0000209802002080B483B000AF1E4BDB
:1013BC001B78002B33D01D4B5B68002B04D01B4BD0
:1013CC005B68013B194A53600023FB7116E0FA7904
:1013DC00164913469B0013449B000B440C331B789B
:1013EC000133D8B2114913469B0013449B000B44A4
:1013FC000C3302461A70FB790133FB710A4B1B78D4
:10140C00FA799A420CD2FA79084913469B00134494
:10141C009B000B4404331B68002BD8D000E000BFAA
:10142C000C37BD4680BC7047FC00002098020020A1
:10143C00B0B586B000AF154B1B78002B22D0144BE7
:10144C001B7B002B1FD0124B1B687B61104B1B7B33
:10145C00013BDAB20E4B1A737B6998470C4B3C4636
:10146C001D460FCD0FC42B682360002000F012F82E
:10147C00BB68002B07D03B68B968BA681846FFF701
:10148C00EDFE00E000BF1837BD46B0BDFC000020EB
:10149C0098020020B0B485B000AF0346FB71314B0D
:1014AC001B78FA799A4201D3012356E0FB79FB733E
:1014BC0017E0FB7B5A1CF97B2B480B469B000B441B
:1014CC009B001844284913469B0013449B000B4473
:1014DC0004461D460FCD0FC42B682360FB7B0133E4
:1014EC00FB73FA7B1F4B1B78013B9A42E1DB1D4BD4
:1014FC001B785A1E1C4913469B0013449B000B443B
:10150C0000221A60174B1B785A1E174913469B0072
:10151C0013449B000B44043300221A60114B1B78BC
:10152C005A1E114913469B0013449B000B4408336D
:10153C0000221A600B4B1B785A1E0B4913469B005A
:10154C0013449B000B440C3300221A70054B1B7880
:10155C00013BDAB2034B1A70002318461437BD4610
:10156C00B0BC7047FC0000209802002080B400AF93
:10157C00044B00221A80044B00221A7000BFBD4697
:10158C0080BC7047FE0000203001002080B483B086
:10159C0000AF0346FB710C4B1B88132B0FD80A4B67
:1015AC001B885A1C91B2084A11801946074AFB79CC
:1015BC005354054B1B881A46044B0021995400BF09
:1015CC000C37BD4680BC7047FE0000203001002067
:1015DC0080B400AF094B1B88002B0BD0074B1B882A
:1015EC00013B9AB2054B1A80044B1B881A46044BDC
:1015FC000021995400BFBD4680BC7047FE000020FE
:10160C003001002080B500AF074B1B88032B01D89D
:10161C00002306E0044B1B8819460448FFF77EF9AB
:10162C000346184680BD00BFFE000020300100209C
:10163C0080B584B000AF0346FB710023FB60FB79DF
:10164C00002B0AD00422FB79934206D8FB79013B8C
:10165C000C4A52F82330FB6005E00423013B094A95
:10166C0052F82330FB6000F06DFD0246FB684EF62D
:10167C00602101FB03F31344034A936000BF10374E
:10168C00BD4680BDE45100081801002080B500AFB4
:10169C00064B01221A70064B00221A60044B0022E2
:1016AC001A71FFF763FF00BF80BD00BFF801002077
:1016BC001801002080B582B000AFB34B5B78012BD2
:1016CC0007D0B14B9B78012B29D1AF4B1B78012B49
:1016DC0025D1AE4B1B78072B07D9AC4B1B780E2BA7
:1016EC0003D0AA4B1B780B2B19D1A84B08221A70CC
:1016FC00A74B1B6842F2107292FBF3F319460320BE
:10170C0000F04EFCA34B00221A60A24B00229A6000
:10171C009D4B00225A709C4B00229A7006E39B4B07
:10172C001B78013B0D2B00F2E48201A252F823F04E
:10173C00751700088D170008D1170008FB17000853
:10174C007F180008E7190008251A0008371A000846
:10175C009B1A00085F1B0008D71B00084B1C0008D5
:10176C00A51C0008C91C00088B4B1B78002B00F033
:10177C00C482864B02221A70874B00221A70BCE27C
:10178C00814B1B79002B0DD0804B03221A70804BA0
:10179C001B6840F6B83292FBF3F31946012000F0B7
:1017AC00FFFBC3E2794B04221A70FFF7DFFE784B84
:1017BC001B6847F2305292FBF3F31946022000F0FB
:1017CC00EFFBB3E2754B5B68012B40F098826F4BDB
:1017DC0004221A70FFF7CAFE6D4B1B6847F2305299
:1017EC0092FBF3F31946022000F0DAFB87E26B4B15
:1017FC009B68012B03D1654B01221A7081E2664B69
:10180C005B78002B09D0614B05221A70644B0022C7
:10181C001A70614B00225A7073E25F4BDB78002B1D
:10182C000FD0FFF7D5FE5A4B1B6847F2305292FB94
:10183C00F3F31946022000F0B3FB574B0022DA7089
:10184C005FE2554B1B78002B00F05B82524B1B78F0
:10185C001846FFF79BFE4E4B1B6847F2305292FB2B
:10186C00F3F31946022000F09BFB4B4B00221A703D
:10187C0047E24B4B1B7883F00103DBB2002B00F0EB
:10188C009780FFF7BFFE0346FB71464B1B88032B6B
:10189C0003D9444B1B88142B0DD9414B01221A70D0
:1018AC003B4B1B6840F6B83292FBF3F31946012010
:1018BC0000F076FB27E2FB79002B12D0334B082289
:1018CC001A70334B1B6842F2107292FBF3F31946F9
:1018DC00032000F065FB2F4B00221A60FFF746FE39
:1018EC0011E22C4B1B6801332A4A1360FFF73EFEB2
:1018FC00284B19682C4BA3FB01235A0813465B0099
:10190C001344CA1A002A30D1224B1B680E2B10D953
:10191C001E4B07221A70254B0122DA701C4B1B68D8
:10192C0042F2107292FBF3F31946002000F038FBE0
:10193C00E9E1184B1B681C4AA2FB03235B08BB7133
:10194C00BB791846FFF774FE104B06221A70174B22
:10195C000122DA700E4B1B6842F2107292FBF3F309
:10196C001946002000F01CFBCDE10D4B01221A7032
:10197C00074B1B6840F6B83292FBF3F31946012073
:10198C0000F00EFBBFE100BF10010020F8010020A9
:10199C001000002018010020E0010020E4010020CC
:1019AC0000010020FE000020ABAAAAAAB80100206A
:1019BC00B04B5B68012B40F0A681AF4B04221A7030
:1019CC00FFF7D4FDAD4B1B6847F2305292FBF3F39B
:1019DC001946022000F0E4FA95E1A64B1B68012B96
:1019EC0002D1A74B0022DA7000F0ACFB0246A54BEB
:1019FC009B689A42C0F089819F4B04221A70FFF7B2
:101A0C00B5FD9E4B1B6847F2305292FBF3F319461F
:101A1C00022000F0C5FA78E1964B1B68012B40F0D0
:101A2C007681974B0022DA7071E1974B1B78002B73
:101A3C000DD1914B0A221A70904B1B6847F2305211
:101A4C0092FBF3F31946032000F0AAFA61E1894BEB
:101A5C00DB68012B03D1884B0E221A7059E18B4B9A
:101A6C009B78002B00F05581834B09221A70FFF7ED
:101A7C007DFD824B1B6847F2305292FBF3F3194603
:101A8C00022000F08DFA814B00229A7041E1794BD3
:101A9C009B68012B0DD1784B08221A70774B1B6871
:101AAC0042F2107292FBF3F31946032000F078FA1D
:101ABC0031E1764B5B78002B1BD0754B1B88042BCC
:101ACC0006D1744800F040F96B4B0E221A700CE0F2
:101ADC00694B08221A70694B1B6842F2107292FB18
:101AEC00F3F31946032000F05BFA684B00225A709E
:101AFC0011E1664B1B78002B16D0654B1B88032B12
:101B0C0004D8624B1B781846FFF740FD5B4B1B68F3
:101B1C0047F2305292FBF3F31946022000F040FAE0
:101B2C005A4B00221A70F6E0584BDB78002B00F071
:101B3C00F280FFF74DFD514B1B6847F2305292FB80
:101B4C00F3F31946022000F02BFA504B0022DA7006
:101B5C00E1E04D4B1B78012B0DD1474B0C221A7039
:101B6C00464B1B6842F2107292FBF3F319460320AA
:101B7C0000F016FAD1E0444BDB78002B06D03E4B3C
:101B8C000D221A70404B0022DA70C6E0394BDB682C
:101B9C00012B40F0C280384B0B221A7000F0D2FAA5
:101BAC00034603F5922303F57873364AD360344B1E
:101BBC000122DA70314B1B6842F2107292FBF3F384
:101BCC001946002000F0ECF9A7E02F4B1B78012BF5
:101BDC000FD1294B0C221A70284B1B6842F2107241
:101BEC0092FBF3F31946032000F0DAF9244B0022A0
:101BFC00DA70204B1B68012B02D1214B0022DA70CA
:101C0C0000F0A0FA02461F4BDB689A42C0F08780B6
:101C1C0000F098FA034603F5922303F57873194AFA
:101C2C00D360174B0122DA70144B1B6842F210720E
:101C3C0092FBF3F31946002000F0B2F96FE0124B5F
:101C4C001B78002B0DD10C4B0A221A700B4B1B6806
:101C5C0047F2305292FBF3F31946032000F0A0F93F
:101C6C005FE0044BDB68012B5BD1034B0E221A7037
:101C7C0057E000BFE4010020F80100201000002014
:101C8C00B80100201801002010010020E001002004
:101C9C00FE00002030010020264B1B78012B42D186
:101CAC00254B0C221A70254B1B6842F2107292FBCA
:101CBC00F3F31946032000F073F934E0204B5B6812
:101CCC00002B0ED11F4B5B68002B0AD11B4B1B68E2
:101CDC0040F6B83292FBF3F31946012000F060F99C
:101CEC0023E0174B5B68012B1FD1134B01221A7099
:101CFC001BE0114B01221A7018E000BF16E000BF68
:101D0C0014E000BF12E000BF10E000BF0EE000BF07
:101D1C000CE000BF0AE000BF08E000BF06E000BF17
:101D2C0004E000BF02E000BF00E000BF0837BD4682
:101D3C0080BD00BF10010020F80100201000002021
:101D4C00E40100204801002080B582B000AF78602B
:101D5C007868FEF7FFF90346042B01D0002304E05A
:101D6C007968044802F074FD012318460837BD4613
:101D7C0080BD00BF5C01002080B485B000AF154B66
:101D8C009B69144A43F001039361124B9B6903F066
:101D9C000103BB60BB680F4BDB690E4A43F08053F9
:101DAC00D3610C4BDB6903F080537B607B680A4B7F
:101DBC005B68FB60FB6823F0E063FB60FB6843F04F
:101DCC000073FB60044AFB68536000BF1437BD46C8
:101DDC0080BC7047001002400000014080B588B004
:101DEC0000AF786007F1100300221A605A609A6005
:101DFC00DA607B681B68194A93422BD1184B9B699C
:101E0C00174A43F008039361154B9B6903F00803D1
:101E1C00FB60FB68C0233B6112237B610323FB61E6
:101E2C0007F1100319460F4800F040FB0C4BDB691F
:101E3C000B4A43F40013D361094BDB6903F4001321
:101E4C00BB60BB6800220021202000F080FA20201B
:101E5C0000F099FA00BF2037BD4680BD0054004009
:101E6C0000100240000C014080B584B000AF7860D7
:101E7C007B681B68B3F1804F13D10C4BDB690B4AA9
:101E8C0043F00103D361094BDB6903F00103FB60F1
:101E9C00FB68002200211C2000F059FA1C2000F0E5
:101EAC0072FA00BF1037BD4680BD00BF0010024063
:101EBC0080B400AFFEE780B400AFFEE780B400AFA3
:101ECC00FEE780B400AFFEE780B400AFFEE780B45D
:101EDC0000AF00BFBD4680BC704780B400AF00BFF0
:101EEC00BD4680BC704780B400AF00BFBD4680BC0F
:101EFC00704780B500AF00F013F900BF80BD000043
:101F0C0080B500AF024802F0F3F800BF80BD00BFFF
:101F1C005002002080B500AF024800F0D1FE00BF97
:101F2C0080BD00BFFC01002080B586B000AF78609A
:101F3C00144A154BD31A7B617B693B61134B1B68AD
:101F4C00002B02D1114B124A1A60104B1A687B6895
:101F5C0013443A699A4207D202F01AFC03460C2247
:101F6C001A604FF0FF3309E0084B1B68FB60074B0E
:101F7C001A687B681344054A1360FB6818461837C7
:101F8C00BD4680BD0050002000040000040100206C
:101F9C00D005002080B400AF00BFBD4680BC7047A8
:101FAC0080B483B000AF786039607B68002B10DBA5
:101FBC007B68042B0DDC094B1B683A6892FBF3F22F
:101FCC0007497B6841F82320064A7B68002142F8C8
:101FDC00231000BF0C37BD4680BC7047100000209A
:101FEC0048010020E401002080B483B000AF00233E
:101FFC007B601CE0124A7B6852F82330002B13DD07
:10200C000F4A7B6852F823305A1E0D497B6841F801
:10201C0023200B4A7B6852F82330002B04DC094A3E
:10202C007B68012142F823107B6801337B607B685D
:10203C00042BDFDD00BF00BF0C37BD4680BC7047F2
:10204C0048010020E4010020FFF7A4FF0B480C49D5
:10205C000C4A002302E0D458C4500433C4188C42F8
:10206C00F9D3094A094C002301E013600432A2425F
:10207C00FBD302F093FBFEF7A3FC7047000000209B
:10208C00840000205C52000884000020CC05002055
:10209C00FEE7000080B500AF084B1B68074A43F011
:1020AC0010031360032000F047F90F2000F008F82C
:1020BC00FFF762FE0023184680BD00BF00200240DF
:1020CC0080B582B000AF7860124B1A68124B1B7847
:1020DC0019464FF47A73B3FBF1F3B2FBF3F31846E2
:1020EC0000F05FF90346002B01D001230EE07B6862
:1020FC000F2B0AD8002279684FF0FF3000F027F937
:10210C00064A7B681360002300E001231846083759
:10211C00BD4680BD140000201C00002018000020CB
:10212C0080B400AF054B1B781A46054B1B68134453
:10213C00034A136000BFBD4680BC70471C000020E2
:10214C00B805002080B400AF024B1B681846BD4692
:10215C0080BC7047B805002080B584B000AF7860B3
:10216C00FFF7F0FFB8607B68FB60FB68B3F1FF3FE3
:10217C0005D00A4B1B781A46FB681344FB6000BF62
:10218C00FFF7E0FF0246BB68D31AFA689A42F7D809
:10219C0000BF00BF1037BD4680BD00BF1C00002033
:1021AC0080B485B000AF78607B6803F00703FB60F8
:1021BC000C4BDB68BB60BA684FF6FF031340BB6087
:1021CC00FB681A02BB68134343F0BF6343F400334C
:1021DC00BB60044ABB68D36000BF1437BD4680BCEB
:1021EC00704700BF00ED00E080B400AF044BDB682B
:1021FC001B0A03F007031846BD4680BC704700BF9E
:10220C0000ED00E080B483B000AF0346FB7197F99A
:10221C000730002B0BDBFB7903F01F02064997F903
:10222C0007305B09012000FA02F241F8232000BFBD
:10223C000C37BD4680BC704700E100E080B483B031
:10224C0000AF03463960FB7197F90730002B0ADBAE
:10225C003B68DAB20C4997F907301201D2B20B4441
:10226C0083F800230AE03B68DAB20849FB7903F0F3
:10227C000F03043B1201D2B20B441A7600BF0C3789
:10228C00BD4680BC704700BF00E100E000ED00E0FF
:10229C0080B489B000AFF860B9607A60FB6803F075
:1022AC000703FB61FB69C3F10703042B28BF04235D
:1022BC00BB61FB690433062B02D9FB69033B00E0CD
:1022CC0000237B614FF0FF32BB6902FA03F3DA4360
:1022DC00BB681A407B699A404FF0FF317B6901FA69
:1022EC0003F3D9437B680B40134318462437BD4690
:1022FC0080BC704780B582B000AF78607B68013BD2
:10230C00B3F1807F01D301230FE00A4A7B68013BC4
:10231C0053600F214FF0FF30FFF790FF054B002269
:10232C009A60044B07221A60002318460837BD46F2
:10233C0080BD00BF10E000E080B582B000AF7860D7
:10234C007868FFF72DFF00BF0837BD4680BD80B50C
:10235C0086B000AF0346B9607A60FB7300237B61E3
:10236C00FFF742FF78617A68B9687869FFF790FFE8
:10237C00024697F90F3011461846FFF75FFF00BF72
:10238C001837BD4680BD80B582B000AF0346FB71E7
:10239C0097F907301846FFF735FF00BF0837BD46E1
:1023AC0080BD80B582B000AF78607868FFF7A2FF7F
:1023BC00034618460837BD4680BD000080B584B082
:1023CC0000AF78600023FB737B6893F82130DBB29D
:1023DC00022B05D07B6804229A630123FB7351E026
:1023EC007B681B681A687B681B6822F00E021A60F7
:1023FC007B681B681A687B681B6822F001021A60F4
:10240C007B681B68224A934229D07B681B68214A4F
:10241C00934222D07B681B681F4A93421AD07B6878
:10242C001B681E4A934212D07B681B681C4A93425D
:10243C000AD07B681B681B4A934202D14FF480136D
:10244C000EE04FF080730BE04FF4803308E04FF454
:10245C00805305E04FF4807302E0102300E0012369
:10246C00114A53607B68012283F821207B6800228B
:10247C0083F820207B685B6B002B03D07B685B6B45
:10248C0078689847FB7B18461037BD4680BD00BF67
:10249C00080002401C000240300002404400024090
:1024AC00580002406C0002400000024080B48BB027
:1024BC0000AF7860396000237B6200233B6269E1E6
:1024CC0001227B6A02FA03F3FB613B681B68FA6921
:1024DC001340BB61BA69FB699A4240F058813B6872
:1024EC005B689A4A93425ED0984A934275D8984A50
:1024FC00934258D0964A93426FD8964A934252D000
:10250C00944A934269D8944A93424CD0924A93424B
:10251C0063D8924A934246D0904A93425DD8122B8C
:10252C002AD8122B59D801A252F823F0B32500084F
:10253C008D2500089F250008E1250008E7250008E7
:10254C00E7250008E7250008E7250008E72500082F
:10255C00E7250008E7250008E7250008E72500081F
:10256C00E7250008E7250008E7250008E72500080F
:10257C0095250008A9250008794A934213D02CE030
:10258C003B68DB683B6229E03B68DB6804333B62F9
:10259C0024E03B68DB6808333B621FE03B68DB6888
:1025AC000C333B621AE03B689B68002B02D104237E
:1025BC003B6213E03B689B68012B05D108233B620F
:1025CC007B68FA691A6109E008233B627B68FA6947
:1025DC005A6103E000233B6200E000BFBB69FF2BA4
:1025EC0001D87B6801E07B6804337B61BB69FF2BFE
:1025FC0002D87B6A9B0002E07B6A083B9B003B6134
:10260C007B691A680F213B6901FA03F3DB431A401B
:10261C00396A3B6901FA03F31A437B691A603B6818
:10262C005B6803F08053002B00F0B1804D4B9B692D
:10263C004C4A43F0010393614A4B9B6903F001033D
:10264C00BB60BB68484A7B6A9B08023352F8233054
:10265C00FB607B6A03F003039B000F2202FA03F377
:10266C00DB43FA681340FB607B68404A934213D00B
:10267C007B683F4A93420DD07B683E4A934207D019
:10268C007B683D4A934201D1032306E0042304E016
:10269C00022302E0012300E000237A6A02F0030225
:1026AC0092009340FA681343FB602F497B6A9B08A6
:1026BC000233FA6841F823203B685B6803F480130B
:1026CC00002B06D02D4B9A682C49BB6913438B60A9
:1026DC0006E02A4B9A68BB69DB43284913408B60A0
:1026EC003B685B6803F40013002B06D0234BDA68BD
:1026FC002249BB691343CB6006E0204BDA68BB6907
:10270C00DB431E491340CB603B685B6803F400332A
:10271C00002B06D0194B5A681849BB6913434B6000
:10272C0006E0164B5A68BB69DB43144913404B60F7
:10273C003B685B6803F48033002B21D00F4B1A6885
:10274C000E49BB6913430B6021E000BF000032103F
:10275C0000003110000022100000211000001210A7
:10276C000000111000100240000001400008014060
:10277C00000C014000100140001401400004014015
:10278C000B4B1A68BB69DB43094913400B607B6A2E
:10279C0001337B623B681A687B6A22FA03F3002BD5
:1027AC007FF48EAE00BF00BF2C37BD4680BC704797
:1027BC000004014080B485B000AF78600B467B808C
:1027CC007B689A687B881340002B02D00123FB7333
:1027DC0001E00023FB73FB7B18461437BD4680BC1D
:1027EC00704780B483B000AF78600B467B80134693
:1027FC007B707B78002B03D07A887B681A6103E0AE
:10280C007B881A047B681A6100BF0C37BD4680BCFC
:10281C007047000080B584B000AF78607B68002BF7
:10282C0001D101232BE17B6893F83D30DBB2002B07
:10283C0006D17B68002283F83C207868FFF7CEFA3B
:10284C007B68242283F83D207B681B681A687B68B0
:10285C001B6822F001021A607B681B681A687B688F
:10286C001B6842F400421A607B681B681A687B681C
:10287C001B6822F400421A6001F066FBF8607B686A
:10288C005B68814A934207D8FB68804A934294BFA5
:10289C0001230023DBB206E0FB687D4A934294BF20
:1028AC0001230023DBB2002B01D00123E7E0FB68FE
:1028BC00784AA2FB03239B0CBB607B681B685B689C
:1028CC0023F03F017B681B68BA680A435A607B6837
:1028DC001B681B6A23F03F017B685B686A4A934262
:1028EC0002D8BB68013309E0BB684FF4967202FB57
:1028FC0003F3694AA2FB03239B0901337A6812682C
:10290C000B4313627B681B68DB6923F44F4222F094
:10291C00FF027B685B685C498B4219D8FB68591EC7
:10292C007B685B685B00B1FBF3F3591C40F6FC73EE
:10293C000B40002B0AD0FB68591E7B685B685B0060
:10294C00B1FBF3F30133C3F30B0351E004234FE06A
:10295C007B689B68002B11D1FB68581E7B685968FB
:10296C000B465B000B44B0FBF3F30133C3F30B03D7
:10297C00002B0CBF01230023DBB212E0FB68581EB6
:10298C007B6859680B469B000B4499000B44B0FBC9
:10299C00F3F30133C3F30B03002B0CBF0123002310
:1029AC00DBB2002B01D0012322E07B689B68002B5B
:1029BC000ED1FB68581E7B6859680B465B000B44B4
:1029CC00B0FBF3F30133C3F30B0343F400430FE009
:1029DC00FB68581E7B6859680B469B000B4499009A
:1029EC000B44B0FBF3F30133C3F30B0343F4404349
:1029FC00796809681343CB617B681B681B6823F0FB
:102A0C00C0017B68DA697B681B6A1A437B681B68A8
:102A1C000A431A607B681B689B6823F4034323F00A
:102A2C00FF037A6811697A68D26811437A68126870
:102A3C000B4393607B681B68DB6823F0FF017B68AA
:102A4C005A697B689B691A437B681B680A43DA6086
:102A5C007B681B681A687B681B6842F001021A606D
:102A6C007B6800221A647B68202283F83D207B68F7
:102A7C0000221A637B68002283F83E20002318464C
:102A8C001037BD4680BD00BFA08601007F841E00AC
:102A9C00FF083D0083DE1B43D34D621080B483B02E
:102AAC0000AF78607B681B685B6903F08003802B48
:102ABC0003D17B681B6800221A6100BF0C37BD462E
:102ACC0080BC704780B588B002AFF8607A601A4657
:102ADC000B467B8113463B81FFF734FB7861FB6827
:102AEC0093F83D30DBB2202B40F0E0807B69009303
:102AFC00192301227049F86800F086FC0346002B6C
:102B0C0001D00223D3E0FB6893F83C30012B01D1B8
:102B1C000223CCE0FB68012283F83C20FB681B6895
:102B2C001B6803F00103012B07D0FB681B681A68B4
:102B3C00FB681B6842F001021A60FB681B681A688C
:102B4C00FB681B6822F400621A60FB68212283F880
:102B5C003D20FB68102283F83E20FB6800221A649B
:102B6C00FB687A685A62FB683A895A85FB685B8D08
:102B7C009AB2FB681A85FB68504ADA6279897B69DC
:102B8C003A6AF86800F016FB0346002B01D00123CB
:102B9C008DE000233B61FB681B685B693B61FB6854
:102BAC001B689B693B613B6966E07A69396AF86826
:102BBC0000F044FD0346002B0DD0FB681B6C042B6E
:102BCC0007D1FB681B681A68FB681B6842F400722B
:102BDC001A6001236BE0FB685B6A1A78FB681B6860
:102BEC001A61FB685B6A5A1CFB685A62FB685B8D56
:102BFC009BB2013B9AB2FB685A85FB681B8D013B6B
:102C0C009AB2FB681A85FB681B685B6903F00403C6
:102C1C00042B1BD1FB681B8D002B17D0FB685B6A48
:102C2C001A78FB681B681A61FB685B6A5A1CFB68A4
:102C3C005A62FB685B8D9BB2013B9AB2FB685A856A
:102C4C00FB681B8D013B9AB2FB681A857A69396A5D
:102C5C00F86800F03BFD0346002B0DD0FB681B6CA5
:102C6C00042B07D1FB681B681A68FB681B6842F4CD
:102C7C0000721A6001231AE0FB681B8D002B94D1A3
:102C8C00FB681B681A68FB681B6842F400721A60C8
:102C9C00FB68202283F83D20FB68002283F83E204D
:102CAC00FB68002283F83C20002300E00223184636
:102CBC001837BD4680BD00BF020010000000FFFFAA
:102CCC0080B58AB000AF78607B681B685B693B623B
:102CDC007B681B685B68FB6100237B627B6893F8F5
:102CEC003E30FB763B6A1B0A03F00103002B16D027
:102CFC00FB691B0A03F00103002B10D07B6A43F025
:102D0C0001037B627B681B686FF480725A617B687D
:102D1C001B681A687B681B6842F400421A603B6AA5
:102D2C005B0A03F00103002B0ED0FB691B0A03F0B6
:102D3C000103002B08D07B6A43F002037B627B68A3
:102D4C001B686FF400725A613B6A9B0A03F0010323
:102D5C00002B3FD0FB691B0A03F00103002B39D079
:102D6C00FB7EBB767B685B8D9BB27B617B6893F84B
:102D7C003D30FB747B681B6BFB60BB7E202B12D140
:102D8C007B69002B0FD1FB7C212B08D0FB7C292BE2
:102D9C0005D0FB7C282B06D1FB68212B03D178684E
:102DAC0000F062F816E07B681B686FF480625A6171
:102DBC007B6A43F004037B62FB7E102B02D0FB7E0C
:102DCC00402B07D17B681B681A687B681B6842F430
:102DDC0000721A603B6ADB0A03F00103002B0ED071
:102DEC00FB691B0A03F00103002B08D07B6A43F03C
:102DFC0008037B627B681B686FF400625A617B6A14
:102E0C00002B08D07B681A6C7B6A1A437B681A64A7
:102E1C00786800F09DF800BF2837BD4680BD80B4AF
:102E2C0083B000AF786000BF0C37BD4680BC7047E4
:102E3C0080B483B000AF786000BF0C37BD4680BC57
:102E4C00704780B483B000AF786000BF0C37BD46CC
:102E5C0080BC704780B483B000AF786000BF0C3783
:102E6C00BD4680BC7047000080B584B000AF786070
:102E7C007B6893F83D30FB737B68DB6ABB60BB6897
:102E8C00082B02D0BB68202B29D1FB7B282B26D109
:102E9C007B682E4ADA627B681B685A687B681B6801
:102EAC0022F4E0625A607B681B686FF480625A619E
:102EBC007B681B681A687B681B6822F480621A6046
:102ECC007B6800221A637B68202283F83D207B6894
:102EDC00002283F83E207868FFF7AAFF31E0FB7BE5
:102EEC00212B29D17B68194ADA627B6821221A636B
:102EFC007B68202283F83D207B68002283F83E20EB
:102F0C007B681B685A687B681B6822F4E0625A6015
:102F1C007B681B686FF480625A617B681B681A6857
:102F2C007B681B6822F480621A607868FFF7B6FD34
:102F3C007868FFF774FF04E07B681B686FF48062AD
:102F4C005A6100BF1037BD4680BD00BF0000FFFFB7
:102F5C0080B584B000AF78607B6893F83D30FB732C
:102F6C007B6893F83E30BB73BB7B102B02D0BB7BD2
:102F7C00402B0AD1FB7B222B07D17B681B681A687C
:102F8C007B681B6822F400621A60FB7B03F0280349
:102F9C00282B07D17B6800221A637B68282283F8D0
:102FAC003D2015E07B681B685B6803F40063B3F598
:102FBC00006F0AD0FB7B602B07D07B68202283F844
:102FCC003D207B68002283F83E207B6800221A6338
:102FDC007B681B685B6803F40063B3F5006F62D118
:102FEC007B681B685A687B681B6822F400625A6015
:102FFC007B685B6B93F82130DBB2012B20D07B68B4
:10300C005B6B6A4A5A637B685B6B1846FFF7D6F9B1
:10301C000346002B00F089807B681B681A687B686C
:10302C001B6822F001021A607B68202283F83D2085
:10303C007B685B6B5B6B7A68526B1046984774E0ED
:10304C007B689B6B594A5A637B689B6B1846FFF7EE
:10305C00B5F90346002B68D07B681B685B6903F0ED
:10306C004003402B0BD17B681B681A697B685B6A39
:10307C00D2B21A707B685B6A5A1C7B685A627B6896
:10308C001B681A687B681B6822F001021A607B6857
:10309C00202283F83D207B689B6B5B6B7A68926B7C
:1030AC001046984741E07B6893F83D30DBB2602BCB
:1030BC0025D17B68202283F83D207B6800221A648E
:1030CC007B681B685B6903F04003402B0BD17B686A
:1030DC001B681A697B685B6AD2B21A707B685B6A80
:1030EC005A1C7B685A627B681B681A687B681B6871
:1030FC0022F001021A607868FFF7ACFE15E07B68DD
:10310C001B685B6903F04003402B0BD17B681B6889
:10311C001A697B685B6AD2B21A707B685B6A5A1C4C
:10312C007B685A627868FFF78CFE7B681B6CBB600F
:10313C00BB6803F00103002B0ED1BB6803F0020344
:10314C00002B09D1BB6803F00403002B04D1BB682E
:10315C0003F00803002B07D07B681B685A687B6858
:10316C001B6822F4E0625A607B6893F83D30FB7375
:10317C007B681B6C03F00403042B13D1FB7B282B03
:10318C0010D17B680A4ADA627B6800221A637B687A
:10319C00202283F83D207B68002283F83E2078684B
:1031AC00FFF746FE00BF1037BD4680BDC532000894
:1031BC000000FFFF80B588B002AFF8607A603B601A
:1031CC000B467B81FB68DB6A7B617B69082B06D035
:1031DC007B69012B03D07B6913F5803F08D1FB6819
:1031EC001B681A68FB681B6842F480721A600BE05B
:1031FC00FB681B6B122B07D1FB681B681A68FB68FA
:10320C001B6842F480721A603B6800937B68002252
:10321C004FF00111F86800F0F7F80346002B0DD0C1
:10322C00FB681B681B6803F48073B3F5807F03D1C4
:10323C00FB684FF400721A64032335E0FB681B69CA
:10324C00B3F5804F08D17B89DBB21A46FB681B684B
:10325C0002F0FE021A611BE07B89DB11DBB203F08A
:10326C000603DBB263F00F03DAB2FB681B681A616A
:10327C003B687A680E49F86800F040F90346002B69
:10328C0001D0012310E07B89DAB2FB681B681A615C
:10329C003B687A680749F86800F030F90346002B60
:1032AC0001D0012300E0002318461837BD4680BD2D
:1032BC00080001000200010080B586B000AF786004
:1032CC000023FB607B685B6A7B617B6993F83D3014
:1032DC00FB744B4B1B68DB084A4AA2FB03231A0AFC
:1032EC0013469B001344DA00D31AFB60FB68002BD7
:1032FC0006D17B691B6C43F020027B691A640AE0DF
:10330C00FB68013BFB607B691B681B6803F4007363
:10331C00B3F5007FEAD07B695B6B002B03D07B6934
:10332C005B6B00229A627B699B6B002B03D07B69E1
:10333C009B6B00229A627B691B681A687B691B680D
:10334C0022F480621A607B6900225A857B695B6B70
:10335C00002B03D07B695B6B00225A637B699B6BF0
:10336C00002B03D07B699B6B00225A637B691B6823
:10337C001A687B691B6822F001021A607B6993F85A
:10338C003D30DBB2602B0ED17B69202283F83D20CF
:10339C007B69002283F83E207B6900221A647869DD
:1033AC00FFF758FD27E0FB7C03F02803282B17D1EF
:1033BC007B691B681A687B691B6842F001021A6002
:1033CC007B691B681A687B691B6842F480621A600F
:1033DC007B6900221A637B69282283F83D2007E071
:1033EC007B69202283F83D207B69002283F83E20F4
:1033FC007869FFF726FD00BF1837BD4680BD00BFBA
:10340C001400002089B5F81480B584B000AFF860C2
:10341C00B9603B601346FB7148E03B68B3F1FF3F7A
:10342C0044D0FEF78FFE0246BB69D31A3A689A4223
:10343C0002D33B68002B39D1BB681B0CDBB2012BD0
:10344C000DD1FB681B685B69DA43BB6813409BB208
:10345C00002B0CBF01230023DBB21A460CE0FB68E7
:10346C001B689B69DA43BB6813409BB2002B0CBFF3
:10347C0001230023DBB21A46FB799A4216D1FB6872
:10348C0000221A63FB68202283F83D20FB6800228F
:10349C0083F83E20FB681B6C43F02002FB681A6427
:1034AC00FB68002283F83C20012323E0BB681B0C43
:1034BC00DBB2012B0DD1FB681B685B69DA43BB687F
:1034CC0013409BB2002B0CBF01230023DBB21A4626
:1034DC000CE0FB681B689B69DA43BB6813409BB22A
:1034EC00002B0CBF01230023DBB21A46FB799A4256
:1034FC0093D0002318461037BD4680BD80B584B0EC
:10350C0000AFF860B9607A603B6071E0FB681B68E3
:10351C005B6903F48063B3F5806F23D1FB681B6890
:10352C001A68FB681B6842F400721A60FB681B681F
:10353C006FF480625A61FB6800221A63FB682022D8
:10354C0083F83D20FB68002283F83E20FB681B6C4F
:10355C0043F00402FB681A64FB68002283F83C20E9
:10356C00012367E07B68B3F1FF3F41D0FEF7EAFD32
:10357C0002463B68D31A7A689A4202D37B68002BC6
:10358C0036D1BB681B0CDBB2012B0CD1FB681B6862
:10359C005B69DA43BB6813409BB2002B14BF012359
:1035AC000023DBB20BE0FB681B689B69DA43BB684A
:1035BC0013409BB2002B14BF01230023DBB2002B62
:1035CC0016D0FB6800221A63FB68202283F83D208A
:1035DC00FB68002283F83E20FB681B6C43F0200242
:1035EC00FB681A64FB68002283F83C20012321E06D
:1035FC00BB681B0CDBB2012B0CD1FB681B685B6935
:10360C00DA43BB6813409BB2002B14BF0123002389
:10361C00DBB20BE0FB681B689B69DA43BB681340A9
:10362C009BB2002B14BF01230023DBB2002B7FF4D1
:10363C006DAF002318461037BD4680BD80B584B0F1
:10364C0000AFF860B9607A6034E0F86800F086F892
:10365C000346002B01D0012334E0BB68B3F1FF3FDC
:10366C0028D0FEF76FFD02467B68D31ABA689A42DF
:10367C0002D3BB68002B1DD1FB681B685B6903F090
:10368C008003802B16D0FB6800221A63FB68202273
:10369C0083F83D20FB68002283F83E20FB681B6CFE
:1036AC0043F02002FB681A64FB68002283F83C207C
:1036BC00012307E0FB681B685B6903F08003802B28
:1036CC00C3D1002318461037BD4680BD80B584B0E9
:1036DC0000AFF860B9607A6034E0F86800F03EF84A
:1036EC000346002B01D0012334E0BB68B3F1FF3F4C
:1036FC0028D0FEF727FD02467B68D31ABA689A4297
:10370C0002D3BB68002B1DD1FB681B685B6903F0FF
:10371C000403042B16D0FB6800221A63FB682022DA
:10372C0083F83D20FB68002283F83E20FB681B6C6D
:10373C0043F02002FB681A64FB68002283F83C20EB
:10374C00012307E0FB681B685B6903F00403042B8F
:10375C00C3D1002318461037BD4680BD80B483B05A
:10376C0000AF78607B681B685B6903F48063B3F51A
:10377C00806F1BD17B681B686FF480625A617B6819
:10378C0000221A637B68202283F83D207B6800228C
:10379C0083F83E207B681B6C43F004027B681A6440
:1037AC007B68002283F83C20012300E000231846AC
:1037BC000C37BD4680BC704780B586B000AF7860D2
:1037CC007B68002B01D101236CE27B681B6803F042
:1037DC000103002B00F08780924B5B6803F00C0315
:1037EC00042B0CD08F4B5B6803F00C03082B12D10D
:1037FC008C4B5B6803F48033B3F5803F0BD1894B62
:10380C001B6803F40033002B6CD07B685B68002BC7
:10381C0068D1012346E27B685B68B3F5803F06D133
:10382C00804B1B687F4A43F4803313602EE07B6827
:10383C005B68002B0CD17B4B1B687A4A23F48033DA
:10384C001360784B1B68774A23F4802313601DE0C8
:10385C007B685B68B3F5A02F0CD1724B1B68714A67
:10386C0043F4802313606F4B1B686E4A43F4803320
:10387C0013600BE06B4B1B686A4A23F480331360B4
:10388C00684B1B68674A23F4802313607B685B6872
:10389C00002B13D0FEF756FC386108E0FEF752FC03
:1038AC0002463B69D31A642B01D90323FAE15D4B21
:1038BC001B6803F40033002BF0D014E0FEF742FC3D
:1038CC00386108E0FEF73EFC02463B69D31A642BD4
:1038DC0001D90323E6E1534B1B6803F40033002B9F
:1038EC00F0D100E000BF7B681B6803F00203002BE3
:1038FC0063D04C4B5B6803F00C03002B0BD0494B93
:10390C005B6803F00C03082B1CD1464B5B6803F47B
:10391C008033002B16D1434B1B6803F00203002BA2
:10392C0005D07B681B69012B01D00123BAE13D4B0B
:10393C001B6823F0F8027B685B69DB003949134391
:10394C000B603AE07B681B69002B20D0364B0122C0
:10395C001A60FEF7F7FB386108E0FEF7F3FB02464E
:10396C003B69D31A022B01D903239BE12D4B1B6816
:10397C0003F00203002BF0D02A4B1B6823F0F80253
:10398C007B685B69DB00274913430B6015E0264B12
:10399C0000221A60FEF7D6FB386108E0FEF7D2FB76
:1039AC0002463B69D31A022B01D903237AE11D4B42
:1039BC001B6803F00203002BF0D17B681B6803F03B
:1039CC000803002B3AD07B689B69002B19D0174B4E
:1039DC0001221A60FEF7B6FB386108E0FEF7B2FB75
:1039EC0002463B69D31A022B01D903235AE10D4B32
:1039FC005B6A03F00203002BF0D0012000F0B8FA50
:103A0C001CE00A4B00221A60FEF79CFB38610FE0A9
:103A1C00FEF798FB02463B69D31A022B08D9032305
:103A2C0040E100BF001002400000424280044242CC
:103A3C009E4B5B6A03F00203002BE9D17B681B6889
:103A4C0003F00403002B00F0A6800023FB75974BBA
:103A5C00DB6903F08053002B0DD1944BDB69934A47
:103A6C0043F08053D361914BDB6903F08053BB600F
:103A7C00BB680123FB758E4B1B6803F48073002B12
:103A8C0018D18B4B1B688A4A43F480731360FEF782
:103A9C0059FB386108E0FEF755FB02463B69D31A27
:103AAC00642B01D90323FDE0814B1B6803F4807365
:103ABC00002BF0D07B68DB68012B06D17B4B1B6A9B
:103ACC007A4A43F0010313622DE07B68DB68002B1C
:103ADC000CD1764B1B6A754A23F001031362734BAE
:103AEC001B6A724A23F0040313621CE07B68DB68D8
:103AFC00052B0CD16D4B1B6A6C4A43F0040313620B
:103B0C006A4B1B6A694A43F0010313620BE0674B73
:103B1C001B6A664A23F001031362644B1B6A634AF7
:103B2C0023F0040313627B68DB68002B15D0FEF7CF
:103B3C0009FB38610AE0FEF705FB02463B69D31A24
:103B4C0041F28832934201D90323ABE0574B1B6AF5
:103B5C0003F00203002BEED014E0FEF7F3FA386109
:103B6C000AE0FEF7EFFA02463B69D31A41F28832BB
:103B7C00934201D9032395E04C4B1B6A03F00203DB
:103B8C00002BEED1FB7D012B05D1484BDB69474A5D
:103B9C0023F08053D3617B68DB69002B00F08180BC
:103BAC00424B5B6803F00C03082B61D07B68DB692C
:103BBC00022B46D13F4B00221A60FEF7C3FA386144
:103BCC0008E0FEF7BFFA02463B69D31A022B01D973
:103BDC00032367E0354B1B6803F00073002BF0D117
:103BEC007B681B6AB3F5803F08D1304B5B6823F4CC
:103BFC0000327B689B682D4913434B602B4B5B68F1
:103C0C0023F474127B68196A7B685B6A0B4327493F
:103C1C0013434B60274B01221A60FEF793FA38616D
:103C2C0008E0FEF78FFA02463B69D31A022B01D942
:103C3C00032337E01D4B1B6803F00073002BF0D0FF
:103C4C002FE01C4B00221A60FEF77CFA386108E06A
:103C5C00FEF778FA02463B69D31A022B01D90323EB
:103C6C0020E0124B1B6803F00073002BF0D118E01E
:103C7C007B68DB69012B01D1012313E00B4B5B68E3
:103C8C00FB60FB6803F480327B681B6A9A4206D1A6
:103C9C00FB6803F470127B685B6A9A4201D00123C3
:103CAC0000E0002318461837BD4680BD00100240C6
:103CBC00007000406000424280B584B000AF786074
:103CCC0039607B68002B01D10123D0E06A4B1B6863
:103CDC0003F007033A689A4210D9674B1B6823F02C
:103CEC00070265493B6813430B60634B1B6803F089
:103CFC0007033A689A4201D00123B8E07B681B683D
:103D0C0003F00203002B20D07B681B6803F0040334
:103D1C00002B05D0594B5B68584A43F4E063536061
:103D2C007B681B6803F00803002B05D0534B5B68C2
:103D3C00524A43F460535360504B5B6823F0F002DB
:103D4C007B689B684D4913434B607B681B6803F091
:103D5C000103002B40D07B685B68012B07D1474BDC
:103D6C001B6803F40033002B15D101237FE07B6823
:103D7C005B68022B07D1414B1B6803F00073002BCF
:103D8C0009D1012373E03D4B1B6803F00203002BA8
:103D9C0001D101236BE0394B5B6823F003027B6894
:103DAC005B68364913434B60FEF7CCF9F8600AE0C8
:103DBC00FEF7C8F90246FB68D31A41F288329342E7
:103DCC0001D9032353E02D4B5B6803F00C027B6895
:103DDC005B689B009A42EBD1274B1B6803F00703EF
:103DEC003A689A4210D2244B1B6823F007022249EE
:103DFC003B6813430B60204B1B6803F007033A68C6
:103E0C009A4201D0012332E07B681B6803F0040363
:103E1C00002B08D0194B5B6823F4E0627B68DB68ED
:103E2C00164913434B607B681B6803F00803002B97
:103E3C0009D0124B5B6823F460527B681B69DB0072
:103E4C000E4913434B6000F021F802460B4B5B68A4
:103E5C001B0903F00F030A49CB5C22FA03F3094A4E
:103E6C001360094B1B681846FEF72AF90023184605
:103E7C001037BD4680BD00BF00200240001002403C
:103E8C00F4510008140000201800002080B487B002
:103E9C0000AF0023FB600023BB6000237B61002389
:103EAC007B6000233B611E4B5B68FB60FB6803F08F
:103EBC000C03042B02D0082B03D027E0194B3B61D9
:103ECC0027E0FB689B0C03F00F03174AD35C7B6065
:103EDC00FB6803F48033002B10D0114B5B685B0C38
:103EEC0003F00103114AD35CBB607B680D4A02FBF3
:103EFC0003F2BB68B2FBF3F37B6104E07B680C4A12
:103F0C0002FB03F37B617B693B6102E0054B3B6188
:103F1C0000BF3B6918461C37BD4680BC704700BFCC
:103F2C000010024000127A000C5200081C520008CB
:103F3C0000093D0080B400AF024B1B681846BD461B
:103F4C0080BC70471400002080B500AFFFF7F2FF73
:103F5C000246054B5B681B0A03F007030349CB5C65
:103F6C0022FA03F3184680BD0010024004520008E8
:103F7C0080B485B000AF78600A4B1B680A4AA2FB7C
:103F8C0003235B0A7A6802FB03F3FB6000BFFB6848
:103F9C005A1EFA60002BF9D100BF00BF1437BD4682
:103FAC0080BC704714000020D34D621080B582B0E5
:103FBC0000AF78607B68002B01D1012341E07B6866
:103FCC0093F83D30DBB2002B06D17B68002283F8DE
:103FDC003C207868FDF748FF7B68022283F83D207F
:103FEC007B681A687B6804331946104600F05CFA4B
:103FFC007B68012283F846207B68012283F83E20EF
:10400C007B68012283F83F207B68012283F84020E3
:10401C007B68012283F841207B68012283F84220CF
:10402C007B68012283F843207B68012283F84420BB
:10403C007B68012283F845207B68012283F83D20B0
:10404C00002318460837BD4680BD000080B485B0FB
:10405C0000AF78607B6893F83D30DBB2012B01D068
:10406C0001233AE07B68022283F83D207B681B68C1
:10407C00DA687B681B6842F00102DA607B681B68B7
:10408C00184A93420ED07B681B68B3F1804F09D05D
:10409C007B681B68144A934204D07B681B68134AE4
:1040AC00934211D17B681B689B6803F00703FB608C
:1040BC00FB68062B10D07B681B681A687B681B6832
:1040CC0042F001021A6007E07B681B681A687B6883
:1040DC001B6842F001021A60002318461437BD46D3
:1040EC0080BC7047002C01400004004000080040D8
:1040FC0080B584B000AF78607B681B68DB68FB60C0
:10410C007B681B681B69BB60BB6803F00203002B58
:10411C0020D0FB6803F00203002B1BD07B681B68CC
:10412C006FF002021A617B6801221A777B681B68A8
:10413C009B6903F00303002B03D0786800F098F917
:10414C0005E0786800F08BF9786800F09AF97B68E4
:10415C0000221A77BB6803F00403002B20D0FB6805
:10416C0003F00403002B1BD07B681B686FF0040268
:10417C001A617B6802221A777B681B689B6903F4BF
:10418C004073002B03D0786800F072F905E0786872
:10419C0000F065F9786800F074F97B6800221A77F2
:1041AC00BB6803F00803002B20D0FB6803F0080366
:1041BC00002B1BD07B681B686FF008021A617B68B0
:1041CC0004221A777B681B68DB6903F00303002B5E
:1041DC0003D0786800F04CF905E0786800F03FF9FE
:1041EC00786800F04EF97B6800221A77BB6803F000
:1041FC001003002B20D0FB6803F01003002B1BD006
:10420C007B681B686FF010021A617B6808221A77B2
:10421C007B681B68DB6903F44073002B03D0786860
:10422C0000F026F905E0786800F019F9786800F0DC
:10423C0028F97B6800221A77BB6803F00103002B76
:10424C000CD0FB6803F00103002B07D07B681B68C4
:10425C006FF001021A617868FCF762FDBB6803F02D
:10426C008003002B0CD0FB6803F08003002B07D0DD
:10427C007B681B686FF080021A61786800F07FFA27
:10428C00BB6803F04003002B0CD0FB6803F0400329
:10429C00002B07D07B681B686FF040021A617868AE
:1042AC0000F0F8F8BB6803F02003002B0CD0FB687F
:1042BC0003F02003002B07D07B681B686FF02002F3
:1042CC001A61786800F052FA00BF1037BD4680BD05
:1042DC0080B584B000AF786039600023FB737B68D5
:1042EC0093F83C30012B01D10223B4E07B6801220E
:1042FC0083F83C207B68022283F83D207B681B6896
:10430C009B68BB60BB6823F07703BB60BB6823F47E
:10431C007F43BB607B681B68BA689A603B681B680C
:10432C00B3F5005F3ED0B3F5005F00F28780B3F5C4
:10433C00805F00F08680B3F5805F7FD8702B1AD039
:10434C00702B7BD8602B50D0602B77D8502B3CD067
:10435C00502B73D8402B58D0402B6FD8302B64D0B7
:10436C00302B6BD8202B60D0202B67D8002B5CD047
:10437C00102B5AD062E07B6818683B6899683B68E0
:10438C005A683B68DB6800F074F97B681B689B68B3
:10439C00BB60BB6843F07703BB607B681B68BA6883
:1043AC009A604FE07B6818683B6899683B685A686C
:1043BC003B68DB6800F05DF97B681B689A687B687A
:1043CC001B6842F480429A603CE07B6818683B684A
:1043DC0059683B68DB681A4600F0D4F87B681B68A8
:1043EC005021184600F02BF92CE07B6818683B68CC
:1043FC0059683B68DB681A4600F0F2F87B681B686A
:10440C006021184600F01BF91CE07B6818683B68BB
:10441C0059683B68DB681A4600F0B4F87B681B6887
:10442C004021184600F00BF90CE07B681A683B68D9
:10443C001B681946104600F002F903E00123FB73D8
:10444C0000E000BF7B68012283F83D207B680022DE
:10445C0083F83C20FB7B18461037BD4680BD80B4EA
:10446C0083B000AF786000BF0C37BD4680BC70478E
:10447C0080B483B000AF786000BF0C37BD4680BC01
:10448C00704780B483B000AF786000BF0C37BD4676
:10449C0080BC704780B483B000AF786000BF0C372D
:1044AC00BD4680BC7047000080B485B000AF78601A
:1044BC0039607B681B68FB607B682F4A93420BD08A
:1044CC007B68B3F1804F07D07B682C4A934203D0B2
:1044DC007B682B4A934208D1FB6823F07003FB6086
:1044EC003B685B68FA681343FB607B68224A934223
:1044FC000BD07B68B3F1804F07D07B681F4A934287
:10450C0003D07B681E4A934208D1FB6823F44073A6
:10451C00FB603B68DB68FA681343FB60FB6823F0C5
:10452C0080023B685B691343FB607B68FA681A6026
:10453C003B689A687B68DA623B681A687B689A62A7
:10454C007B680D4A934203D13B681A697B681A63F6
:10455C007B6801225A617B681B6903F00103002B05
:10456C0005D07B681B6923F001027B681A6100BFD0
:10457C001437BD4680BC7047002C0140000400403D
:10458C000008004080B487B000AFF860B9607A6072
:10459C00FB681B6A7B61FB681B6A23F00102FB68EA
:1045AC001A62FB689B693B613B6923F0F0033B613A
:1045BC007B681B013A6913433B617B6923F00A0357
:1045CC007B617A69BB6813437B61FB683A699A61CA
:1045DC00FB687A691A6200BF1C37BD4680BC704705
:1045EC0080B487B000AFF860B9607A60FB681B6A72
:1045FC007B61FB681B6A23F01002FB681A62FB6884
:10460C009B693B613B6923F470433B617B681B03F3
:10461C003A6913433B617B6923F0A0037B61BB6860
:10462C001B017A6913437B61FB683A699A61FB68E9
:10463C007A691A6200BF1C37BD4680BC704780B4D3
:10464C0085B000AF786039607B689B68FB60FB6865
:10465C0023F07003FB603A68FB68134343F00703D5
:10466C00FB607B68FA689A6000BF1437BD4680BC5B
:10467C00704780B487B000AFF860B9607A603B6077
:10468C00FB689B687B617B6923F47F437B613B68A0
:10469C001A027B681A43BB6813437A6913437B6124
:1046AC00FB687A699A6000BF1C37BD4680BC7047B6
:1046BC0080B485B000AF786039607B6893F83C308B
:1046CC00012B01D1022346E07B68012283F83C20B8
:1046DC007B68022283F83D207B681B685B68FB606B
:1046EC007B681B689B68BB60FB6823F07003FB60F6
:1046FC003B681B68FA681343FB607B681B68FA68AD
:10470C005A607B681B68164A93420ED07B681B6804
:10471C00B3F1804F09D07B681B68124A934204D0D6
:10472C007B681B68104A93420CD1BB6823F0800352
:10473C00BB603B685B68BA681343BB607B681B68F3
:10474C00BA689A607B68012283F83D207B6800225E
:10475C0083F83C20002318461437BD4680BC7047B4
:10476C00002C0140000400400008004080B483B0DD
:10477C0000AF786000BF0C37BD4680BC704780B47A
:10478C0083B000AF786000BF0C37BD4680BC70476B
:10479C00014B1868704700BF2000002070B5002640
:1047AC000C4D0D4C641BA410A64209D100F064FC06
:1047BC0000260A4D0A4C641BA410A64205D170BDFC
:1047CC0055F8043B98470136EEE755F8043B9847FB
:1047DC000136F2E7545200085452000854520008B3
:1047EC00585200080A44914200F1FF3300D170473F
:1047FC0010B511F8014B914203F8014FF9D110BDDE
:10480C0003460244934200D1704703F8011BF9E7B9
:10481C000EB46FF0004100B59CB01DAB0290069039
:10482C00079104910848094953F8042B0591006835
:10483C0002A9019300F070F80022029B1A701CB0C0
:10484C005DF804EB03B07047200000200802FFFF66
:10485C00034611F8012B03F8012B002AF9D17047FC
:10486C002DE9F0478E6882469E420C4690461F46C4
:10487C0038D88A8912F4906F32D0256809690133CF
:10488C00A5EB010965694B4405EB450505EBD575B1
:10489C006D109D4238BF1D46530531D5294600F099
:1048AC0045FB064650B90C234FF0FF30CAF80030D8
:1048BC00A38943F04003A381BDE8F0874A462169F0
:1048CC00FFF790FFA38923F4906343F08003A38147
:1048DC0026614E4426603E466561A5EB0905A56040
:1048EC00BE4200D93E4632464146206800F0B8FA36
:1048FC00A36822689B1B32440020A3602260DBE784
:10490C002A4600F06DFB06460028E1D1504621698D
:10491C0000F0C0FAC7E700002DE9F04F98468B89EC
:10492C0007461B060D4614469DB00ED50B6963B9A0
:10493C00402100F0FBFA2860286120B90C233B6071
:10494C004FF0FF30D1E040236B610023099320230B
:10495C008DF8293030234FF00109CDF80C80DFF8A9
:10496C00A4818DF82A3023469A4613F8012B0AB1FC
:10497C00252AF9D1BAEB040B0BD05B46224629460B
:10498C003846FFF76DFF013000F0AA80099A5A44AF
:10499C0009929AF80030002B00F0A28000234FF00F
:1049AC00FF32CDE905230AF1010A049307938DF830
:1049BC0053301A935446052214F8011B514800F049
:1049CC0041FA049AD8B9D00644BF20238DF853304D
:1049DC00110744BF2B238DF853309AF800302A2B43
:1049EC0015D0544600204FF00A0C079A214611F8B6
:1049FC00013B303B092B4ED9B0B1079214E0A0EB30
:104A0C00080309FA03F31343A2460493D2E7039B6A
:104A1C00191D1B680391002BBBBF5B4242F00202C5
:104A2C0007930793B8BF049223782E2B0CD163788D
:104A3C002A2B35D1039B02341A1D1B680392002BC1
:104A4C00B8BF4FF0FF330593DFF8C8A003225046E0
:104A5C00217800F0F7F940B14023A0EB0A0003FAEB
:104A6C0000F0049B01340343049314F8011B062249
:104A7C0025488DF8281000F0E5F9002838D0234B94
:104A8C001BBB039B073323F0070308330393099BDA
:104A9C003344099367E70C4601200CFB0232A5E76F
:104AAC0000234FF00A0C194601340593204610F8E8
:104ABC00012B303A092A03D9002BC5D00591C3E745
:104ACC00044601230CFB0121F0E703AB00932A46BB
:104ADC0038460F4B04A9AFF30080421C0646D6D1D2
:104AEC00AB895B063FF52CAF09981DB0BDE8F08F84
:104AFC0003AB00932A463846054B04A900F07CF81A
:104B0C00EBE700BF1E52000828520008000000000E
:104B1C006D480008245200082DE9F04716469946C6
:104B2C008A680B6907469342B8BF1346336091F805
:104B3C0043200C46DDF820800AB101333360236832
:104B4C00990642BF336802333360256815F00605B9
:104B5C0006D104F1190AE36832689B1AAB4228DCCF
:104B6C0094F84320131E226818BF012392062DD4FB
:104B7C004946384604F14302C047013020D023682F
:104B8C00E56803F00603042B18BF002532684FF0CC
:104B9C000006A36808BFAD1A226908BF25EAE575AF
:104BAC009342C4BF9B1AED181A34B5421AD1002097
:104BBC0008E00123524649463846C047013003D12C
:104BCC004FF0FF30BDE8F0870135C4E73020E11825
:104BDC0081F843005A1C94F845102244023382F8A1
:104BEC004310C5E70123224649463846C0470130E9
:104BFC00E6D00136D9E700002DE9FF470C46277EA9
:104C0C009146782F80469A460C9904F1430207D8B6
:104C1C00622F0AD8002F00F0D980582F00F0A48002
:104C2C0004F1420684F842703AE0A7F16303152BB5
:104C3C00F6D801A050F823F09D4C0008B14C0008A8
:104C4C002D4C00082D4C00082D4C00082D4C000854
:104C5C00B14C00082D4C00082D4C00082D4C0008C0
:104C6C002D4C0008BF4D0008E14C0008A14D000878
:104C7C002D4C00082D4C0008E14D00082D4C00086F
:104C8C00E14C00082D4C00082D4C0008A94D0008E3
:104C9C000B6804F142061A1D1B680A6084F8423046
:104CAC000123A4E0256808682E0600F104030AD548
:104CBC0005680B60002D03DA2D236D4284F8433018
:104CCC000A235E4819E015F0400F05680B6018BF09
:104CDC002DB2EFE70B682568181D0860280601D572
:104CEC001D6802E06906FBD51D886F2F0CBF0823D9
:104CFC000A235248002184F843106668002EA8BF8E
:104D0C002168A660A4BF21F0040121600DB9002E1A
:104D1C004DD01646B5FBF3F103FB1157C75D06F8F2
:104D2C00017D2F46BB420D46F4D9082B0BD12368CD
:104D3C00DF0708D5236961689942DEBF302306F886
:104D4C00013C06F1FF36921B22614B462146404640
:104D5C00CDF800A003AAFFF7DFFE01304CD14FF0D5
:104D6C00FF3004B0BDE8F087344884F845700E6815
:104D7C00236856F8045B1F060E6014D5D90744BF90
:104D8C0043F0200323601DB9236823F02003236024
:104D9C001023AFE7236843F02003236078232848CF
:104DAC0084F84530E3E75E0648BFADB2E6E7164649
:104DBC00BBE70B6826681D1D60690D6035061B6816
:104DCC0001D5186002E07106FBD518800023164649
:104DDC002361BAE70B681A1D0A601E680021304671
:104DEC00626800F02FF808B1801B60606368236173
:104DFC00002384F84330A8E73246494640462369ED
:104E0C00D0470130ABD023689B0713D4E068039BD9
:104E1C009842B8BF1846A4E701233246494640469B
:104E2C00D04701309BD00135E36803995B1AAB4244
:104E3C00F2DCEBE7002504F11906F5E72F52000828
:104E4C0040520008034610B5C9B2024493421846BA
:104E5C0001D1002003E0047801338C42F6D110BD5F
:104E6C00884210B501EB020402D98442234607D8CC
:104E7C00431EA14208D011F8012B03F8012FF8E7CB
:104E8C00014602448A4200D110BD13F8014D02F8CC
:104E9C00014DF7E738B50546002943D051F8043CDD
:104EAC000C1F002BB8BFE41800F0D0F81E4A136892
:104EBC00104633B9636014602846BDE8384000F0F2
:104ECC00CBB8A3420AD921686218934201BF1A6871
:104EDC005B685218226063600460EDE71A465B68F9
:104EEC000BB1A342FAD911685018A0420BD120681B
:104EFC000144501883421160DED118685B6801448C
:104F0C0011605360D8E702D90C232B60D4E72068DA
:104F1C0021188B4201BF19685B6809182160636016
:104F2C005460C9E738BD00BF08010020F8B5CD1C9E
:104F3C0025F0030508350C2D38BF0C25002D064631
:104F4C0001DBA94203D90C2333600020F8BD00F02B
:104F5C007DF821490A6814469CB9204F3B6823B957
:104F6C002146304600F062F838602946304600F0A1
:104F7C005DF8431C23D10C233046336000F06CF8F1
:104F8C00E3E723685B1B17D40B2B03D923601C446A
:104F9C00256004E06368A2420CBF0B60536030468E
:104FAC0000F05AF804F10B00231D20F00700C21A80
:104FBC00CCD01B1AA350C9E722466468CCE7C41CAA
:104FCC0024F00304A042E3D0211A304600F02EF85E
:104FDC000130DDD1CFE700BF080100200C0100201B
:104FEC00F8B5074614460E4621B91146BDE8F840FF
:104FFC00FFF79CBF22B9FFF74DFF25462846F8BDA9
:10500C0000F030F8A0420FD221463846FFF78EFF51
:10501C0005460028F2D031462246FFF7E3FB314625
:10502C003846FFF737FFE9E73546E7E738B50023A1
:10503C00054D044608462B60FCF776FF431C02D155
:10504C002B6803B1236038BDBC050020014800F07B
:10505C0011B800BFC4050020014800F00CB800BF17
:10506C00C405002051F8043C181F002BBCBF0B5882
:10507C00C018704770477047F8B500BFF8BC08BC43
:10508C009E467047F8B500BFF8BC08BC9E467047FA
:10509C003132333400000000200000004C4F434BF1
:1050AC002057414B45205550000000004368656374
:1050BC006B696E672E2E2E005741524E494E47009B
:1050CC004C4F572042415454455259210000000086
:1050DC00454E5445522050415353574F52443A0079
:1050EC00496E70757420737472696E6700000000ED
:1050FC00666F726D6174206572726F7200000000D1
:10510C0057726F6E672070617373776F72640000F3
:10511C002564207472696573206C656674000000E8
:10512C004C6F636B6F7574207761726E696E67007C
:10513C00256C75206D696E757465730057616974A3
:10514C002E2E2E0055736520746865206B657900D2
:10515C00746F20756E6C6F636B2100005375636305
:10516C0065737366756C000061757468656E74693F
:10517C00636174696F6E00004E65772070617373A4
:10518C00776F72643A000000444F4F52204F5045E5
:10519C004E000000436C6F736520646F6F722100CA
:1051AC002121210057616974696E6720666F720056
:1051BC004C6F636B696E672E2E2E00005468652051
:1051CC00646F6F7200000000616C77617973206FFF
:1051DC0070656E2100000000010000000500000059
:1051EC00190000007D00000000000000000000001D
:1051FC000102030406070809000000000102030471
:10520C0002030405060708090A0B0C0D0E0F1010FB
:10521C000102232D302B2000686C4C00656667451D
:10522C004647003031323334353637383941424312
:10523C0044454600303132333435363738396162C3
:08524C006364656600000000C8
:04525400310100081C
:045258000D0100083C
:10525C0031323341343536423738394346304544A0
:10526C000A00000000127A0010000000010000008B
:10527C0024000020000000000000000000000000DE
:10528C000000000000000000000000000000000012
:10529C000000000000000000000000000000000002
:1052AC0000000000000000000000000000000000F2
:1052BC0000000000000000000000000000000000E2
:1052CC0000000000000000000000000000000000D2
:0452DC0000000000CE
:04000005080020557A
:00000001FF
