:020000040800F2
:10000000005000205D1E0008451D00084B1D000823
:10001000511D0008571D00085D1D0008000000006C
:10002000000000000000000000000000631D000848
:100030006F1D0008000000007B1D0008871D0008E0
:10004000A51E0008A51E0008A51E0008A51E000884
:10005000A51E0008A51E0008A51E0008A51E000874
:10006000A51E0008A51E0008A51E0008A51E000864
:10007000A51E0008A51E0008A51E0008A51E000854
:10008000A51E0008A51E0008951D0008A51E000855
:10009000A51E0008A51E0008A51E0008A51E000834
:1000A000A51E0008A51E0008A51E0008A51E000824
:1000B000A91D0008A51E0008A51E0008BD1D0008FA
:1000C000D11D0008A51E0008A51E0008A51E0008D9
:1000D000A51E0008A51E0008A51E0008A51E0008F4
:1000E000A51E0008A51E0008A51E000800000000AF
:1000F0000000000000000000000000000000000000
:0C01000000000000000000005FF808F1A3
:10010C0010B5054C237833B9044B13B10448AFF345
:10011C0000800123237010BDB400002000000000FB
:10012C006869000808B5034B1BB103490348AFF3DA
:10013C00008008BD00000000B800002068690008BD
:10014C0080B483B000AF374B00221A70364B0022BC
:10015C001A70364B00221A70354B00221A70344B31
:10016C0000225A70324B00229A70314B0022DA7006
:10017C002F4B00229A802E4B00229A712D4B00227D
:10018C001A702C4B00225A702B4B00221A702A4BDF
:10019C0000225A70284B00229A70274B0022DA70EA
:1001AC0000237B600EE0244A7B6813440433202236
:1001BC001A70214A7B681344153320221A707B680D
:1001CC0001337B607B680F2BEDDD1B4B00221A7516
:1001DC00194B002283F82520184B00221A60174B6C
:1001EC0000221A71154B00229A60144B0022DA601F
:1001FC00124B00221A61124B00221A70114B312241
:10020C001A70104B32225A700E4B33229A700D4BCF
:10021C004122DA700B4B00221A7100BF0C37BD461D
:10022C0080BC7047D0000020D1000020D2000020FC
:10023C00D4000020DC00002000000020E0000020A2
:10024C00F40000202800002080B586B002AF786052
:10025C000B46FB70FB7823F00F03FB73FB781B0141
:10026C00BB73FB7B43F00C03DBB23B72FB7B43F0B9
:10027C000803DBB27B72BB7B43F00C03DBB2BB72BB
:10028C00BB7B43F00803DBB2FB727B6818687B68AE
:10029C001B7999B207F1080264230093042302F03E
:1002AC000FFE00BF1037BD4680BD80B586B002AFD3
:1002BC0078600B46FB70FB7823F00F03FB73FB7825
:1002CC001B01BB73FB7B43F00D03DBB23B72FB7B6F
:1002DC0043F00903DBB27B72BB7B43F00D03DBB253
:1002EC00BB72BB7B43F00903DBB2FB727B68186803
:1002FC007B681B7999B207F10802642300930423ED
:10030C0002F0DEFD00BF1037BD4680BD80B586B063
:10031C0000AFF860B9607A607B68032B24D801A227
:10032C0052F823F0410300084B0300085503000862
:10033C005F030008BB68DBB2803BFB750EE0BB685B
:10034C00DBB2403BFB7509E0BB68DBB26C3BFB7579
:10035C0004E0BB68DBB22C3BFB7500BFFB7D194690
:10036C00F868FFF771FF00E000BF1837BD4680BD8D
:10037C0080B582B000AF7860322001F0F1FD302101
:10038C007868FFF761FF052001F0EAFD30217868FD
:10039C00FFF75AFF012001F0E3FD30217868FFF7E9
:1003AC0053FF0A2001F0DCFD20217868FFF74CFF99
:1003BC000A2001F0D5FD28217868FFF745FF0120C0
:1003CC0001F0CEFD08217868FFF73EFF012001F017
:1003DC00C7FD01217868FFF737FF022001F0C0FD4F
:1003EC0006217868FFF730FF012001F0B9FD0C21E0
:1003FC007868FFF729FF00BF0837BD4680BD80B580
:10040C0082B000AF7860396007E03B685A1C3A60F4
:10041C001B7819467868FFF748FF3B681B78002B60
:10042C00F3D100BF00BF0837BD4680BD80B500AF1B
:10043C00214B00221A70204B00225A701E4B0022B6
:10044C009A701D4B0022DA701B4B00229A801A4BBB
:10045C0000229A71194B00221A70184B00225A7004
:10046C004FF40051164802F0A3FB0346002B0CBFBF
:10047C0001230023DBB21A46124B1A704FF4804151
:10048C000F4802F095FB0346002B0CBF0123002301
:10049C00DBB21A460C4B1A704FF40041084802F0BC
:1004AC0087FB0346002B0CBF01230023DBB21A464B
:1004BC00064B1A7000BF80BDD4000020DC00002069
:1004CC00001001403D0000203E0000203F000020B5
:1004DC0080B582B000AF0023FB7100F0F1F9034648
:1004EC00FB71FB79002B09D01E4AFB7913701E4A55
:1004FC00FB7913701C4B00225A7002E0194B00223E
:10050C001A704FF40051194802F052FB0346002BAD
:10051C000CBF01230023DBB2BB714FF480411348A5
:10052C0002F046FB0346002B0CBF01230023DBB279
:10053C007B714FF400410D4802F03AFB0346002B4F
:10054C000CBF01230023DBB23B71064ABB7953700D
:10055C00044A7B799370034A3B79D37000BF083708
:10056C00BD4680BDD4000020DC00002000100140FE
:10057C0080B483B000AF03460A46FB711346BB71CF
:10058C00FB791A4652001344DAB2BB791344DBB23E
:10059C0018460C37BD4680BC7047000080B485B04F
:1005AC0000AFF860B9603B601346FB80FB68BA682B
:1005BC009A61FB68FA889A84FB683A68DA61FB688E
:1005CC003A8BDA84FB68FA691A62FB683A8C1A85F2
:1005DC00FB687A6A1A60FB683A8D1A82FB68FA6AC1
:1005EC005A60FB683A8E5A82FB687A6B9A60FB6899
:1005FC003A8F9A82FB68FA6BDA60FB68B7F8402096
:10060C00DA820A4BFF221A70094B00221A70094B2E
:10061C0000221A80084B00221A70084B00221A7014
:10062C0000BF1437BD4680BC704700BF400000209F
:10063C00280100202A0100202C010020D0000020DD
:10064C0090B587B000AF7860FF23FB750023BB75B6
:10065C007CE000237B7517E07A7D7B68063253F8CB
:10066C0022007B7D7A6810335B00134499887A7D75
:10067C00BB7D9A4214BF01230023DBB21A4602F061
:10068C00AEFA7B7D01337B757B7D022BE4D9002395
:10069C00FB6002E0FB680133FB60FB683B2BF9D984
:1006AC0000233B754CE0BA7D3B7D11461846FFF7A5
:1006BC005FFF0346BB74BA7CBB7C7449895C744A8B
:1006CC00D154BA7CBB7C7349895C704AD1543A7D55
:1006DC007B6853F822003A7D7B68083233F812307D
:1006EC00BC7C194602F064FA03461A46694B1A554B
:1006FC00BB7C674AD25CBB7C6449CB5C9A421CD104
:10070C00BB7C624AD25CBB7C6249CB5C9A4214D102
:10071C00BB7C614AD25CBB7C5E49CB5C9A420CD000
:10072C00BA7CBB7C5B49895C5B4AD154BB7C594A23
:10073C00D35C002B01D1BB7CFB753B7D01333B753E
:10074C003B7D032BAFD9BB7D0133BB75BB7D022B2E
:10075C007FF67FAF0023FB7411E0FA7C7B680632D6
:10076C0053F82200FB7C7A6810335B0013449B889F
:10077C000122194602F033FAFB7C0133FB74FB7C3B
:10078C00022BEAD9454B1B88002B30D0434B1B88DE
:10079C00013B9AB2414B1A80404B1B88002B26D14F
:1007AC003F4B93F90030002B21DB3E4B1B78012B88
:1007BC0006D13B4B93F900301A463B4B9B5C05E052
:1007CC00374B93F900301A46384B9B5C384A137000
:1007DC00384B01221A70324BFF221A70314B002217
:1007EC001A70354B00221A70344B00221A70FB7DA4
:1007FC00FF2B46D0FB7D2A4A92F90020934212D15E
:10080C00284B02221A70254B23221A80244B93F971
:10081C0000301A46254B9A5C274B1A70264B1A78D7
:10082C00264B1A702DE01E4B93F90030002B15DB74
:10083C001C4B1B78012B06D1194B93F900301A462F
:10084C00194B9B5C05E0164B93F900301A46174B7D
:10085C009B5C174A1370174B01221A7097F91720DB
:10086C000F4B1A700F4B01221A70FB7D0E4AD25C93
:10087C00114B1A70104B1A78104B1A70074B23221D
:10088C001A8000BF1C37BD4690BD00BF040100207C
:10089C00F8000020100100201C0100202A0100207B
:1008AC004000002028010020D46A0008E06A0008FB
:1008BC00D1000020D00000202C010020D20000200C
:1008CC0080B400AF074B1B78002B05D0054B0022E2
:1008DC001A70054B1B7800E000231846BD4680BCFF
:1008EC00704700BFD0000020D100002080B485B03C
:1008FC0000AF786039600023FB813B6800221A80CE
:10090C000123BB812CE0BB897A6813441A78FB89DC
:10091C0079680B441B789A420CD1FB890133FB811B
:10092C00BB895B003A681344FA891A80BB8901338E
:10093C00BB8115E0FB89002B09D0FB8903F1004337
:10094C00013B5B003A6813441B88FB8108E0BB89C0
:10095C005B003A68134400221A80BB890133BB81C7
:10096C00BB89032BCFD900BF00BF1437BD4680BC59
:10097C00704780B588B000AFF8600B467A607B8119
:10098C007B89032B01D8002342E007F1140319469D
:10099C007868FFF7ABFF0023FB830023BB8332E0B7
:1009AC00BB8B7A6813441A78FB8BF9680B441B7861
:1009BC009A4205D1FB8B0133FB83BB8B0133BB8389
:1009CC00BB8B042B01D1012322E0FA8B7B899A4249
:1009DC0019D2BB8B7A6813441A78FB8BF9680B44D9
:1009EC001B789A420FD0BB8B002B09D0BB8B013BE1
:1009FC005B0007F12002134433F80C3CBB8302E08C
:100A0C00FB8B0133FB83FA8B7B899A42C8D300237F
:100A1C0018462037BD4680BD80B500AF0248FFF7B1
:100A2C000FFE00BF80BD00BFE401002080B58CB07C
:100A3C000CAF01F033FA00F05FF800F065F900F04C
:100A4C00ABF800F015F900F0E5F800F0CBFAFFF781
:100A5C00EDFC00F0D9F900F0B3FC10230A931E4B07
:100A6C000993082308931C4B0793042306931A4BF2
:100A7C00059302230493184B039380230293164B84
:100A8C00019340230093144B202213491348FFF782
:100A9C0085FD134B134A1A60114B4E221A711048E4
:100AAC00FFF766FC0A2200210F4800F0B9FA0A226F
:100ABC0001210E4800F0B4FA0A2202210C4800F081
:100ACC00AFFA142203210B4800F0AAFAFFF738FB07
:100ADC0000F04CFBFCE700BF00080140E4010020E3
:100AEC00B401002038020020250A0008DD040008AB
:100AFC00A9140008D90F000880B594B000AF07F115
:100B0C00280328220021184605F0AEFA07F1140339
:100B1C0000221A605A609A60DA601A613B1D00224A
:100B2C001A605A609A60DA600223BB620123BB63CD
:100B3C001023FB6300237B6407F12803184604F0A1
:100B4C0011FA0346002B01D000F058F90F237B61FA
:100B5C000023BB610023FB6100233B6200237B620B
:100B6C0007F114030021184604F07CFC0346002B0B
:100B7C0001D000F043F902237B600023FB603B1D96
:100B8C00184604F0E9FD0346002B01D000F036F9BD
:100B9C0000BF5037BD4680BD80B584B000AF3B1D53
:100BAC0000221A605A609A60184B194A1A60174B47
:100BBC0000229A60154B00221A73144B00221A75EE
:100BCC00124B4FF46022DA61104B00225A600F4B2B
:100BDC0001221A610D4801F0E7F90346002B01D000
:100BEC0000F00CF900237B600123BB600023FB6049
:100BFC003B1D1946054801F081FB0346002B01D033
:100C0C0000F0FCF800BF1037BD4680BD8C02002000
:100C1C000024014080B500AF124B134A1A60114BEF
:100C2C00124A5A600F4B00229A600E4B0022DA6077
:100C3C000C4B4FF480421A610A4B00225A61094B4B
:100C4C0000229A61074B0022DA61064B00221A62DD
:100C5C00044801F0DDFF0346002B01D000F0CEF874
:100C6C0000BF80BD3802002000540040A086010067
:100C7C0080B586B000AF07F1080300221A605A60F5
:100C8C009A60DA603B4600221A605A601D4B4FF0A6
:100C9C0080421A601B4B09225A601A4B00229A6040
:100CAC00184B41F63F72DA60164B00221A61154B55
:100CBC0000229A61134804F005FE0346002B01D074
:100CCC0000F09CF84FF48053BB6007F10803194601
:100CDC000C4804F036FF0346002B01D000F08EF8D0
:100CEC0000233B6000237B603B461946054805F01A
:100CFC0021F90346002B01D000F080F800BF183713
:100D0C00BD4680BDBC02002080B588B000AF07F1A5
:100D1C00100300221A605A609A60DA60334B9B69A8
:100D2C00324A43F010039361304B9B6903F010037C
:100D3C00FB60FB682D4B9B692C4A43F004039361C9
:100D4C002A4B9B6903F00403BB60BB68274B9B6970
:100D5C00264A43F008039361244B9B6903F0080374
:100D6C007B607B6800221E21214801F038FF0022A5
:100D7C001B21204801F033FF4FF460433B610023FB
:100D8C007B610123BB6107F1100319461A4801F07E
:100D9C008BFD1E233B6101237B610123BB6102237D
:100DAC00FB6107F110031946114801F07DFDE023AA
:100DBC003B6100237B610123BB6107F110031946E2
:100DCC000B4801F071FD1B233B6101237B61002368
:100DDC00BB610223FB6107F110031946054801F0C2
:100DEC0063FD00BF2037BD4680BD00BF0010024030
:100DFC0000080140000C01400010014080B400AF1D
:100E0C0072B600BFFEE7000080B500AF11220021D2
:100E1C00174805F029F911220021164805F024F98C
:100E2C00154B00221A70144B00225A70124B0022E0
:100E3C00DA70114B00229A70112200210F4805F034
:100E4C0013F9112200210E4805F00EF90D4B0E4A34
:100E5C001A600C4B1B680D4A1A600A4B1B684E2219
:100E6C001A71084B1B681846FFF782FA00BF80BD49
:100E7C003C01002050010020000000200400002054
:100E8C00150000203801002030010020380200201D
:100E9C0080B500AF0C4B1B78012B0CBF012300233A
:100EAC00DBB21A460821094801F099FE064B5B7823
:100EBC00012B0CBF01230023DBB21A46102103487F
:100ECC0001F08DFE00BF80BD00000020000C014031
:100EDC0080B500AF084B9B78012B05D10122022174
:100EEC00064801F07CFE04E000220221034801F0D8
:100EFC0076FE00BF80BD00BF00000020000C01404A
:100F0C0080B500AF084BDB78012B05D10122012104
:100F1C00064801F064FE04E000220121034801F0C0
:100F2C005EFE00BF80BD00BF00000020000C014031
:100F3C0080B500AF204B1B68002B3AD010221F4904
:100F4C001F4805F0CDF80346002B14D01A4B1B6834
:100F5C00002200211846FFF7D9F9174B1B681749D7
:100F6C001846FFF74CFA10221449154805F0CAF838
:100F7C00134B00221A7410221249134805F0B0F8D2
:100F8C000346002B16D00C4B1B680122002118467F
:100F9C00FFF7BCF9084B1B680A491846FFF72FFAF4
:100FAC0010220849084805F0ADF8074B00221A74C6
:100FBC0000E000BF80BD00BF38010020040000200D
:100FCC003C010020150000205001002080B500AF2E
:100FDC00FFF75EFFFFF77CFFFFF792FFFFF7A8FF1D
:100FEC0000BF80BD80B582B000AF0023FB7106E06E
:100FFC00FB79184600F0ECF8FB790133FB71FB79B7
:10100C00272BF5D9044B00221A70044B00221A70BE
:10101C0000BF0837BD4680BD610100206201002081
:10102C00B0B487B000AFF860B9607A604C4B1B78F5
:10103C00272B04D94B4B01221A7028238BE0002359
:10104C00FB750EE0FA7D484913469B0013449B0048
:10105C000B4404331B68BA68D31ABB60FB7D0133A5
:10106C00FB753F4B1B78FA7D9A420BD2FA7D3E49B9
:10107C0013469B0013449B000B4404331B68BA6853
:10108C009A42DFD2364B1B78BB7517E0BB7D5A1EDC
:10109C00B97D35480B469B000B449B0018443249E4
:1010AC0013469B0013449B000B4404461D460FCD76
:1010BC000FC42B682360BB7D013BBB75BA7DFB7DE8
:1010CC009A42E3D8FA7D284913469B0013449B00AF
:1010DC000B44FA681A60FA7D234913469B001344AB
:1010EC009B000B440433BA681A60FA7D1E49134600
:1010FC009B0013449B000B4408337A681A60FA7DFA
:10110C00194913469B0013449B000B440C330022DB
:10111C001A70134B1B78FA7D9A4215D2FB7D5A1C20
:10112C00114913469B0013449B000B44043319686C
:10113C00FB7D5A1CBB68C91A0B4813469B00134411
:10114C009B00034404331960054B1B780133DAB25E
:10115C00034B1A70FB7D18461C37BD46B0BC70475C
:10116C00610100206201002004030020B0B586B0AC
:10117C0000AF154B1B78002B22D0144B1B7B002B84
:10118C001FD0124B1B687B61104B1B7B013BDAB2EF
:10119C000E4B1A737B6998470C4B3C461D460FCD82
:1011AC000FC42B682360002000F012F8BB68002BE2
:1011BC0007D03B68B968BA681846FFF731FF00E002
:1011CC0000BF1837BD46B0BD6101002004030020EC
:1011DC00B0B485B000AF0346FB71314B1B78FA7984
:1011EC009A4201D3012356E0FB79FB7317E0FB7B9A
:1011FC005A1CF97B2B480B469B000B449B00184454
:10120C00284913469B0013449B000B4404461D467F
:10121C000FCD0FC42B682360FB7B0133FB73FA7B70
:10122C001F4B1B78013B9A42E1DB1D4B1B785A1E6E
:10123C001C4913469B0013449B000B4400221A606C
:10124C00174B1B785A1E174913469B0013449B00DF
:10125C000B44043300221A60114B1B785A1E11499F
:10126C0013469B0013449B000B44083300221A6066
:10127C000B4B1B785A1E0B4913469B0013449B00C7
:10128C000B440C3300221A70054B1B78013BDAB26D
:10129C00034B1A70002318461437BD46B0BC704778
:1012AC00610100200403002080B582B000AF78609B
:1012BC0039607B68002B07D0102279680A4804F04B
:1012CC0021FF0A4B00221A753B68002B08D0102214
:1012DC003968074804F016FF044B002283F82520D8
:1012EC0000BF0837BD4680BD040000200000002070
:1012FC001500002080B584B000AF0346FB71FB796C
:10130C00002B20D00422FB79934202D8FB79013BBD
:10131C0001E00423013B0E4A52F82330FB60FB68CA
:10132C004EF6602202FB03F3BB600A4AFB79137191
:10133C0000F00CFE0246BB681344064A9360064B51
:10134C000122DA7000E000BF1037BD4680BD00BF3F
:10135C00EC6A0008E00000200000002080B400AF20
:10136C00044B00221A80044B00221A7000BFBD46A9
:10137C0080BC7047A60100206401002080B483B0BB
:10138C0000AF0346FB710C4B1B883F2B0FD80A4B4D
:10139C001B885A1C91B2084A11801946074AFB79DE
:1013AC005354054B1B881A46044B0021995400BF1B
:1013BC000C37BD4680BC7047A6010020640100209C
:1013CC0080B500AF154B01221A70154B00221A6024
:1013DC00134B00221A71124B00229A60104B002200
:1013EC00DA600F4B00221A610E4B00229A700D4BE3
:1013FC0001225A700B4B00221A700A4B0022DA7031
:10140C0009490A48FFF750FFFFF7A8FF15220021F2
:10141C00074804F029FE00BF80BD00BFF400002087
:10142C00E0000020000000208069000884690008AA
:10143C002800002080B400AF074B9B88B3F57A7F5F
:10144C0003D2054B01229A7102E0034B00229A71E0
:10145C0000BFBD4680BC7047D400002080B582B070
:10146C0000AF0B4B1B887B607B68032B02D97B681E
:10147C00142B01D9002307E07B689BB2054A19465F
:10148C000548FFF776FA034618460837BD4680BD77
:10149C00A6010020280000206401002080B594B033
:1014AC0000AF00F053FD3864A64B9B68002B13D0A3
:1014BC00A44B9B68B3F1FF3F0ED0A24B9A683B6CD8
:1014CC00D31A002B08DC9F4B00221A719D4B002273
:1014DC009A609D4B0022DA709C4B1B78013B192BB8
:1014EC0000F21C8301A252F823F000BF6115000822
:1014FC0095150008CF150008F9150008E716000827
:10150C00291B0008291B0008291B0008291B00089F
:10151C003F180008A5180008291B0008291B000803
:10152C00291B0008291B0008291B0008291B00087F
:10153C00291B0008291B0008D9180008E519000808
:10154C00FF1A0008911A0008D71A00080919000898
:10155C00071B00087C4B00229A707B4B01225A70AF
:10156C00794B00221A707A4B1B78002B08D1794BDF
:10157C00DB78002B04D1774B9B78002B00F0D282C8
:10158C00724B02221A70CDE273497448FFF78CFE3D
:10159C00FFF750FF6F4B9B79002B08D06B4B03224E
:1015AC001A703B6C03F6B833664AD360CBE2674BD8
:1015BC0004221A70FFF7D2FE67496848FFF774FEE1
:1015CC00C1E267496748FFF76FFE5E4BDA683B6C18
:1015DC00D31A002B00F3A8825C4B04221A70FFF77D
:1015EC00BDFE5D495D48FFF75FFE9DE2584B1B78E1
:1015FC00002B55D0564B1B7887F83E30544B0022AD
:10160C001A7097F83E302A2B10D1574B1B88002BA1
:10161C001DD0554B1B88013B9AB2534B1A80524B31
:10162C001B881A46514B0021995410E097F83E3014
:10163C00232B03D1454B05221A7008E04A4B1B881B
:10164C003F2B04D897F83E301846FFF797FE07F16A
:10165C002C0310222021184604F006FD002387F8E5
:10166C003C300023FB640CE0404AFB6C13441978BB
:10167C0007F12C02FB6C13440A461A70FB6C013305
:10168C00FB64394B1B881A46FB6C934202DAFB6CE9
:10169C000F2BE9DD07F12C032F491846FFF704FE49
:1016AC00284BDB68002B06D13B6C03F5EA43303347
:1016BC00244AD3603AE2234BDA683B6CD31A002BF2
:1016CC0000F334821F4B0022DA60204B01221A7087
:1016DC0021492148FFF7E8FD28E2234B1B88032B07
:1016EC0003D9214B1B88142B0CD921492148FFF716
:1016FC00DBFD3B6C03F5FA63124AD360134B0422F7
:10170C001A7093E0FFF7AAFE0346002B38D00F4B5C
:10171C0014221A700C4B01229A700B4B01221A7076
:10172C00094B00225A7014491448FFF7BDFD3B6C5D
:10173C0003F51C531033034AD360024B00221A608A
:10174C0074E000BFE000002000000020F400002046
:10175C00DC000020D4000020806900089469000897
:10176C00A4690008B4690008A601002064010020E7
:10177C00C4690008D0690008E0690008E86900083D
:10178C00A84B1B680133A74A1360A64B1968A64BDC
:10179C00A3FB01235A0813465B001344CA1A002A00
:1017AC002ED1A04B1B680E2B0AD9A04B0B221A7002
:1017BC009F4B0122DA709B4B4FF0FF329A6035E061
:1017CC00984B1B68984AA2FB03235B0887F84B30A5
:1017DC0097F84B30002B02D1012387F84B300422B1
:1017EC0097F84B30934202D9042387F84B3097F883
:1017FC004B301846FFF77EFD8C4B0A221A7015E011
:10180C00884B1B6807F118008A4A112104F034FC3C
:10181C0007F1180319468848FFF746FD3B6C03F5A2
:10182C00FA63804AD360814B04221A70FFF796FD4D
:10183C0089E182498248FFF737FD7A4B9B68002B80
:10184C001AD0784B9B68B3F1FF3F15D0754B9A6853
:10185C003B6CD31A002B0FDC724B00221A71714BAC
:10186C0000229A60724B0022DA70704B04221A70BC
:10187C0074497548FFF718FD744B9B78002B00F0EA
:10188C0057816A4B14221A70694B01229A70704965
:10189C007048FFF709FD4BE16F497048FFF704FDF5
:1018AC00634B0122DA70694B9B78002B00F042816C
:1018BC005E4B14221A705E4B01229A705C4B002214
:1018CC00DA7063496348FFF7EFFC33E1554BDA6894
:1018DC003B6CD31A002B02DC544B1A221A705B4B54
:1018EC005B78002B40F02881504B15221A703B6C12
:1018FC0003F5EA4330334B4AD3601DE1584B1B7858
:10190C00002B45D0564B1B7887F83F30544B0022A8
:10191C001A7097F83F30232B1CD1524B1B88042B89
:10192C0011D1514B1B68514A1360504B00221A7154
:10193C004F495048FFF7B8FC3C4B1A221A703C4BED
:10194C0000229A7003E04C494C48FFF7ADFCFFF7BE
:10195C0005FD1DE097F83F302A2B10D1414B1B8819
:10196C00002B15D03F4B1B88013B9AB23D4B1A8084
:10197C003C4B1B881A463C4B0021995408E0394BD0
:10198C001B88132B04D897F83F301846FFF7F6FC4A
:10199C003B1D10222021184604F066FB00237B64BB
:1019AC000BE0314A7B6C134419783A1D7B6C134461
:1019BC000A461A707B6C01337B642A4B1B881A46CF
:1019CC007B6C934202DA7B6C0F2BEADD3B1D1946D4
:1019DC002B48FFF769FCB6E0154B01229A70144BAB
:1019EC0001221A70194B5B78012B09D10F4B18226D
:1019FC001A703B6C03F51C5310330A4AD3609DE0FC
:101A0C00084BDA683B6CD31A002B00F39780074B1A
:101A1C0017221A703B6C03F5922303F57873014A75
:101A2C0013618BE0E0000020ABAAAAAAF40000200E
:101A3C0000000020F8690008E8690008086A00083E
:101A4C00186A00088069000894690008D400002016
:101A5C00286A0008306A00083C6A0008506A0008CE
:101A6C00DC000020A60100206401002028000020DA
:101A7C00646A00086C6A00087C6A00088C6A0008BA
:101A8C009C6A0008324B0122DA7032493248FFF767
:101A9C000BFC324B1B69002B0CD0304B1A693B6C86
:101AAC00D31A002B06DC3B6C03F5922303F57873F9
:101ABC002A4A13612A4B5B78012B41D1294B1822FE
:101ACC001A70234B0022DA703AE0214B01229A70F3
:101ADC00224BDA683B6CD31A002B02DC214B1A2206
:101AEC001A701F4B5B78002B2CD11E4B15221A70D1
:101AFC0028E0174B01229A7025E0154B00229A70B2
:101B0C00134B01225A70124B00221A7011491148C2
:101B1C00FFF7CAFB134B01221A7014E0114B012280
:101B2C001A7010E000BF0EE000BF0CE000BF0AE02E
:101B3C0000BF08E000BF06E000BF04E000BF02E009
:101B4C0000BF00E000BF00BF5037BD4680BD00BFE6
:101B5C000000002080690008B06A0008E000002046
:101B6C00D4000020F400002080B485B000AF154BE9
:101B7C009B69144A43F001039361124B9B6903F078
:101B8C000103BB60BB680F4BDB690E4A43F080530B
:101B9C00D3610C4BDB6903F080537B607B680A4B91
:101BAC005B68FB60FB6823F0E063FB60FB6843F061
:101BBC008063FB60044AFB68536000BF1437BD466A
:101BCC0080BC7047001002400000014080B588B016
:101BDC0000AF786007F1100300221A605A609A6017
:101BEC00DA607B681B68184A934229D1174B9B69B2
:101BFC00164A43F400739361144B9B6903F400730E
:101C0C00FB60FB68114B9B69104A43F00403936122
:101C1C000E4B9B6903F00403BB60BB6801233B6163
:101C2C0003237B6107F110031946094800F03CFEC1
:101C3C0000220021122000F07AFD122000F093FD0A
:101C4C0000BF2037BD4680BD00240140001002407B
:101C5C000008014080B588B000AF786007F1100330
:101C6C0000221A605A609A60DA607B681B681D4A11
:101C7C00934233D11C4B9B691B4A43F0080393617D
:101C8C00194B9B6903F00803FB60FB68C0233B61A5
:101C9C0012237B610323FB6107F1100319461348E0
:101CAC0000F002FE104BDB690F4A43F40013D361C2
:101CBC000D4BDB6903F40013BB60BB6800220021F1
:101CCC001F2000F034FD1F2000F04DFD00220021EC
:101CDC00202000F02CFD202000F045FD00BF203717
:101CEC00BD4680BD0054004000100240000C014075
:101CFC0080B584B000AF78607B681B68B3F1804F0F
:101D0C0013D10C4BDB690B4A43F00103D361094B34
:101D1C00DB6903F00103FB60FB68002200211C203F
:101D2C0000F005FD1C2000F01EFD00BF1037BD4665
:101D3C0080BD00BF0010024080B400AFFEE780B44D
:101D4C0000AFFEE780B400AFFEE780B400AFFEE763
:101D5C0080B400AFFEE780B400AF00BFBD4680BCCE
:101D6C00704780B400AF00BFBD4680BC704780B4E4
:101D7C0000AF00BFBD4680BC704780B500AF00F01F
:101D8C00D3F800BF80BD000080B500AF024800F062
:101D9C00E3F900BF80BD00BF8C02002080B500AF0E
:101DAC00024803F0DEFD00BF80BD00BFBC02002076
:101DBC0080B500AF024801F081F900BF80BD00BFC3
:101DCC003802002080B500AF024801F0E8FA00BFED
:101DDC0080BD00BF3802002080B586B000AF7860AF
:101DEC00144A154BD31A7B617B693B61134B1B68FF
:101DFC00002B02D1114B124A1A60104B1A687B68E7
:101E0C0013443A699A4207D204F004F903460C22AF
:101E1C001A604FF0FF3309E0084B1B68FB60074B5F
:101E2C001A687B681344054A1360FB681846183718
:101E3C00BD4680BD0050002000040000A801002019
:101E4C003806002080B400AF00BFBD4680BC704790
:101E5C00FFF7F8FF0B480C490C4A002302E0D4585A
:101E6C00C4500433C4188C42F9D3094A094C0023DA
:101E7C0001E013600432A242FBD304F0D1F8FEF768
:101E8C00D5FD704700000020B4000020646B0008F2
:101E9C00B400002038060020FEE7000080B500AF3B
:101EAC00084B1B68074A43F010031360032000F033
:101EBC0033FC0F2000F008F8FFF756FE00231846FD
:101ECC0080BD00BF0020024080B582B000AF7860BA
:101EDC00124B1A68124B1B7819464FF47A73B3FBEA
:101EEC00F1F3B2FBF3F3184600F04BFC0346002B66
:101EFC0001D001230EE07B680F2B0AD800227968F1
:101F0C004FF0FF3000F013FC064A7B68136000238F
:101F1C0000E0012318460837BD4680BD4400002070
:101F2C004C0000204800002080B400AF054B1B780B
:101F3C001A46054B1B681344034A136000BFBD4689
:101F4C0080BC70474C0000202406002080B400AFF9
:101F5C00024B1B681846BD4680BC70472406002007
:101F6C0080B584B000AF7860FFF7F0FFB8607B6895
:101F7C00FB60FB68B3F1FF3F05D00A4B1B781A4698
:101F8C00FB681344FB6000BFFFF7E0FF0246BB6831
:101F9C00D31AFA689A42F7D800BF00BF1037BD4673
:101FAC0080BD00BF4C00002080B586B000AF7860CB
:101FBC000023FB7500233B610023BB600023FB6007
:101FCC007B68002B01D10123BEE07B689B68002B52
:101FDC007B689B6A002B09D17B680022DA627B68E4
:101FEC00002283F824207868FFF7F0FD786800F071
:101FFC007DFA0346FB757B689B6A03F01003002B8C
:10200C0040F09980FB7D002B40F095807B689B6AAB
:10201C0023F4885323F0020343F002027B689A6294
:10202C007B685A687B68DB691A437B681B7B5B00A7
:10203C001343BA681343BB607B689B68B3F5807F1E
:10204C0003D07B689B68012B02D14FF4807300E0B6
:10205C0000233A6913433B617B681B7D012B19D12B
:10206C007B681B7B002B09D17B689B69013B5A0366
:10207C003B69134343F400633B610BE07B689B6A51
:10208C0043F020027B689A627B68DB6A43F00102B2
:10209C007B68DA627B681B685B6823F469417B6848
:1020AC001B683A690A435A607B681B689A68284B1C
:1020BC0013407A681268B9680B4393607B689B681D
:1020CC00B3F5807F03D07B689B68012B04D17B68C0
:1020DC001B69013B1B05FB607B681B68DB6A23F4F7
:1020EC0070017B681B68FA680A43DA627B681B68BC
:1020FC009A68184B1340BA689A420BD17B6800223D
:10210C00DA627B689B6A23F0030343F001027B686D
:10211C009A6218E07B689B6A23F0120343F010026A
:10212C007B689A627B68DB6A43F001027B68DA6247
:10213C000123FB7507E07B689B6A43F010027B6808
:10214C009A620123FB75FB7D18461837BD4680BD8E
:10215C00FDF7E1FFFE0E1FFF80B584B000AF786085
:10216C007B681B681B68FB607B681B685B68BB60DB
:10217C00BB6803F02003002B3ED0FB6803F0020386
:10218C00002B39D07B689B6A03F01003002B05D120
:10219C007B689B6A43F400727B689A627B681B685D
:1021AC009B6803F46023B3F5602F1DD17B681B7B08
:1021BC00002B19D17B681B685A687B681B6822F05E
:1021CC0020025A607B689B6A23F480727B689A6257
:1021DC007B689B6A03F48053002B05D17B689B6A58
:1021EC0043F001027B689A62786800F074F87B68AF
:1021FC001B686FF012021A60BB6803F08003002B9F
:10220C004DD0FB6803F00403002B48D07B689B6A1D
:10221C0003F01003002B05D17B689B6A43F400523A
:10222C007B689A627B681B689B6803F4E043B3F598
:10223C00E04F12D07B681B685B6803F48063002B53
:10224C0025D17B681B689B6803F46023B3F5602F72
:10225C001DD17B681B7B002B19D17B681B685A68CE
:10226C007B681B6822F080025A607B689B6A23F4AF
:10227C0080527B689A627B689B6A03F48073002BA4
:10228C0005D17B689B6A43F001027B689A6278688F
:10229C0000F06DF97B681B686FF00C021A60BB686C
:1022AC0003F04003002B12D0FB6803F00103002B5A
:1022BC000DD07B689B6A43F480327B689A627868A5
:1022CC0000F012F87B681B686FF001021A6000BF07
:1022DC001037BD4680BD80B483B000AF786000BFBE
:1022EC000C37BD4680BC704780B483B000AF7860BB
:1022FC0000BF0C37BD4680BC7047000080B485B071
:10230C0000AF786039600023FB730023BB607B68EF
:10231C0093F82430012B01D10223DCE07B680122ED
:10232C0083F824203B685B68062B1CD87B681B68F1
:10233C00596B3B685A6813469B001344053B1F229C
:10234C0002FA03F3DB4319403B6818683B685A6890
:10235C0013469B001344053B00FA03F27B681B6891
:10236C000A435A633CE03B685B680C2B1CD87B68C7
:10237C001B68196B3B685A6813469B001344233B3C
:10238C001F2202FA03F3DB4319403B6818683B68D1
:10239C005A6813469B001344233B00FA03F27B68F4
:1023AC001B680A431A631BE07B681B68D96A3B688D
:1023BC005A6813469B001344413B1F2202FA03F355
:1023CC00DB4319403B6818683B685A6813469B000E
:1023DC001344413B00FA03F27B681B680A43DA6240
:1023EC003B681B68092B1CD97B681B68D9683B6848
:1023FC001A6813465B0013441E3B072202FA03F3D0
:10240C00DB4319403B6898683B681A6813465B00CD
:10241C0013441E3B00FA03F27B681B680A43DA6024
:10242C0019E07B681B6819693B681A6813465B00E6
:10243C001344072202FA03F3DB4319403B68986804
:10244C003B681A6813465B00134400FA03F27B687E
:10245C001B680A431A613B681B68102B03D03B684E
:10246C001B68112B32D17B681B681D4A934225D106
:10247C007B681B689B6803F40003002B26D17B68E8
:10248C001B689A687B681B6842F400029A603B6880
:10249C001B68102B1AD1134B1B68134AA2FB032386
:1024AC009A0C13469B0013445B00BB6002E0BB68B4
:1024BC00013BBB60BB68002BF9D107E07B689B6AD2
:1024CC0043F020027B689A620123FB737B68002235
:1024DC0083F82420FB7B18461437BD4680BC70471C
:1024EC00002401404400002083DE1B4380B584B0EF
:1024FC0000AF78600023FB607B681B689B6803F06F
:10250C000103012B2ED17B681B689A687B681B68C2
:10251C0022F001029A60FFF719FDF8601BE0FFF74B
:10252C0015FD0246FB68D31A022B14D97B681B6875
:10253C009B6803F00103012B0DD17B689B6A43F070
:10254C0010027B689A627B68DB6A43F001027B684D
:10255C00DA62012307E07B681B689B6803F00103C8
:10256C00012BDCD0002318461037BD4680BD80B44B
:10257C0083B000AF786000BF0C37BD4680BC70479D
:10258C0080B485B000AF78607B6803F00703FB6014
:10259C000C4BDB68BB60BA684FF6FF031340BB60A3
:1025AC00FB681A02BB68134343F0BF6343F4003368
:1025BC00BB60044ABB68D36000BF1437BD4680BC07
:1025CC00704700BF00ED00E080B400AF044BDB6847
:1025DC001B0A03F007031846BD4680BC704700BFBA
:1025EC0000ED00E080B483B000AF0346FB7197F9B7
:1025FC000730002B0BDBFB7903F01F02064997F920
:10260C0007305B09012000FA02F241F8232000BFD9
:10261C000C37BD4680BC704700E100E080B483B04D
:10262C0000AF03463960FB7197F90730002B0ADBCA
:10263C003B68DAB20C4997F907301201D2B20B445D
:10264C0083F800230AE03B68DAB20849FB7903F00F
:10265C000F03043B1201D2B20B441A7600BF0C37A5
:10266C00BD4680BC704700BF00E100E000ED00E01B
:10267C0080B489B000AFF860B9607A60FB6803F091
:10268C000703FB61FB69C3F10703042B28BF042379
:10269C00BB61FB690433062B02D9FB69033B00E0E9
:1026AC0000237B614FF0FF32BB6902FA03F3DA437C
:1026BC00BB681A407B699A404FF0FF317B6901FA85
:1026CC0003F3D9437B680B40134318462437BD46AC
:1026DC0080BC704780B582B000AF78607B68013BEE
:1026EC00B3F1807F01D301230FE00A4A7B68013BE1
:1026FC0053600F214FF0FF30FFF790FF054B002286
:10270C009A60044B07221A60002318460837BD460E
:10271C0080BD00BF10E000E080B582B000AF7860F3
:10272C007868FFF72DFF00BF0837BD4680BD80B528
:10273C0086B000AF0346B9607A60FB7300237B61FF
:10274C00FFF742FF78617A68B9687869FFF790FF04
:10275C00024697F90F3011461846FFF75FFF00BF8E
:10276C001837BD4680BD80B582B000AF0346FB7103
:10277C0097F907301846FFF735FF00BF0837BD46FD
:10278C0080BD80B582B000AF78607868FFF7A2FF9B
:10279C00034618460837BD4680BD000080B584B09E
:1027AC0000AF78600023FB737B6893F82130DBB2B9
:1027BC00022B05D07B6804229A630123FB7351E042
:1027CC007B681B681A687B681B6822F00E021A6013
:1027DC007B681B681A687B681B6822F001021A6010
:1027EC007B681B68224A934229D07B681B68214A6C
:1027FC00934222D07B681B681F4A93421AD07B6895
:10280C001B681E4A934212D07B681B681C4A934279
:10281C000AD07B681B681B4A934202D14FF4801389
:10282C000EE04FF080730BE04FF4803308E04FF470
:10283C00805305E04FF4807302E0102300E0012385
:10284C00114A53607B68012283F821207B680022A7
:10285C0083F820207B685B6B002B03D07B685B6B61
:10286C0078689847FB7B18461037BD4680BD00BF83
:10287C00080002401C0002403000024044000240AC
:10288C00580002406C0002400000024080B483B04B
:10289C0000AF78607B6893F82130DBB218460C37B8
:1028AC00BD4680BC7047000080B48BB000AF786030
:1028BC00396000237B6200233B6269E101227B6A61
:1028CC0002FA03F3FB613B681B68FA691340BB61B6
:1028DC00BA69FB699A4240F058813B685B689A4A36
:1028EC0093425ED0984A934275D8984A934258D0F6
:1028FC00964A93426FD8964A934252D0944A934246
:10290C0069D8944A93424CD0924A934263D8924AE3
:10291C00934246D0904A93425DD8122B2AD8122B60
:10292C0059D801A252F823F0AF29000889290008D0
:10293C009B290008DD290008E3290008E329000889
:10294C00E3290008E3290008E3290008E32900082B
:10295C00E3290008E3290008E3290008E32900081B
:10296C00E3290008E3290008E3290008912900085D
:10297C00A5290008794A934213D02CE03B68DB6808
:10298C003B6229E03B68DB6804333B6224E03B6834
:10299C00DB6808333B621FE03B68DB680C333B624F
:1029AC001AE03B689B68002B02D104233B6213E0C6
:1029BC003B689B68012B05D108233B627B68FA6955
:1029CC001A6109E008233B627B68FA695A6103E0EB
:1029DC0000233B6200E000BFBB69FF2B01D87B6882
:1029EC0001E07B6804337B61BB69FF2B02D87B6AF7
:1029FC009B0002E07B6A083B9B003B617B691A6889
:102A0C000F213B6901FA03F3DB431A40396A3B6936
:102A1C0001FA03F31A437B691A603B685B6803F0A5
:102A2C008053002B00F0B1804D4B9B694C4A43F016
:102A3C00010393614A4B9B6903F00103BB60BB68C4
:102A4C00484A7B6A9B08023352F82330FB607B6A4E
:102A5C0003F003039B000F2202FA03F3DB43FA6833
:102A6C001340FB607B68404A934213D07B683F4A1B
:102A7C0093420DD07B683E4A934207D07B683D4A17
:102A8C00934201D1032306E0042304E0022302E075
:102A9C00012300E000237A6A02F0030292009340C3
:102AAC00FA681343FB602F497B6A9B080233FA6870
:102ABC0041F823203B685B6803F48013002B06D09D
:102ACC002D4B9A682C49BB6913438B6006E02A4B4B
:102ADC009A68BB69DB43284913408B603B685B6891
:102AEC0003F40013002B06D0234BDA682249BB6990
:102AFC001343CB6006E0204BDA68BB69DB431E490D
:102B0C001340CB603B685B6803F40033002B06D0AA
:102B1C00194B5A681849BB6913434B6006E0164BB6
:102B2C005A68BB69DB43144913404B603B685B68D4
:102B3C0003F48033002B21D00F4B1A680E49BB696C
:102B4C0013430B6021E000BF000032100000311075
:102B5C0000002210000021100000121000001110C3
:102B6C00001002400000014000080140000C014030
:102B7C000010014000140140000401400B4B1A6886
:102B8C00BB69DB43094913400B607B6A01337B62F1
:102B9C003B681A687B6A22FA03F3002B7FF48EAE33
:102BAC0000BF00BF2C37BD4680BC704700040140FD
:102BBC0080B485B000AF78600B467B807B689A68E8
:102BCC007B881340002B02D00123FB7301E0002310
:102BDC00FB73FB7B18461437BD4680BC704780B432
:102BEC0083B000AF78600B467B8013467B707B789C
:102BFC00002B03D07A887B681A6103E07B881A0467
:102C0C007B681A6100BF0C37BD4680BC7047000062
:102C1C0080B584B000AF78607B68002B01D10123B4
:102C2C002BE17B6893F83D30DBB2002B06D17B683F
:102C3C00002283F83C207868FFF70CF87B6824228C
:102C4C0083F83D207B681B681A687B681B6822F040
:102C5C0001021A607B681B681A687B681B6842F467
:102C6C0000421A607B681B681A687B681B6822F438
:102C7C0000421A6002F03EFDF8607B685B68814A96
:102C8C00934207D8FB68804A934294BF01230023E8
:102C9C00DBB206E0FB687D4A934294BF012300231C
:102CAC00DBB2002B01D00123E7E0FB68784AA2FBE2
:102CBC0003239B0CBB607B681B685B6823F03F01A4
:102CCC007B681B68BA680A435A607B681B681B6A7E
:102CDC0023F03F017B685B686A4A934202D8BB6869
:102CEC00013309E0BB684FF4967202FB03F3694AA7
:102CFC00A2FB03239B0901337A6812680B4313620E
:102D0C007B681B68DB6923F44F4222F0FF027B686F
:102D1C005B685C498B4219D8FB68591E7B685B6801
:102D2C005B00B1FBF3F3591C40F6FC730B40002B1A
:102D3C000AD0FB68591E7B685B685B00B1FBF3F340
:102D4C000133C3F30B0351E004234FE07B689B6812
:102D5C00002B11D1FB68581E7B6859680B465B0031
:102D6C000B44B0FBF3F30133C3F30B03002B0CBF89
:102D7C0001230023DBB212E0FB68581E7B68596804
:102D8C000B469B000B4499000B44B0FBF3F301334F
:102D9C00C3F30B03002B0CBF01230023DBB2002B6E
:102DAC0001D0012322E07B689B68002B0ED1FB68CD
:102DBC00581E7B6859680B465B000B44B0FBF3F361
:102DCC000133C3F30B0343F400430FE0FB68581EBD
:102DDC007B6859680B469B000B4499000B44B0FB75
:102DEC00F3F30133C3F30B0343F4404379680968ED
:102DFC001343CB617B681B681B6823F0C0017B68A5
:102E0C00DA697B681B6A1A437B681B680A431A6081
:102E1C007B681B689B6823F4034323F0FF037A68E9
:102E2C0011697A68D26811437A6812680B4393600F
:102E3C007B681B68DB6823F0FF017B685A697B6841
:102E4C009B691A437B681B680A43DA607B681B68C2
:102E5C001A687B681B6842F001021A607B680022CA
:102E6C001A647B68202283F83D207B6800221A6359
:102E7C007B68002283F83E20002318461037BD469D
:102E8C0080BD00BFA08601007F841E00FF083D00AE
:102E9C0083DE1B43D34D621080B483B000AF7860E7
:102EAC007B681B685B6903F08003802B03D17B6814
:102EBC001B6800221A6100BF0C37BD4680BC7047EE
:102ECC0080B588B002AFF8607A601A460B467B81F9
:102EDC0013463B81FFF73AF87861FB6893F83D3075
:102EEC00DBB2202B40F0E0807B6900931923012298
:102EFC007049F86801F012FE0346002B01D0022342
:102F0C00D3E0FB6893F83C30012B01D10223CCE0D9
:102F1C00FB68012283F83C20FB681B681B6803F0EC
:102F2C000103012B07D0FB681B681A68FB681B6840
:102F3C0042F001021A60FB681B681A68FB681B6888
:102F4C0022F400621A60FB68212283F83D20FB68A2
:102F5C00102283F83E20FB6800221A64FB687A6812
:102F6C005A62FB683A895A85FB685B8D9AB2FB689A
:102F7C001A85FB68504ADA6279897B693A6AF86883
:102F8C0001F0A2FC0346002B01D001238DE00023AD
:102F9C003B61FB681B685B693B61FB681B689B6959
:102FAC003B613B6966E07A69396AF86801F0D0FEEA
:102FBC000346002B0DD0FB681B6C042B07D1FB6860
:102FCC001B681A68FB681B6842F400721A600123C4
:102FDC006BE0FB685B6A1A78FB681B681A61FB681C
:102FEC005B6A5A1CFB685A62FB685B8D9BB2013BA7
:102FFC009AB2FB685A85FB681B8D013B9AB2FB6841
:10300C001A85FB681B685B6903F00403042B1BD156
:10301C00FB681B8D002B17D0FB685B6A1A78FB686A
:10302C001B681A61FB685B6A5A1CFB685A62FB6876
:10303C005B8D9BB2013B9AB2FB685A85FB681B8D7A
:10304C00013B9AB2FB681A857A69396AF86801F013
:10305C00C7FE0346002B0DD0FB681B6C042B07D15D
:10306C00FB681B681A68FB681B6842F400721A60E4
:10307C0001231AE0FB681B8D002B94D1FB681B68A5
:10308C001A68FB681B6842F400721A60FB68202205
:10309C0083F83D20FB68002283F83E20FB68002269
:1030AC0083F83C20002300E0022318461837BD4665
:1030BC0080BD00BF020010000000FFFF80B588B08B
:1030CC0000AF78600023BB617B681B685B687B6129
:1030DC007B68DB6A3B617B6893F83E30FB737B68F3
:1030EC0093F83D30BB73FB7B102B03D0FB7B402B49
:1030FC0040F0C1807B681B689B69BB617B681B6867
:10310C005B69FB61FB6903F00103002B0DD13B698B
:10311C00B3F52A0F03D03B69B3F12A4F01D1012338
:10312C0000E00023012B00F03281FB6903F0010366
:10313C00002B0CD07B695B0A03F00103002B06D03B
:10314C00786801F0F5FE786800F099FD92E0FB6973
:10315C00DB0803F00103002B09D07B695B0A03F049
:10316C000103002B03D0786800F00EFE82E0FB69AF
:10317C005B0803F00103002B09D07B695B0A03F0A9
:10318C000103002B03D0786800F027FE72E0BB69C6
:10319C009B0803F00103002B3BD07B681B685B682A
:1031AC0003F40063B3F5006F00F0F380FB69DB09F7
:1031BC0003F00103002B0FD07B699B0A03F0010382
:1031CC00002B09D0FB699B0803F00103002B03D1F2
:1031DC00786800F0F1F94DE0FB699B0803F00103FE
:1031EC00002B00F0D6807B695B0A03F00103002BF7
:1031FC0000F0CF80BB7B212B03D1786800F078FAEC
:10320C00C7E0FB7B402B40F0C480786800F0E6FA06
:10321C00BFE07B681B685B6803F40063B3F5006F69
:10322C0000F0B780FB699B0903F00103002B0FD062
:10323C007B699B0A03F00103002B09D0FB699B08F7
:10324C0003F00103002B03D1786800F05FFB11E061
:10325C00FB699B0803F00103002B00F09A807B694B
:10326C005B0A03F00103002B00F09380786800F0F8
:10327C0015FC8EE08DE07B681B6C002B04D07B680A
:10328C001B685B69FB6107E07B681B689B69BB6122
:10329C007B681B685B69FB61FB695B0803F00103DE
:1032AC00002B12D07B695B0A03F00103002B0CD0BE
:1032BC007B681B6C002B03D07B681B689B69BB6114
:1032CC00B969786800F0E0FF66E0FB691B0903F060
:1032DC000103002B09D07B695B0A03F00103002B6F
:1032EC0003D0786801F01AF856E0BB7B212B02D092
:1032FC00BB7B292B25D1FB69DB0903F00103002BD8
:10330C000FD07B699B0A03F00103002B09D0FB69EA
:10331C009B0803F00103002B03D1786800F0F8FE42
:10332C0039E0FB699B0803F00103002B33D07B6968
:10333C005B0A03F00103002B2DD0786800F025FF09
:10334C0029E0FB699B0903F00103002B0FD07B697B
:10335C009B0A03F00103002B09D0FB699B0803F0C7
:10336C000103002B03D1786800F02FFF14E0FB69F8
:10337C009B0803F00103002B0ED07B695B0A03F062
:10338C000103002B08D0786800F05DFF04E000BF5B
:10339C0002E000BF00E000BF2037BD4680BD80B515
:1033AC008AB000AF78607B681B685B693B627B68A6
:1033BC001B685B68FB6100237B627B6893F83E3083
:1033CC00FB763B6A1B0A03F00103002B16D0FB694A
:1033DC001B0A03F00103002B10D07B6A43F001039E
:1033EC007B627B681B686FF480725A617B681B6818
:1033FC001A687B681B6842F400421A603B6A5B0ADD
:10340C0003F00103002B0ED0FB691B0A03F0010330
:10341C00002B08D07B6A43F002037B627B681B683D
:10342C006FF400725A613B6A9B0A03F00103002B94
:10343C003FD0FB691B0A03F00103002B39D0FB7E44
:10344C00BB767B685B8D9BB27B617B6893F83D3070
:10345C00FB747B681B6BFB60BB7E202B12D17B69E2
:10346C00002B0FD1FB7C212B08D0FB7C292B05D00A
:10347C00FB7C282B06D1FB68212B03D1786801F04B
:10348C007DF816E07B681B686FF480625A617B6A7A
:10349C0043F004037B62FB7E102B02D0FB7E402B9F
:1034AC0007D17B681B681A687B681B6842F4007242
:1034BC001A603B6ADB0A03F00103002B0ED0FB6998
:1034CC001B0A03F00103002B08D07B6A43F00803AE
:1034DC007B627B681B686FF400625A617B6A002B0D
:1034EC0008D07B681A6C7B6A1A437B681A6478680C
:1034FC0001F0B8F800BF2837BD4680BD80B483B05A
:10350C0000AF786000BF0C37BD4680BC704780B4FC
:10351C0083B000AF786000BF0C37BD4680BC7047ED
:10352C0080B483B000AF786000BF0C37BD4680BC60
:10353C00704780B483B000AF786000BF0C37BD46D5
:10354C0080BC704780B483B000AF78600B46FB70D2
:10355C0013463B8000BF0C37BD4680BC704780B41F
:10356C0083B000AF786000BF0C37BD4680BC70479D
:10357C0080B483B000AF786000BF0C37BD4680BC10
:10358C00704780B483B000AF786000BF0C37BD4685
:10359C0080BC704780B483B000AF786000BF0C373C
:1035AC00BD4680BC704780B483B000AF786000BF6C
:1035BC000C37BD4680BC704780B584B000AF7860D6
:1035CC007B6893F83D30FB737B6893F83E30BB739C
:1035DC007B68DB6ABB607B681B8D002B50D1FB7B4F
:1035EC00212B4DD1BB68082B1DD0BB68202B1AD0CA
:1035FC00BB6813F5803F16D07B681B685A687B68E4
:10360C001B6822F4E0625A607B6811221A637B68A3
:10361C00002283F83E207B68202283F83D207868C6
:10362C00FFF76CFF60E07B681B685A687B681B685F
:10363C0022F4E0625A607B681B681A687B681B681E
:10364C0042F400721A607B6800221A637B682022A5
:10365C0083F83D207B6893F83E30DBB2402B07D1DA
:10366C007B68002283F83E207868FFF781FF3BE0FF
:10367C007B68002283F83E207868FFF73FFF33E039
:10368C00FB7B212B05D0BB7B402B2DD1FB7B222B35
:10369C002AD17B685B8D9BB2002B08D17B681B68A1
:1036AC005A687B681B6822F480625A601CE07B6855
:1036BC0093F83E30DBB2402B03D1786800F08EF8E3
:1036CC0012E07B685B6A1A787B681B681A617B68FE
:1036DC005B6A5A1C7B685A627B685B8D9BB2013BB0
:1036EC009AB27B685A85FFE700BF1037BD4680BD94
:1036FC0080B584B000AF78607B68DB6AFB607B6868
:10370C0093F83D30DBB2212B64D17B685B8D9BB28F
:10371C00002B12D07B685B6A1A787B681B681A6175
:10372C007B685B6A5A1C7B685A627B685B8D9BB2B8
:10373C00013B9AB27B685A854CE0FB68082B1DD084
:10374C00FB68202B1AD0FB6813F5803F16D07B68E2
:10375C001B685A687B681B6822F4E0625A607B68BD
:10376C0011221A637B68002283F83E207B6820229A
:10377C0083F83D207868FFF7C1FE2BE07B681B685F
:10378C005A687B681B6822F4E0625A607B681B688D
:10379C001A687B681B6842F400721A607B6800220E
:1037AC001A637B68202283F83D207B6893F83E30B7
:1037BC00DBB2402B07D17B68002283F83E2078686F
:1037CC00FFF7D6FE06E07B68002283F83E2078687F
:1037DC00FFF794FE00BF1037BD4680BD80B584B0A6
:1037EC0000AF78607B6893F83D30FB737B681B6D92
:1037FC00002B1DD17B68DB6C012B0BD17B689B6C88
:10380C00DAB27B681B681A617B681B6D9A1C7B683B
:10381C001A6577E07B689B6C9BB21B12DAB27B68F3
:10382C001B681A617B681B6D5A1C7B681A6569E002
:10383C007B681B6D012B0BD17B689B6CDAB27B68B0
:10384C001B681A617B681B6D5A1C7B681A6559E0F2
:10385C007B681B6D022B52D1FB7B222B0DD17B681D
:10386C001B681A687B681B6842F480721A607B685C
:10387C001B6D5A1C7B681A6544E07B685B8D9BB2A0
:10388C00002B15D0FB7B212B12D17B685B6A1A783D
:10389C007B681B681A617B685B6A5A1C7B685A627E
:1038AC007B685B8D9BB2013B9AB27B685A8529E0A1
:1038BC007B685B8D9BB2002B24D1FB7B212B21D110
:1038CC007B681B685A687B681B6822F4E0625A604C
:1038DC007B681B681A687B681B6842F400721A606C
:1038EC007B6800221A637B68202283F83D207B686A
:1038FC00002283F83E207868FFF73AFE02E07868F1
:10390C00FFF7CAFA00BF1037BD4680BD80B584B042
:10391C0000AF78607B6893F83D30DBB2222B40F02F
:10392C00B9807B68DB6AFB607B685B8D9BB2BB609C
:10393C00BB68032B21D97B681B681A697B685B6A9F
:10394C00D2B21A707B685B6A5A1C7B685A627B68BD
:10395C005B8D9BB2013B9AB27B685A857B685B8D11
:10396C009BB2032B40F096807B681B685A687B687F
:10397C001B6822F480625A608CE07B68DB6A022B45
:10398C007FD0BB68012B02D0BB68002B79D1786843
:10399C0001F06EFA0346002B4CD17B681B681A6849
:1039AC007B681B6822F480621A607B681B685A680B
:1039BC007B681B6822F4E0625A607B681B681A699A
:1039CC007B685B6AD2B21A707B685B6A5A1C7B6834
:1039DC005A627B685B8D9BB2013B9AB27B685A85BD
:1039EC007B68202283F83D207B6893F83E30DBB265
:1039FC00402B0AD17B68002283F83E207B68002292
:103A0C001A637868FFF7BDFD44E07B68002283F8F9
:103A1C003E20FB68082B02D0FB68202B03D17B686F
:103A2C0000221A6302E07B6812221A637868FFF79F
:103A3C006EFD2FE07B681B685A687B681B6822F45C
:103A4C00E0625A607B681B681A697B685B6AD2B259
:103A5C001A707B685B6A5A1C7B685A627B685B8D48
:103A6C009BB2013B9AB27B685A857B68202283F813
:103A7C003D207B68002283F83E207868FFF78AFDA2
:103A8C0008E07B681B685A687B681B6822F48062BC
:103A9C005A60FFE700BF1037BD4680BD80B584B0CB
:103AAC0000AF78607B68DB6AFB607B685B8D9BB2E8
:103ABC00042B1BD17B681B685A687B681B6822F43B
:103ACC0080625A607B681B681A697B685B6AD2B239
:103ADC001A707B685B6A5A1C7B685A627B685B8DC8
:103AEC009BB2013B9AB27B685A85C4E07B685B8DC4
:103AFC009BB2032B29D17B681B685A687B681B68B7
:103B0C0022F480625A60FB68042B0AD0FB68022BFB
:103B1C0007D07B681B681A687B681B6822F480627C
:103B2C001A607B681B681A697B685B6AD2B21A7070
:103B3C007B685B6A5A1C7B685A627B685B8D9BB2A4
:103B4C00013B9AB27B685A8595E07B685B8D9BB292
:103B5C00022B7DD1FB68012B02D0FB68102B08D106
:103B6C007B681B681A687B681B6822F480621A6089
:103B7C0016E0FB68042B02D0FB68022B08D17B6893
:103B8C001B681A687B681B6842F480621A6007E045
:103B9C007B681B681A687B681B6842F400721A60A9
:103BAC007B681B681A697B685B6AD2B21A707B6887
:103BBC005B6A5A1C7B685A627B685B8D9BB2013BCB
:103BCC009AB27B685A857B681B681A697B685B6A4A
:103BDC00D2B21A707B685B6A5A1C7B685A627B682B
:103BEC005B8D9BB2013B9AB27B685A857B681B68E4
:103BFC005A687B681B6822F440725A607B682022EA
:103C0C0083F83D207B6893F83E30DBB2402B0AD121
:103C1C007B68002283F83E207B6800221A63786858
:103C2C00FFF7AFFC27E07B68002283F83E20FB689F
:103C3C00082B02D0FB68202B03D17B6800221A636F
:103C4C0002E07B6812221A637868FFF760FC12E0CE
:103C5C007B681B681A697B685B6AD2B21A707B68D6
:103C6C005B6A5A1C7B685A627B685B8D9BB2013B1A
:103C7C009AB27B685A8500BF1037BD4680BD80B4B0
:103C8C0083B000AF78607B6893F83E30DBB2402B9A
:103C9C0017D17B681B6D002B09D17B685B6CDBB289
:103CAC001A467B681B6802F0FE021A6167E07B68AB
:103CBC005B6CDBB243F00103DAB27B681B681A6100
:103CCC005DE07B681B69B3F5804F33D17B6893F85B
:103CDC003D30DBB2212B09D17B685B6CDBB21A4621
:103CEC007B681B6802F0FE021A6108E07B685B6C63
:103CFC00DBB243F00103DAB27B681B681A617B68A4
:103D0C005B6B002B04D07B685B6B9B6A002B08D130
:103D1C007B689B6B002B32D07B689B6B9B6A002B68
:103D2C002DD07B681B685A687B681B6842F4006264
:103D3C005A6024E07B681B6D002B0ED17B685B6C9A
:103D4C009BB2DB11DBB203F00603DBB263F00F03B3
:103D5C00DAB27B681B681A6111E07B681B6D012B62
:103D6C000DD17B685B6C9BB2DB11DBB203F00603FD
:103D7C00DBB263F00E03DAB27B681B681A6100BF1A
:103D8C000C37BD4680BC704780B483B000AF786000
:103D9C007B685B6CDAB27B681B681A617B685B6B57
:103DAC00002B04D07B685B6B9B6A002B08D17B6873
:103DBC009B6B002B0CD07B689B6B9B6A002B07D0FA
:103DCC007B681B685A687B681B6842F400625A6007
:103DDC0000BF0C37BD4680BC704780B491B000AFBB
:103DEC0078607B6893F83E3087F83F307B68DB6AFD
:103DFC00BB637B681B6B7B637B6893F83D30DBB2EA
:103E0C00222B40F074817B681B6D002B0FD197F82F
:103E1C003F30402B0BD100233B637B681B685B69F5
:103E2C003B637B681B689B693B633B6B6BE17B680B
:103E3C001B6D002B1DD17B681B69B3F5404F18D14E
:103E4C000023FB627B681B685B69FB627B681B68F9
:103E5C009B69FB62FB6A7B681B681A687B681B6842
:103E6C0042F480721A607B681B6D5A1C7B681A6561
:103E7C0049E17B685B8D9BB2002B13D10023BB62A5
:103E8C007B681B685B69BB627B681B689B69BB6258
:103E9C00BB6A7B681B681A687B681B6842F40072FB
:103EAC001A6020E17B685B8D9BB2012B40F08A800D
:103EBC00BB6B13F5803F37D17B681B681A687B6836
:103ECC001B6822F480621A607B681B685B6803F4D1
:103EDC000063B3F5006F13D17B681B681A687B68AD
:103EEC001B6822F480621A6000237B627B681B686B
:103EFC005B697B627B681B689B697B627B6AF2E017
:103F0C0000233B627B681B685B693B627B681B68B8
:103F1C009B693B623B6A7B681B681A687B681B6801
:103F2C0042F400721A60DEE0BB6B082B2ED0BB6B28
:103F3C00202B2BD07B6B122B02D1BB6B012B25D1F1
:103F4C00BB6B042B0ED0BB6B022B0BD0BB6B102BA3
:103F5C0008D07B681B681A687B681B6822F4806237
:103F6C001A6007E07B681B681A687B681B6842F460
:103F7C0080621A600023FB617B681B685B69FB61D4
:103F8C007B681B689B69FB61FB69ACE07B681B6809
:103F9C001A687B681B6822F480621A600023BB617C
:103FAC007B681B685B69BB617B681B689B69BB6139
:103FBC00BB697B681B681A687B681B6842F40072DB
:103FCC001A6090E07B685B8D9BB2022B58D1BB6B67
:103FDC00042B21D0BB6B022B1ED0BB6B102B1BD028
:103FEC007B681B681A687B681B6842F400621A6065
:103FFC0000237B617B681B685B697B617B681B684A
:10400C009B697B617B697B681B681A687B681B6892
:10401C0022F480621A6012E07B681B681A687B6865
:10402C001B6842F480621A6000233B617B681B684A
:10403C005B693B617B681B689B693B613B697B6887
:10404C001B685B6803F40063B3F5006F4BD1BB6B6B
:10405C0013F5803F0BD0BB6B012B08D0BB6B082B2F
:10406C0005D0BB6B102B02D0BB6B202B3BD17B68DC
:10407C001B685A687B681B6842F480525A6032E0B5
:10408C007B681B681A687B681B6842F480621A6044
:10409C007B681B685B6803F40063B3F5006F17D192
:1040AC00BB6B13F5803F0BD0BB6B012B08D0BB6BEC
:1040BC00082B05D0BB6B102B02D0BB6B202B07D170
:1040CC007B681B685A687B681B6842F480525A6094
:1040DC000023FB607B681B685B69FB607B681B686B
:1040EC009B69FB60FB687B6800221A650BE0002370
:1040FC00BB607B681B685B69BB607B681B689B69EA
:10410C00BB60BB68FFE700BF4437BD4680BC70474F
:10411C0080B584B000AF78607B6893F83D30FB735A
:10412C007B685B8D9BB2002B2BD07B685B6A1A780B
:10413C007B681B681A617B685B6A5A1C7B685A62D5
:10414C007B685B8D9BB2013B9AB27B685A857B681E
:10415C005B8D9BB2002B14D1FB7B292B11D17B687F
:10416C001B685A687B681B6822F480625A607B6803
:10417C0021221A637B68282283F83D207868FFF798
:10418C00CFF900BF1037BD4680BD80B483B000AFFF
:10419C0078607B685B8D9BB2002B11D07B685B6A6F
:1041AC001A787B681B681A617B685B6A5A1C7B688F
:1041BC005A627B685B8D9BB2013B9AB27B685A85D5
:1041CC0000BF0C37BD4680BC704780B584B000AFD3
:1041DC0078607B6893F83D30FB737B685B8D9BB29A
:1041EC00002B2CD07B681B681A697B685B6AD2B287
:1041FC001A707B685B6A5A1C7B685A627B685B8DA1
:10420C009BB2013B9AB27B685A857B685B8D9BB2F3
:10421C00002B14D1FB7B2A2B11D17B681B685A68AD
:10422C007B681B6822F480625A607B6822221A63C6
:10423C007B68282283F83D207868FFF77AF900BF65
:10424C001037BD4680BD80B483B000AF78607B680A
:10425C005B8D9BB2002B12D07B681B681A697B6844
:10426C005B6AD2B21A707B685B6A5A1C7B685A62B2
:10427C007B685B8D9BB2013B9AB27B685A8500BF11
:10428C000C37BD4680BC704780B584B000AF7860F9
:10429C0039600023FB737B6893F83D30DBB203F08D
:1042AC002803282B27D17B681B685A687B681B68FE
:1042BC0022F480625A603B689B0803F00103002BD8
:1042CC0001D10123FB733B68DB0903F00103002BD5
:1042DC0003D17B68DB68BB8102E07B689B69BB8197
:1042EC007B68002283F83C20BA89FB7B19467868EE
:1042FC00FFF728F90EE00023BB607B681B685B6945
:10430C00BB607B681B689B69BB60BB687B680022D9
:10431C0083F83C2000BF1037BD4680BD80B584B00B
:10432C0000AF78607B6893F83D30FB737B681B684B
:10433C005A687B681B6822F4E0625A600023BB60F9
:10434C007B681B685B69BB607B681B681A687B6851
:10435C001B6842F001021A60BB687B681B681A6814
:10436C007B681B6822F480621A607B681B685B6840
:10437C0003F40063B3F5006F72D1FB7B222B02D0E8
:10438C00FB7B2A2B35D17B689B6B1B685B689AB2D5
:10439C007B685A857B685B8D9BB2002B05D07B6854
:1043AC001B6C43F004027B681A647B681B685A68B8
:1043BC007B681B6822F400625A607B689B6B184612
:1043CC00FEF764FA0346012B49D07B689B6B694A64
:1043DC005A637B689B6B1846FEF7E0F90346002B8B
:1043EC003DD07B689B6B5B6B7A68926B10469847F1
:1043FC0035E07B685B6B1B685B689AB27B685A859F
:10440C007B685B8D9BB2002B05D07B681B6C43F0EB
:10441C0004027B681A647B681B685A687B681B689B
:10442C0022F400625A607B685B6B1846FEF72EFA2A
:10443C000346012B14D07B685B6B4E4A5A637B6836
:10444C005B6B1846FEF7AAF90346002B08D07B6875
:10445C005B6B5B6B7A68526B1046984700E000BF51
:10446C007B685B8D9BB2002B3ED07B681B685B69C5
:10447C0003F00403042B12D17B681B681A697B6858
:10448C005B6AD2B21A707B685B6A5A1C7B685A6290
:10449C007B685B8D9BB2013B9AB27B685A857B68CB
:1044AC001B685B6903F04003402B12D17B681B68CF
:1044BC001A697B685B6AD2B21A707B685B6A5A1C99
:1044CC007B685A627B685B8D9BB2013B9AB27B68BE
:1044DC005A857B685B8D9BB2002B05D07B681B6C6F
:1044EC0043F004027B681A647B681B6C002B03D0BE
:1044FC00786800F0B7F839E0FB7B2A2B09D17B6890
:10450C0000221A637B68282283F83D207868FFF725
:10451C0010F87B6893F83D30DBB2282B11D17B6807
:10452C00154ADA627B6800221A637B68202283F8C2
:10453C003D207B68002283F83E207868FFF70FF857
:10454C0014E07B681B6B222B02D0FB7B222B0DD142
:10455C007B6800221A637B68202283F83D207B68ED
:10456C00002283F83E207868FEF7E3FF00BF103787
:10457C00BD4680BDD94900080000FFFF80B584B05E
:10458C0000AF78607B6893F83D30FB737B68DB6A27
:10459C00BB60BB68082B02D0BB68202B29D1FB7BEE
:1045AC00282B26D17B682E4ADA627B681B685A68F6
:1045BC007B681B6822F4E0625A607B681B686FF4AE
:1045CC0080625A617B681B681A687B681B6822F4DE
:1045DC0080621A607B6800221A637B68202283F851
:1045EC003D207B68002283F83E207868FEF7B7FFF9
:1045FC0031E0FB7B212B29D17B68194ADA627B687D
:10460C0021221A637B68202283F83D207B680022DC
:10461C0083F83E207B681B685A687B681B6822F411
:10462C00E0625A607B681B686FF480625A617B6839
:10463C001B681A687B681B6822F480621A607868B1
:10464C00FEF72AFC7868FEF76BFF04E07B681B68BA
:10465C006FF480625A6100BF1037BD4680BD00BF49
:10466C000000FFFF80B584B000AF78607B6893F8E2
:10467C003D30FB737B6893F83E30BB73BB7B102BD8
:10468C0002D0BB7B402B0AD1FB7B222B07D17B6852
:10469C001B681A687B681B6822F400621A60FB7B3B
:1046AC0003F02803282B07D17B6800221A637B6850
:1046BC00282283F83D2015E07B681B685B6803F4B7
:1046CC000063B3F5006F0AD0FB7B602B07D07B68CF
:1046DC00202283F83D207B68002283F83E207B68F3
:1046EC0000221A637B681B685B6803F40063B3F5F4
:1046FC00006F62D17B681B685A687B681B6822F468
:10470C0000625A607B685B6B93F82130DBB2012B43
:10471C0020D07B685B6B6A4A5A637B685B6B18467C
:10472C00FEF73CF80346002B00F089807B681B6881
:10473C001A687B681B6822F001021A607B682022D1
:10474C0083F83D207B685B6B5B6B7A68526B104621
:10475C00984774E07B689B6B594A5A637B689B6BE8
:10476C001846FEF71BF80346002B68D07B681B68C5
:10477C005B6903F04003402B0BD17B681B681A6903
:10478C007B685B6AD2B21A707B685B6A5A1C7B6866
:10479C005A627B681B681A687B681B6822F00102EE
:1047AC001A607B68202283F83D207B689B6B5B6BD7
:1047BC007A68926B1046984741E07B6893F83D30DD
:1047CC00DBB2602B25D17B68202283F83D207B68EF
:1047DC0000221A647B681B685B6903F04003402B62
:1047EC000BD17B681B681A697B685B6AD2B21A7042
:1047FC007B685B6A5A1C7B685A627B681B681A6808
:10480C007B681B6822F001021A607868FEF7CBFE09
:10481C0015E07B681B685B6903F04003402B0BD1F0
:10482C007B681B681A697B685B6AD2B21A707B68FA
:10483C005B6A5A1C7B685A627868FEF7ABFE7B6831
:10484C001B6CBB60BB6803F00103002B0ED1BB6873
:10485C0003F00203002B09D1BB6803F00403002B07
:10486C0004D1BB6803F00803002B07D07B681B68DE
:10487C005A687B681B6822F4E0625A607B6893F884
:10488C003D30FB737B681B6C03F00403042B13D1CA
:10489C00FB7B282B10D17B680A4ADA627B680022EA
:1048AC001A637B68202283F83D207B68002283F802
:1048BC003E207868FEF753FE00BF1037BD4680BD22
:1048CC00D94900080000FFFF80B588B002AFF8603E
:1048DC007A603B600B467B81FB68DB6A7B617B69A2
:1048EC00082B06D07B69012B03D07B6913F5803F25
:1048FC0008D1FB681B681A68FB681B6842F480725D
:10490C001A600BE0FB681B6B122B07D1FB681B6852
:10491C001A68FB681B6842F480721A603B6800934B
:10492C007B6800224FF00111F86800F0F7F803469D
:10493C00002B0DD0FB681B681B6803F48073B3F568
:10494C00807F03D1FB684FF400721A64032335E0B7
:10495C00FB681B69B3F5804F08D17B89DBB21A4623
:10496C00FB681B6802F0FE021A611BE07B89DB11FD
:10497C00DBB203F00603DBB263F00F03DAB2FB68C1
:10498C001B681A613B687A680E49F86800F040F9B8
:10499C000346002B01D0012310E07B89DAB2FB68BF
:1049AC001B681A613B687A680749F86800F030F9AF
:1049BC000346002B01D0012300E0002318461837D2
:1049CC00BD4680BD080001000200010080B586B024
:1049DC0000AF78600023FB607B685B6A7B617B695E
:1049EC0093F83D30FB744B4B1B68DB084A4AA2FB27
:1049FC0003231A0A13469B001344DA00D31AFB60F4
:104A0C00FB68002B06D17B691B6C43F020027B6991
:104A1C001A640AE0FB68013BFB607B691B681B683E
:104A2C0003F40073B3F5007FEAD07B695B6B002B5A
:104A3C0003D07B695B6B00229A627B699B6B002BBA
:104A4C0003D07B699B6B00229A627B691B681A6896
:104A5C007B691B6822F480621A607B6900225A858C
:104A6C007B695B6B002B03D07B695B6B00225A6309
:104A7C007B699B6B002B03D07B699B6B00225A6379
:104A8C007B691B681A687B691B6822F001021A603B
:104A9C007B6993F83D30DBB2602B0ED17B69202211
:104AAC0083F83D207B69002283F83E207B6900223D
:104ABC001A647869FEF777FD27E0FB7C03F0280386
:104ACC00282B17D17B691B681A687B691B6842F01D
:104ADC0001021A607B691B681A687B691B6842F4C7
:104AEC0080621A607B6900221A637B69282283F832
:104AFC003D2007E07B69202283F83D207B69002262
:104B0C0083F83E207869FEF745FD00BF1837BD4697
:104B1C0080BD00BF4400002089B5F81480B584B076
:104B2C0000AFF860B9603B601346FB7148E03B682E
:104B3C00B3F1FF3F44D0FDF709FA0246BB69D31A23
:104B4C003A689A4202D33B68002B39D1BB681B0CE4
:104B5C00DBB2012B0DD1FB681B685B69DA43BB68C8
:104B6C0013409BB2002B0CBF01230023DBB21A466F
:104B7C000CE0FB681B689B69DA43BB6813409BB273
:104B8C00002B0CBF01230023DBB21A46FB799A429F
:104B9C0016D1FB6800221A63FB68202283F83D20A3
:104BAC00FB68002283F83E20FB681B6C43F020025C
:104BBC00FB681A64FB68002283F83C20012323E085
:104BCC00BB681B0CDBB2012B0DD1FB681B685B694E
:104BDC00DA43BB6813409BB2002B0CBF01230023AC
:104BEC00DBB21A460CE0FB681B689B69DA43BB68B6
:104BFC0013409BB2002B0CBF01230023DBB21A46DF
:104C0C00FB799A4293D0002318461037BD4680BDDD
:104C1C0080B584B000AFF860B9607A603B6071E039
:104C2C00FB681B685B6903F48063B3F5806F23D169
:104C3C00FB681B681A68FB681B6842F400721A60F8
:104C4C00FB681B686FF480625A61FB6800221A6370
:104C5C00FB68202283F83D20FB68002283F83E206D
:104C6C00FB681B6C43F00402FB681A64FB680022AF
:104C7C0083F83C20012367E07B68B3F1FF3F41D010
:104C8C00FDF764F902463B68D31A7A689A4202D35C
:104C9C007B68002B36D1BB681B0CDBB2012B0CD113
:104CAC00FB681B685B69DA43BB6813409BB2002B43
:104CBC0014BF01230023DBB20BE0FB681B689B696C
:104CCC00DA43BB6813409BB2002B14BF01230023B3
:104CDC00DBB2002B16D0FB6800221A63FB68202283
:104CEC0083F83D20FB68002283F83E20FB681B6C98
:104CFC0043F02002FB681A64FB68002283F83C2016
:104D0C00012321E0BB681B0CDBB2012B0CD1FB682F
:104D1C001B685B69DA43BB6813409BB2002B14BF62
:104D2C0001230023DBB20BE0FB681B689B69DA43B1
:104D3C00BB6813409BB2002B14BF01230023DBB2D2
:104D4C00002B7FF46DAF002318461037BD4680BD95
:104D5C0080B584B000AFF860B9607A6034E0F86870
:104D6C0000F0B8F80346002B01D0012334E0BB68F7
:104D7C00B3F1FF3F28D0FDF7E9F802467B68D31A60
:104D8C00BA689A4202D3BB68002B1DD1FB681B6822
:104D9C005B6903F08003802B16D0FB6800221A633A
:104DAC00FB68202283F83D20FB68002283F83E201C
:104DBC00FB681B6C43F02002FB681A64FB68002242
:104DCC0083F83C20012307E0FB681B685B6903F058
:104DDC008003802BC3D1002318461037BD4680BDFD
:104DEC0080B584B000AFF860B9607A6034E0F868E0
:104DFC0000F070F80346002B01D0012334E0BB68AF
:104E0C00B3F1FF3F28D0FDF7A1F802467B68D31A17
:104E1C00BA689A4202D3BB68002B1DD1FB681B6891
:104E2C005B6903F00403042B16D0FB6800221A63A1
:104E3C00FB68202283F83D20FB68002283F83E208B
:104E4C00FB681B6C43F02002FB681A64FB680022B1
:104E5C0083F83C20012307E0FB681B685B6903F0C7
:104E6C000403042BC3D1002318461037BD4680BD64
:104E7C0080B485B000AF78600023FB60134B1B68D7
:104E8C00DB08134AA2FB03231A0A13469B001344A4
:104E9C00FB60FB68013BFB60FB68002B07D17B6868
:104EAC001B6C43F020027B681A64012308E07B68CA
:104EBC001B681B6803F40073B3F5007FE9D0002373
:104ECC0018461437BD4680BC704700BF4400002014
:104EDC0089B5F81480B483B000AF78607B681B6828
:104EEC005B6903F48063B3F5806F1BD17B681B682F
:104EFC006FF480625A617B6800221A637B682022FF
:104F0C0083F83D207B68002283F83E207B681B6C75
:104F1C0043F004027B681A647B68002283F83C200F
:104F2C00012300E0002318460C37BD4680BC7047B7
:104F3C0080B483B000AF78607B68DB6AB3F52A0F6E
:104F4C0003D17B680122DA6207E07B68DB6AB3F18C
:104F5C002A4F02D17B680822DA6200BF0C37BD46AB
:104F6C0080BC704780B586B000AF78607B68002B42
:104F7C0001D101236CE27B681B6803F00103002B59
:104F8C0000F08780924B5B6803F00C03042B0CD071
:104F9C008F4B5B6803F00C03082B12D18C4B5B68B6
:104FAC0003F48033B3F5803F0BD1894B1B6803F4BA
:104FBC000033002B6CD07B685B68002B68D101231D
:104FCC0046E27B685B68B3F5803F06D1804B1B687B
:104FDC007F4A43F4803313602EE07B685B68002BC0
:104FEC000CD17B4B1B687A4A23F480331360784BCB
:104FFC001B68774A23F4802313601DE07B685B6891
:10500C00B3F5A02F0CD1724B1B68714A43F480236B
:10501C0013606F4B1B686E4A43F4803313600BE0D4
:10502C006B4B1B686A4A23F480331360684B1B6814
:10503C00674A23F4802313607B685B68002B13D0D2
:10504C00FCF784FF386108E0FCF780FF02463B69FF
:10505C00D31A642B01D90323FAE15D4B1B6803F4CB
:10506C000033002BF0D014E0FCF770FF386108E03F
:10507C00FCF76CFF02463B69D31A642B01D903235E
:10508C00E6E1534B1B6803F40033002BF0D100E036
:10509C0000BF7B681B6803F00203002B63D04C4BF2
:1050AC005B6803F00C03002B0BD0494B5B6803F0DF
:1050BC000C03082B1CD1464B5B6803F48033002B8C
:1050CC0016D1434B1B6803F00203002B05D07B6801
:1050DC001B69012B01D00123BAE13D4B1B6823F066
:1050EC00F8027B685B69DB00394913430B603AE0DB
:1050FC007B681B69002B20D0364B01221A60FCF711
:10510C0025FF386108E0FCF721FF02463B69D31A02
:10511C00022B01D903239BE12D4B1B6803F00203E7
:10512C00002BF0D02A4B1B6823F0F8027B685B69DC
:10513C00DB00274913430B6015E0264B00221A6055
:10514C00FCF704FF386108E0FCF700FF02463B69FE
:10515C00D31A022B01D903237AE11D4B1B6803F0F0
:10516C000203002BF0D17B681B6803F00803002BB3
:10517C003AD07B689B69002B19D0174B01221A601F
:10518C00FCF7E4FE386108E0FCF7E0FE02463B6900
:10519C00D31A022B01D903235AE10D4B5B6A03F09E
:1051AC000203002BF0D0012000F0B8FA1CE00A4BEF
:1051BC0000221A60FCF7CAFE38610FE0FCF7C6FE4D
:1051CC0002463B69D31A022B08D9032340E100BFE6
:1051DC000010024000004242800442429E4B5B6A37
:1051EC0003F00203002BE9D17B681B6803F0040376
:1051FC00002B00F0A6800023FB75974BDB6903F0B6
:10520C008053002B0DD1944BDB69934A43F08053B0
:10521C00D361914BDB6903F08053BB60BB68012306
:10522C00FB758E4B1B6803F48073002B18D18B4BD2
:10523C001B688A4A43F480731360FCF787FE38615D
:10524C0008E0FCF783FE02463B69D31A642B01D9B4
:10525C000323FDE0814B1B6803F48073002BF0D01B
:10526C007B68DB68012B06D17B4B1B6A7A4A43F0C7
:10527C00010313622DE07B68DB68002B0CD1764BAD
:10528C001B6A754A23F001031362734B1B6A724A43
:10529C0023F0040313621CE07B68DB68052B0CD144
:1052AC006D4B1B6A6C4A43F0040313626A4B1B6A16
:1052BC00694A43F0010313620BE0674B1B6A664AB1
:1052CC0023F001031362644B1B6A634A23F004034B
:1052DC0013627B68DB68002B15D0FCF737FE386156
:1052EC000AE0FCF733FE02463B69D31A41F28832DE
:1052FC00934201D90323ABE0574B1B6A03F0020323
:10530C00002BEED014E0FCF721FE38610AE0FCF72C
:10531C001DFE02463B69D31A41F28832934201D9F1
:10532C00032395E04C4B1B6A03F00203002BEED1D8
:10533C00FB7D012B05D1484BDB69474A23F0805399
:10534C00D3617B68DB69002B00F08180424B5B688A
:10535C0003F00C03082B61D07B68DB69022B46D170
:10536C003F4B00221A60FCF7F1FD386108E0FCF7B6
:10537C00EDFD02463B69D31A022B01D9032367E0EA
:10538C00354B1B6803F00073002BF0D17B681B6A54
:10539C00B3F5803F08D1304B5B6823F400327B6857
:1053AC009B682D4913434B602B4B5B6823F47412A1
:1053BC007B68196A7B685B6A0B43274913434B6014
:1053CC00274B01221A60FCF7C1FD386108E0FCF79D
:1053DC00BDFD02463B69D31A022B01D9032337E0EA
:1053EC001D4B1B6803F00073002BF0D02FE01C4BFF
:1053FC0000221A60FCF7AAFD386108E0FCF7A6FD54
:10540C0002463B69D31A022B01D9032320E0124B2D
:10541C001B6803F00073002BF0D118E07B68DB698C
:10542C00012B01D1012313E00B4B5B68FB60FB6884
:10543C0003F480327B681B6A9A4206D1FB6803F442
:10544C0070127B685B6A9A4201D0012300E0002352
:10545C0018461837BD4680BD001002400070004051
:10546C006000424280B584B000AF786039607B68E0
:10547C00002B01D10123D0E06A4B1B6803F007031A
:10548C003A689A4210D9674B1B6823F007026549AA
:10549C003B6813430B60634B1B6803F007033A68CC
:1054AC009A4201D00123B8E07B681B6803F0020329
:1054BC00002B20D07B681B6803F00403002B05D065
:1054CC00594B5B68584A43F4E06353607B681B6834
:1054DC0003F00803002B05D0534B5B68524A43F48E
:1054EC0060535360504B5B6823F0F0027B689B6801
:1054FC004D4913434B607B681B6803F00103002B81
:10550C0040D07B685B68012B07D1474B1B6803F4C9
:10551C000033002B15D101237FE07B685B68022BE5
:10552C0007D1414B1B6803F00073002B09D10123F9
:10553C0073E03D4B1B6803F00203002B01D10123E8
:10554C006BE0394B5B6823F003027B685B68364980
:10555C0013434B60FCF7FAFCF8600AE0FCF7F6FC2E
:10556C000246FB68D31A41F28832934201D90323D5
:10557C0053E02D4B5B6803F00C027B685B689B006F
:10558C009A42EBD1274B1B6803F007033A689A4207
:10559C0010D2244B1B6823F0070222493B681343AB
:1055AC000B60204B1B6803F007033A689A4201D04A
:1055BC00012332E07B681B6803F00403002B08D046
:1055CC00194B5B6823F4E0627B68DB681649134374
:1055DC004B607B681B6803F00803002B09D0124B4F
:1055EC005B6823F460527B681B69DB000E49134334
:1055FC004B6000F021F802460B4B5B681B0903F073
:10560C000F030A49CB5C22FA03F3094A1360094BD6
:10561C001B681846FCF758FC002318461037BD468B
:10562C0080BD00BF0020024000100240FC6A000850
:10563C00440000204800002080B487B000AF002355
:10564C00FB600023BB6000237B6100237B60002395
:10565C003B611E4B5B68FB60FB6803F00C03042B87
:10566C0002D0082B03D027E0194B3B6127E0FB68E5
:10567C009B0C03F00F03174AD35C7B60FB6803F4AD
:10568C008033002B10D0114B5B685B0C03F00103D3
:10569C00114AD35CBB607B680D4A02FB03F2BB680A
:1056AC00B2FBF3F37B6104E07B680C4A02FB03F36F
:1056BC007B617B693B6102E0054B3B6100BF3B6951
:1056CC0018461C37BD4680BC704700BF0010024016
:1056DC0000127A00146B0008246B000800093D00CE
:1056EC0080B400AF024B1B681846BD4680BC7047A7
:1056FC004400002080B500AFFFF7F2FF0246054BD7
:10570C005B681B0A03F007030349CB5C22FA03F323
:10571C00184680BD001002400C6B000880B485B0A8
:10572C0000AF78600A4B1B680A4AA2FB03235B0A92
:10573C007A6802FB03F3FB6000BFFB685A1EFA6039
:10574C00002BF9D100BF00BF1437BD4680BC704799
:10575C0044000020D34D621080B586B000AF786055
:10576C0000233B610023FB607B681B6803F0010393
:10577C00002B7DD00023FB754F4BDB6903F080536E
:10578C00002B0DD14C4BDB694B4A43F08053D3615A
:10579C00494BDB6903F08053BB60BB680123FB758D
:1057AC00464B1B6803F48073002B18D1434B1B68CA
:1057BC00424A43F480731360FCF7C8FB386108E07D
:1057CC00FCF7C4FB02463B69D31A642B01D90323B3
:1057DC006DE03A4B1B6803F48073002BF0D0364B12
:1057EC001B6A03F44073FB60FB68002B2ED07B68B4
:1057FC005B6803F44073FA689A4227D02E4B1B6AFD
:10580C0023F44073FB602E4B01221A602C4B0022B8
:10581C001A60294AFB681362FB6803F00103002B32
:10582C0014D0FCF793FB38610AE0FCF78FFB0246BF
:10583C003B69D31A41F28832934201D9032336E0F3
:10584C001D4B1B6A03F00203002BEED01A4B1B6A94
:10585C0023F440727B685B68174913430B62FB7D32
:10586C00012B05D1144BDB69134A23F08053D36110
:10587C007B681B6803F00203002B08D00E4B5B689F
:10588C0023F440427B689B680B4913434B607B6855
:10589C001B6803F01003002B08D0074B5B6823F444
:1058AC0080027B68DB68044913434B600023184675
:1058BC001837BD4680BD00BF00100240007000408C
:1058CC004004424280B582B000AF78607B68002B08
:1058DC0001D1012341E07B6893F83D30DBB2002B12
:1058EC0006D17B68002283F83C207868FCF700FA2C
:1058FC007B68022283F83D207B681A687B6804333E
:10590C001946104600F012FA7B68012283F84620F3
:10591C007B68012283F83E207B68012283F83F20BC
:10592C007B68012283F840207B68012283F84120A8
:10593C007B68012283F842207B68012283F8432094
:10594C007B68012283F844207B68012283F8452080
:10595C007B68012283F83D20002318460837BD469A
:10596C0080BD80B584B000AF78607B681B68DB6855
:10597C00FB607B681B681B69BB60BB6803F00203A0
:10598C00002B20D0FB6803F00203002B1BD07B689C
:10599C001B686FF002021A617B6801221A777B6820
:1059AC001B689B6903F00303002B03D0786800F09D
:1059BC00A1F905E0786800F094F9786800F0A3F993
:1059CC007B6800221A77BB6803F00403002B20D0FD
:1059DC00FB6803F00403002B1BD07B681B686FF083
:1059EC0004021A617B6802221A777B681B689B6928
:1059FC0003F44073002B03D0786800F07BF905E0CA
:105A0C00786800F06EF9786800F07DF97B68002208
:105A1C001A77BB6803F00803002B20D0FB6803F057
:105A2C000803002B1BD07B681B686FF008021A61FF
:105A3C007B6804221A777B681B68DB6903F003031D
:105A4C00002B03D0786800F055F905E0786800F079
:105A5C0048F9786800F057F97B6800221A77BB6820
:105A6C0003F01003002B20D0FB6803F01003002B75
:105A7C001BD07B681B686FF010021A617B680822D0
:105A8C001A777B681B68DB6903F44073002B03D027
:105A9C00786800F02FF905E0786800F022F9786852
:105AAC0000F031F97B6800221A77BB6803F0010320
:105ABC00002B0CD0FB6803F00103002B07D07B6894
:105ACC001B686FF001021A61786800F001F9BB687D
