:020000040800F2
:1000000000500020D1250008112400081724000802
:100010001D240008232400082924000800000000F3
:100020000000000000000000000000002F24000875
:100030003B24000800000000472400085324000867
:100040001926000819260008192600081926000894
:100050001926000819260008192600081926000884
:100060001926000819260008192600081926000874
:100070001926000819260008192600081926000864
:10008000192600081926000861240008192600080E
:100090001926000819260008192600081926000844
:1000A0001926000819260008192600081926000834
:1000B000752400081926000819260008892400085C
:1000C0009D24000819260008192600081926000892
:1000D0001926000819260008192600081926000804
:1000E000192600081926000819260008000000003B
:1000F0000000000000000000000000000000000000
:0C01000000000000000000005FF808F1A3
:10010C0010B5054C237833B9044B13B10448AFF345
:10011C0000800123237010BDA0000020000000000F
:10012C00D476000808B5034B1BB103490348AFF361
:10013C00008008BD00000000A4000020D476000858
:10014C0010F8012B11F8013B012A28BF9A42F7D075
:10015C00D01A7047034613F8012B002AFBD1181A4A
:10016C000138704780B500AF2D4B00221A702D4B13
:10017C0000221A702C4B00221A702C4B00221A7081
:10018C002A4B00225A70294B00229A70274B0022CE
:10019C00DA70274B00221A70254B00225A70254B1F
:1001AC0000221A70234B00225A70224B00229A70A4
:1001BC00204B0022DA70102220211F4806F014FE7A
:1001CC001C4B00221A75102220211C4806F00CFE34
:1001DC00184B002283F82520194B00221A60184B6B
:1001EC0000221A71164B00229A60154B0022DA601D
:1001FC00144B01221A70144B31221A70124B3222FA
:10020C005A70114B33229A700F4B3422DA700E4B0A
:10021C0000221A710D4B00221A7000BF80BD00BF66
:10022C00BC000020BD000020BE000020C00000204B
:10023C00C400002000000020040000201500002055
:10024C00C8000020D8000020B80100207801002050
:10025C0080B586B002AF78600B46FB70FB7823F05C
:10026C000F03FB73FB781B01BB73FB7B43F00C038D
:10027C00DBB23B72FB7B43F00803DBB27B72BB7BD4
:10028C0043F00C03DBB2BB72BB7B43F00803DBB265
:10029C00FB727B6818687B681B7999B207F10802BE
:1002AC0064230093042303F00BFC00BF1037BD46FE
:1002BC0080BD80B586B002AF78600B46FB70FB78D2
:1002CC0023F00F03FB73FB781B01BB73FB7B43F029
:1002DC000D03DBB23B72FB7B43F00903DBB27B7299
:1002EC00BB7B43F00D03DBB2BB72BB7B43F009035A
:1002FC00DBB2FB727B6818687B681B7999B207F1DB
:10030C00080264230093042303F0DAFB00BF1037C8
:10031C00BD4680BD80B582B000AF786001217868A1
:10032C00FFF796FF022002F0D5F900BF0837BD4653
:10033C0080BD80B586B000AFF860B9607A607B682C
:10034C00002B03D07B68012B05D00EE0BB68DBB221
:10035C00803BFB7504E0BB68DBB2403BFB7500BF28
:10036C00FB7D1946F868FFF773FF1837BD4680BD53
:10037C0080B582B000AF7860322002F0ABF930214A
:10038C007868FFF765FF052002F0A4F93021786842
:10039C00FFF75EFF012002F09DF930217868FFF72E
:1003AC0057FF0A2002F096F920217868FFF750FFDA
:1003BC000A2002F08FF928217868FFF749FF012005
:1003CC0002F088F908217868FFF742FF012002F05B
:1003DC0081F901217868FFF73BFF022002F07AF9DE
:1003EC0006217868FFF734FF012002F073F90C2125
:1003FC007868FFF72DFF00BF0837BD4680BD80B57C
:10040C0082B000AF7860396007E03B685A1C3A60F4
:10041C001B7819467868FFF74CFF3B681B78002B5C
:10042C00F3D100BF00BF0837BD4680BD80B582B098
:10043C0000AF124802F04AFA0346002B16D10A21EB
:10044C000E4802F01DFB0346002B0FD10B4802F0A7
:10045C001DFC0346FB80FB88B3F57A7F03D2084B67
:10046C000122DA7002E0064B0022DA70034802F037
:10047C00DBFA00BF0837BD4680BD00BF6802002014
:10048C00C000002080B400AF0C4B00221A700B4B44
:10049C0000225A70094B00229A70084B0022DA7025
:1004AC00074B00221A70064B00225A70054B002293
:1004BC001A8000BFBD4680BC704700BFC000002042
:1004CC00C4000020DA00002080B582B000AF484B99
:1004DC001B78FB71FFF7AAFF002000F01BF9034605
:1004EC00BB71012000F016F903467B71022000F06D
:1004FC002BF903463B71232000F0ECFA0346002B4A
:10050C000AD03C4B1B88632B09D83A4B1B88013310
:10051C009AB2384B1A8002E0364B00221A8000F057
:10052C00FDFA0346FB70FB78002B1BD0FB79032BE9
:10053C0018D0FB790A2B15D0FB790B2B12D0FB783A
:10054C00232B0BD1FB79142B08D12A4B1B88632B43
:10055C0004D9FB78184601F009FE03E0FB78184635
:10056C0001F0F2FDBB79012B06D1234B1B78002B3C
:10057C0002D101F031FE08E0BB79002B05D11E4BF6
:10058C001B78012B01D101F01BFE7B79012B05D1CE
:10059C00194B5B78002B01D101F006FE3B79012B46
:1005AC0005D1154B9B78002B01D101F0F1FD124ABE
:1005BC00BB791370104A7B7953700F4A3B79937057
:1005CC00FB79013B192B8CBF01220022D2B2002AED
:1005DC0009D101229A40094B1340002B14BF01236F
:1005EC000023DBB2002B00BF00BF0837BD4680BD27
:1005FC00D8000020DA000020C00000201F06F803FD
:10060C0080B582B000AF78607B68022B17D07B6816
:10061C00022B1BDC7B68002B03D07B68012B07D0E3
:10062C0014E04FF400510C4803F0C2F803460EE0FE
:10063C004FF48041084803F0BBF8034607E04FF441
:10064C000041054803F0B4F8034600E001231846C6
:10065C000837BD4680BD00BF0010014090B583B087
:10066C0000AF0023FB7142E0FA79FB792449895CE5
:10067C00244AD154FB79FC791846FFF7C1FF034695
:10068C001A461F4B1A55FB791D4AD25CFB791D4942
:10069C00CB5C9A4228D1FA79FB791949895C1A4AC0
:1006AC00D154FB79184AD35C002B14D1FB79174A2F
:1006BC0032F81330632B09D8FB79144A32F8132023
:1006CC00013291B2114A22F813100DE0FB79104A55
:1006DC000121D15408E0FB790C4A002122F81310B7
:1006EC00FB790B4A0021D154FB790133FB71FB7967
:1006FC00022BB9D900BF00BF0C37BD4690BD00BF5F
:10070C00E0000020E4000020DC000020EC000020D1
:10071C00E800002080B483B000AF78607B68022BC7
:10072C0001D9002308E0074A7B6813441B78002B8F
:10073C000CBF01230023DBB218460C37BD4680BC2E
:10074C00704700BFDC00002080B483B000AF78603D
:10075C007B68022B01D9002308E0074A7B6813440D
:10076C001B78012B0CBF01230023DBB218460C377E
:10077C00BD4680BC704700BFE800002080B483B049
:10078C0000AF03460A46FB711346BB71FB791A4650
:10079C0052001344DAB2BB791344DBB218460C375F
:1007AC00BD4680BC7047000080B485B000AFF860D7
:1007BC00B9603B601346FB80FB68BA689A61FB68C2
:1007CC00FA889A84FB683A68DA61FB683A8BDA84B7
:1007DC00FB68FA691A62FB683A8C1A85FB687A6ABC
:1007EC001A60FB683A8D1A82FB68FA6A5A60FB68D9
:1007FC003A8E5A82FB687A6B9A60FB683A8F9A82BF
:10080C00FB68FA6BDA60FB68B7F84020DA820A4BB7
:10081C00FF221A70094B00221A70094B00221A8011
:10082C00084B00221A70084B00221A7000BF1437B4
:10083C00BD4680BC704700BF2C000020300100205A
:10084C003201002034010020BC00002090B585B09E
:10085C0000AF7860FF23FB730023BB737FE00023A2
:10086C007B7317E07A7B7B68063253F822007B7B24
:10087C007A6810335B00134499887A7BBB7B9A426D
:10088C0014BF01230023DBB21A4602F0A8FF7B7BC6
:10089C0001337B737B7B022BE4D900233B7358E041
:1008AC00BA7B3B7B11461846FFF768FF0346BB72C9
:1008BC00BA7ABB7A7949895C794AD154BA7ABB7ACB
:1008CC007849895C754AD1543A7B7B6853F822008D
:1008DC003A7B7B68083233F81230BC7A194602F046
:1008EC0067FF03461A466F4B1A55BB7A6C4AD25CAB
:1008FC00BB7A6A49CB5C9A4228D1BB7A674AD25CF4
:10090C00BB7A6849CB5C9A4220D1BB7A654AD35CEE
:10091C00002B0CBF01230023DAB2BB7A1146624ACA
:10092C00D154BB7A614AD25CBB7A5E49CB5C9A42A9
:10093C000CD0BA7ABB7A5B49895C5C4AD154BB7ADD
:10094C00584AD35C002B01D1BB7AFB733B7B013340
:10095C003B733B7B032BA3D9BB7B0133BB73BB7BAF
:10096C00022B7FF67CAF0023FB7211E0FA7A7B68D6
:10097C00063253F82200FB7A7A6810335B0013447A
:10098C009B880122194602F02AFFFB7A0133FB7285
:10099C00FB7A022BEAD9464B1B88002B30D0444BF8
:1009AC001B88013B9AB2424B1A80414B1B88002B8F
:1009BC0026D1404B93F90030002B21DB3E4B1B78AA
:1009CC00012B06D13B4B93F900301A463B4B9B5CF9
:1009DC0005E0384B93F900301A46394B9B5C394A89
:1009EC001370394B01221A70324BFF221A70324BA2
:1009FC0000221A70354B00221A70354B00221A70E7
:100A0C00FB7BFF2B46D0FB7B2A4A92F900209342BA
:100A1C0012D1294B02221A70254B23221A80254B06
:100A2C0093F900301A46264B9A5C284B1A70274BC8
:100A3C001A78274B1A702DE01E4B93F90030002BBF
:100A4C0015DB1D4B1B78012B06D11A4B93F900308B
:100A5C001A461A4B9B5C05E0164B93F900301A466C
:100A6C00174B9B5C174A1370174B01221A7097F99E
:100A7C000F20104B1A70104B01221A70FB7B0F4A7F
:100A8C00D25C124B1A70114B1A78114B1A70084B1E
:100A9C0023221A8000BF1437BD4690BD00010020F0
:100AAC00F40000200C01002024010020180100207B
:100ABC00320100202C000020300100208478000836
:100ACC0090780008BD000020BC00002034010020FC
:100ADC00BE00002080B485B000AF0346FB7100233C
:100AEC00FB600EE00B4AFB6813441B78FA799A42C0
:100AFC0004D1094AFB6813441B7806E0FB680133F8
:100B0C00FB60FB680B2BEDDD002318461437BD464C
:100B1C0080BC7047847800082401002080B400AFAA
:100B2C00074B1B78002B05D0054B00221A70054B88
:100B3C001B7800E000231846BD4680BC704700BF00
:100B4C00BC000020BD00002080B485B000AF7860F0
:100B5C0039600023FB813B6800221A800123BB8192
:100B6C002CE0BB897A6813441A78FB8979680B44AA
:100B7C001B789A420CD1FB890133FB81BB895B004A
:100B8C003A681344FA891A80BB890133BB8115E09A
:100B9C00FB89002B09D0FB8903F10043013B5B006F
:100BAC003A6813441B88FB8108E0BB895B003A68F8
:100BBC00134400221A80BB890133BB81BB89032BF0
:100BCC00CFD900BF00BF1437BD4680BC70470000B2
:100BDC0080B586B000AF78600B467B807B88032B9A
:100BEC0001D8002340E007F10C0319462048FFF719
:100BFC00ABFF0023FB820023BB8230E0BB8A1C4A84
:100C0C00D25CFB8A79680B441B789A4205D1FB8A2B
:100C1C000133FB82BB8A0133BB82BB8A042B01D11B
:100C2C00012321E0FA8A7B889A4218D2BB8A104AA7
:100C3C00D25CFB8A79680B441B789A420FD0BB8A32
:100C4C00002B09D0BB8A013B5B0007F1180213444F
:100C5C0033F80C3CBB8202E0FB8A0133FB82FA8A3C
:100C6C007B889A42CAD3002318461837BD4680BDEC
:100C7C00B801002080B500AF0248FFF7E7FD00BFC8
:100C8C0080BD00BFC001002080B58CB00CAF01F05E
:100C9C00BFFC00F069F800F06FF900F0B5F800F057
:100CAC001FF900F0EFF8274B274A1A60254B4E220C
:100CBC001A712448FFF75CFB2248FFF72BFBFFF768
:100CCC0051FA00F0CBFC10230A93204B0993082314
:100CDC0008931E4B0793042306931C4B0593022386
:100CEC0004931A4B039380230293184B01934023D4
:100CFC000093164B202215491548FFF755FDFFF7B9
:100D0C00C1FB00F069FC00F0E3FE0A22002111484F
:100D1C0000F0C2FC0A2200210F4800F0BDFC0A22A0
:100D2C0001210E4800F0B8FC0A2202210C4800F008
:100D3C00B3FC142203210B4800F0AEFC00F096FD2E
:100D4C00FCE700BF700100201402002000080140E5
:100D5C00C0010020810C000869060008D5040008B9
:100D6C002D1B00084D16000880B594B000AF07F19C
:100D7C00280328220021184606F036F807F1140340
:100D8C0000221A605A609A60DA601A613B1D0022D8
:100D9C001A605A609A60DA600223BB620123BB635B
:100DAC001023FB6300237B6407F12803184604F02F
:100DBC00D9FE0346002B01D000F064F90F237B61B0
:100DCC000023BB610023FB6100233B6200237B6299
:100DDC0007F114030021184605F044F90346002BD3
:100DEC0001D000F04FF902237B600023FB603B1D18
:100DFC00184605F0C5FA0346002B01D000F042F965
:100E0C0000BF5037BD4680BD80B584B000AF3B1DE0
:100E1C0000221A605A609A60184B194A1A60174BD4
:100E2C0000229A60154B00221A73144B00221A757B
:100E3C00124B4FF46022DA61104B00225A600F4BB8
:100E4C0001221A610D4801F069FC0346002B01D008
:100E5C0000F018F900237B600123BB600023FB60CA
:100E6C003B1D1946054801F0EFFF0346002B01D04E
:100E7C0000F008F900BF1037BD4680BD68020020A5
:100E8C000024014080B500AF124B134A1A60114B7D
:100E9C00124A5A600F4B00229A600E4B0022DA6005
:100EAC000C4B4FF480421A610A4B00225A61094BD9
:100EBC0000229A61074B0022DA61064B00221A626B
:100ECC00044802F0A5FC0346002B01D000F0DAF830
:100EDC0000BF80BD1402002000540040A086010019
:100EEC0080B586B000AF07F1080300221A605A6083
:100EFC009A60DA603B4600221A605A601D4B4FF034
:100F0C0080421A601B4B09225A601A4B00229A60CD
:100F1C00184B41F63F72DA60164B00221A61154BE2
:100F2C0000229A61134805F097FB0346002B01D071
:100F3C0000F0A8F84FF48053BB6007F10803194682
:100F4C000C4805F0C8FC0346002B01D000F09AF8C1
:100F5C0000233B6000237B603B461946054805F0A7
:100F6C00A9FE0346002B01D000F08CF800BF183707
:100F7C00BD4680BD9802002080B588B000AF07F157
:100F8C00100300221A605A609A60DA60334B9B6936
:100F9C00324A43F010039361304B9B6903F010030A
:100FAC00FB60FB682D4B9B692C4A43F00403936157
:100FBC002A4B9B6903F00403BB60BB68274B9B69FE
:100FCC00264A43F008039361244B9B6903F0080302
:100FDC007B607B6800221E21214802F000FC00226D
:100FEC001B21204802F0FBFB4FF460433B610023C4
:100FFC007B610123BB6107F1100319461A4802F00B
:10100C0053FA1E233B6101237B610123BB61022345
:10101C00FB6107F110031946114802F045FAE02371
:10102C003B6100237B610123BB6107F1100319466F
:10103C000B4802F039FA1B233B6101237B6100232F
:10104C00BB610223FB6107F110031946054802F04E
:10105C002BFA00BF2037BD4680BD00BF00100240F8
:10106C0000080140000C01400010014080B582B026
:10107C0000AF786000F0B6FB01F074FA00BF0837DF
:10108C00BD4680BD80B400AF72B600BFFEE780B530
:10109C0084B000AF786039603868FFF75BF8F860AF
:1010AC00FB680F2B04D8FB68C3F110035B0800E04E
:1010BC000023BB6010222021786805F095FE7A6829
:1010CC00BB681344FA683968184605F0D1FE7B6892
:1010DC00103300221A7000BF1037BD4680BD0000CF
:1010EC0080B500AF0C4B1B78002B14BF01230023E1
:1010FC00DBB21A460821094802F071FB064B5B78FB
:10110C00002B14BF01230023DBB21A461021034825
:10111C0002F065FB00BF80BD00000020000C014008
:10112C0080B500AF064B9B78002B14BF0123002326
:10113C00DBB21A460221034802F051FB00BF80BD0E
:10114C0000000020000C014080B500AF064BDB789E
:10115C00002B14BF01230023DBB21A4601210348E4
:10116C0002F03DFB00BF80BD00000020000C0140E0
:10117C0080B500AF14491548FEF7E2FF0346002B7B
:10118C000CD0002200211248FFF7D3F80F49104869
:10119C00FFF735F90D490C4805F062FE0D490E4874
:1011AC00FEF7CEFF0346002B0CD00122002108488D
:1011BC00FFF7BFF808490648FFF721F9064905482B
:1011CC0005F04EFE00BF80BD380100200400002059
:1011DC00700100204C01002015000020B0B58EB02D
:1011EC0002AF01F06DFAF862AA4B0022DA70A94B3B
:1011FC0000221A70A74B00225A70A64B00229A703C
:10120C00A54B1B78013B192B00F2C68101A252F8A9
:10121C0023F000BF89120008A1120008BF120008B9
:10122C00DD12000833130008A5150008A5150008E9
:10123C00A5150008A515000851130008E9130008AE
:10124C00A5150008A5150008A5150008A51500088A
:10125C00A5150008A5150008A5150008A51500087A
:10126C000D1400085F140008691500087D140008AF
:10127C00111500082B1400088715000887498848A9
:10128C00FFF705FF85498748FFF701FF814B0022D7
:10129C009A7084E17F4B01225A7083498048FFF792
:1012AC00F6FE82497F48FFF7F2FE7A4B00229A70D5
:1012BC0075E1784B01225A707D497948FFF7E7FEBA
:1012CC007C497848FFF7E3FE724B00229A7066E186
:1012DC00704B01225A706F4B774A1D1D14460FCC70
:1012EC0028606960AA60EB6023782B747348FEF762
:1012FC0031FF03467B613B4610222021184605F046
:10130C0073FD3B4608337A692A21184605F06CFDBB
:10131C0000233B743B461946624805F0A1FD5D4B2A
:10132C0000229A703BE15B4B01225A7064495C4885
:10133C00FFF7ADFE63495B48FFF7A9FE554B002252
:10134C009A702CE1534B01225A70524B0122DA70E5
:10135C00504B00229A705C495148FFF798FE5B4B4A
:10136C009B68002B00F01A81584B9B68B3F1FF3F30
:10137C0000F01481554B9A68FB6AD31A7B627B6A26
:10138C00002B26DD7B6A524A82FB03129211DB177B
:10139C00D31A3B623B6A4F4AA2FB03235B09FB61F6
:1013AC003A6A4C4BA3FB021359090B461B015B1AFF
:1013BC009B00D31ABB613846BB690093FB69464A54
:1013CC00112105F019FD3B4619463648FFF75FFE23
:1013DC00E4E042493348FFF75AFEDFE02D4B01228F
:1013EC005A702C4B0122DA702A4B00229A703C491D
:1013FC002B48FFF74CFE3B492A48FFF748FECEE04E
:10140C00244B01229A70234B01221A70364924482E
:10141C00FFF73DFE35492348FFF739FEBFE01D4B72
:10142C0001229A701B4B01221A701D4A304B144634
:10143C0007CB20606160A2601B88A3813B461F49DB
:10144C001846FFF724FE3B461946164805F008FDE2
:10145C00A5E0104B01229A700E4B01221A702549FF
:10146C000F48FFF714FE24490E48FFF710FE96E0D4
:10147C00084B01229A70074B01221A70054B01226E
:10148C00DA701E490648FFF702FE1D490548FFF7B2
:10149C00FEFD84E000000020D8000020EC7600085F
:1014AC000400002015000020F076000800770008EA
:1014BC00147700081C7700082C77000878010020AE
:1014CC00407700084C77000850770008C8000020CF
:1014DC00D34D621089888888607700087877000877
:1014EC008477000894770008A4770008B877000880
:1014FC00CC770008DC770008E8770008F87700085C
:10150C0008780008284B01229A70274B01221A7088
:10151C0026492748FFF7BBFD264BDB68002B18DD5F
:10152C00244BDB68244A126802FB03F3234A82FB38
:10153C0003129211DB17D31ABB623846BB6A204ADE
:10154C00112105F059FC3B4619461E48FFF79FFD3B
:10155C0025E01D491B48FFF79AFD20E0124B0122A4
:10156C009A70114B01221A7018491148FFF78FFD20
:10157C0017491448FFF78BFD11E00B4B00229A70B2
:10158C00094B01225A7010490948FFF780FD114997
:10159C000C48FFF77CFD02E000BF00E000BF00BF7D
:1015AC003037BD46B0BD00BF000000201C780008DD
:1015BC00040000209001002028000020D34D621070
:1015CC0028780008150000203C78000850780008A6
:1015DC005C7800084C77000898B500AF0022082111
:1015EC00124802F0FCF800221021104802F0F7F823
:1015FC00002201210D4802F0F2F8002202210B48D2
:10160C0002F0EDF80A4A0B4B144607CB20606160E0
:10161C00A2601A889B78A281A373074A074B1B8888
:10162C001380FFF7A5FD00BF98BD00BF000C014063
:10163C00040000207478000815000020EC760008E7
:10164C0080B500AFFFF7CAFDFFF74AFDFFF77CFD41
:10165C00FFF78EFDFFF764FD00BF80BD80B582B043
:10166C0000AF0023FB7106E0FB79184600F030F95F
:10167C00FB790133FB71FB79272BF5D9044B002245
:10168C001A70044B00221A7000BF0837BD4680BD8B
:10169C005D0100205E010020B0B487B000AFF8609F
:1016AC00B9607A604C4B1B78272B04D94B4B012229
:1016BC001A7028238BE00023FB750EE0FA7D484955
:1016CC0013469B0013449B000B4404331B68BA68FD
:1016DC00D31ABB60FB7D0133FB753F4B1B78FA7D46
:1016EC009A420BD2FA7D3E4913469B0013449B0051
:1016FC000B4404331B68BA689A42DFD2364B1B7812
:10170C00BB7517E0BB7D5A1EB97D35480B469B0057
:10171C000B449B001844324913469B0013449B0016
:10172C000B4404461D460FCD0FC42B682360BB7DB4
:10173C00013BBB75BA7DFB7D9A42E3D8FA7D284903
:10174C0013469B0013449B000B44FA681A60FA7D05
:10175C00234913469B0013449B000B440433BA6883
:10176C001A60FA7D1E4913469B0013449B000B44E0
:10177C0008337A681A60FA7D194913469B001344A2
:10178C009B000B440C3300221A70134B1B78FA7D10
:10179C009A4215D2FB7D5A1C114913469B001344E7
:1017AC009B000B4404331968FB7D5A1CBB68C91A97
:1017BC000B4813469B0013449B00034404331960ED
:1017CC00054B1B780133DAB2034B1A70FB7D1846BC
:1017DC001C37BD46B0BC70475D0100205E01002087
:1017EC00E002002080B483B000AF1E4B1B78002BAE
:1017FC0033D01D4B5B68002B04D01B4B5B68013B4B
:10180C00194A53600023FB7116E0FA791649134606
:10181C009B0013449B000B440C331B780133D8B250
:10182C00114913469B0013449B000B440C33024696
:10183C001A70FB790133FB710A4B1B78FA799A42C7
:10184C000CD2FA79084913469B0013449B000B44B5
:10185C0004331B68002BD8D000E000BF0C37BD460A
:10186C0080BC70475D010020E0020020B0B586B05E
:10187C0000AF154B1B78002B22D0144B1B7B002B7D
:10188C001FD0124B1B687B61104B1B7B013BDAB2E8
:10189C000E4B1A737B6998470C4B3C461D460FCD7B
:1018AC000FC42B682360002000F012F8BB68002BDB
:1018BC0007D03B68B968BA681846FFF7EDFE00E040
:1018CC0000BF1837BD46B0BD5D010020E00200200E
:1018DC00B0B485B000AF0346FB71314B1B78FA797D
:1018EC009A4201D3012356E0FB79FB7317E0FB7B93
:1018FC005A1CF97B2B480B469B000B449B0018444D
:10190C00284913469B0013449B000B4404461D4678
:10191C000FCD0FC42B682360FB7B0133FB73FA7B69
:10192C001F4B1B78013B9A42E1DB1D4B1B785A1E67
:10193C001C4913469B0013449B000B4400221A6065
:10194C00174B1B785A1E174913469B0013449B00D8
:10195C000B44043300221A60114B1B785A1E114998
:10196C0013469B0013449B000B44083300221A605F
:10197C000B4B1B785A1E0B4913469B0013449B00C0
:10198C000B440C3300221A70054B1B78013BDAB266
:10199C00034B1A70002318461437BD46B0BC704771
:1019AC005D010020E002002080B584B000AF03464A
:1019BC00FB71FB79002B25D00422FB79934202D8D2
:1019CC00FB79013B01E00423013B104A52F8233020
:1019DC00FB60FB684EF6602202FB03F3BB600C4A13
:1019EC00FB79137100F06CFE0246BB681344084A85
:1019FC009360084B0122DA7042F21071002000F063
:101A0C008DFD00E000BF1037BD4680BD9C780008FE
:101A1C00C80000200000002080B400AF044B00225E
:101A2C001A80044B00221A7000BFBD4680BC704760
:101A3C00600100207801002080B483B000AF034621
:101A4C00FB71FB792F2B02D9FB79392B05D9FB794B
:101A5C00402B16D9FB79462B13D80C4B1B88132B18
:101A6C000FD80A4B1B885A1C91B2084A1180194690
:101A7C00074AFB795354054B1B881A46044B00212B
:101A8C00995400BF0C37BD4680BC704760010020E4
:101A9C007801002080B582B000AF0B4B1B887B60B7
:101AAC007B68032B02D97B68142B01D9002306E039
:101ABC007B689BB219460548FFF78AF8034618461F
:101ACC000837BD4680BD00BF6001002078010020B2
:101ADC0080B500AF0F4B01221A700F4B00221A6019
:101AEC000D4B00221A710C4B00229A600A4B0022FB
:101AFC00DA600A4B00229A70084B00225A70074B8E
:101B0C0000221A70054B0022DA70FFF785FF00BF28
:101B1C0080BD00BFD8000020C800002000000020BD
:101B2C0080B584B000AF00F0CBFDB860AB4B1B6848
:101B3C00012B05D1AA4B0022DA70A84B00221A60A7
:101B4C00A84B1B780A2B1CD1A74B9B68002B18D0D9
:101B5C00A54B9B68B3F1FF3F13D0A34B9A68BB68AE
:101B6C00D31A002B0DDCA04B00229A609D4B042253
:101B7C001A70FFF751FF47F23051022000F0CEFCF3
:101B8C00D8E29A4B1B78FB71984B5B78BB71974BE7
:101B9C0000221A70954B00225A70954B5B78002BE3
:101BAC001AD0904B1B78052B07D98E4B1B780A2B20
:101BBC0003D08C4B1B780B2B0ED18A4B14221A7032
:101BCC0042F21071032000F0A9FC874B00229A60AE
:101BDC00854B00221A60ADE2854B9B78002B1ED002
:101BEC00804B1B78152B03D07E4B1B78182B06D102
:101BFC007C4B16221A707E4B00229A709AE2794B1B
:101C0C001B78162B0BD1774B18221A7042F21071DD
:101C1C00032000F083FC764B00229A708AE2714B11
:101C2C001B78013B192B00F2748201A252F823F0AD
:101C3C00A51C0008BF1C0008FB1C00082D1D00087B
:101C4C00A11D00081F2100081F2100081F210008EA
:101C5C001F2100089D1E0008B11E00081F2100084E
:101C6C001F2100081F2100081F2100081F21000848
:101C7C001F2100081F2100081F210008C51E000895
:101C8C00D11F0008C12000082D2000088520000865
:101C9C00271F0008F1200008514B00229A70504B6E
:101CAC0000225A704E4B00221A704D4B0022DA70F3
:101CBC0040E24B4B00229A70494B01225A704C4B1C
:101CCC00DB78002B08D0474B03221A7040F6B83152
:101CDC00012000F023FC2DE2424B04221A70FFF786
:101CEC009BFE47F23051022000F018FC22E23C4BE4
:101CFC0000229A703A4B01225A70384B5B68012BC8
:101D0C0040F00B82354B00225A60364B04221A707D
:101D1C00FFF782FE47F23051022000F0FFFBFCE19E
:101D2C002F4B00229A702E4B01225A702B4B9B6822
:101D3C00012B06D1294B00229A602A4B1A221A70C9
:101D4C00EDE1FB79232B03D1264B05221A70E6E13A
:101D5C00FB79002B00F0E381FB792A2B10D1254B6A
:101D6C001B88002B10D0234B1B88013B9AB2214BB4
:101D7C001A80204B1B881A461F4B0021995403E0F4
:101D8C00FB791846FFF758FE47F23051022000F05D
:101D9C00C5FBC4E1174B1B88032B03D9154B1B88C0
:101DAC00142B0AD940F6B831012000F0B7FB0D4BCB
:101DBC0003221A70FFF730FEBCE1FFF76BFE0346FF
:101DCC00002B1BD0074B14221A7042F21071032007
:101DDC0000F0A4FB044B00221A60ABE1EC010020E4
:101DEC0000000020D8000020C8000020C400002003
:101DFC00C00000206001002078010020B14B1B685E
:101E0C000133B04A1360FFF707FEAE4B1968AE4BB7
:101E1C00A3FB01235A0813465B001344CA1A002A79
:101E2C002DD1A84B1B680E2B0FD9A84B0B221A7067
:101E3C00A44B4FF0FF329A60A54B0122DA7042F2AC
:101E4C001071002000F06AFB74E19E4B1B689E4AE7
:101E5C00A2FB03235B08FB73FB7B002B01D101234B
:101E6C00FB730422FB7B934201D90423FB73FB7BA2
:101E7C001846FFF799FD954B0A221A705AE140F665
:101E8C00B831012000F04AFB904B03221A7051E14B
:101E9C008F4B00229A708E4B01225A708C4B012270
:101EAC00DA7047E18A4B00229A70894B01225A70F2
:101EBC00874B0122DA703DE1854B01229A70844BED
:101ECC0001221A70834B1B78002B08D17F4B1522F3
:101EDC001A7047F23051032000F020FB21E17E4BB9
:101EEC00DB68012B06D17C4B0022DA60774B1A227F
:101EFC001A7016E1FB79232B40F01381BB79002B70
:101F0C0000F00F81714B19221A70FFF785FD47F213
:101F1C003051022000F002FB03E16D4B01229A705C
:101F2C006B4B01221A706C4B9B68012B0BD16A4BCB
:101F3C0000229A60654B14221A7042F21071032031
:101F4C0000F0ECFAEFE0FB79002B00F0EC80FB7971
:101F5C00232B15D1614B1B88042B06D1604800F054
:101F6C0047F95A4B1A221A7007E040F6B831012093
:101F7C0000F0D4FA554B03221A70FFF74DFD1BE00D
:101F8C00FB792A2B10D1554B1B88002B14D0534BAB
:101F9C001B88013B9AB2514B1A80504B1B881A4636
:101FAC004F4B0021995407E04C4B1B88032B03D853
:101FBC00FB791846FFF740FD47F23051022000F044
:101FCC00ADFAB0E0424B01229A70414B01221A70DB
:101FDC00404B1B78012B08D13C4B18221A7042F253
:101FEC001071032000F09AFA9FE03B4BDB68012B49
:101FFC0040F09B80384B0022DA60344B17221A7069
:10200C00BB6803F5922303F578732E4AD360304BEB
:10201C000122DA7042F21071002000F07FFA84E0A5
:10202C002B4B01229A702A4B01221A70284B012249
:10203C00DA70284B1B78012B08D1244B18221A700C
:10204C0042F21071032000F069FA70E01D4BDA685F
:10205C00BB68D31A002B6ADCBB6803F5922303F52B
:10206C007873184AD3601A4B0122DA7042F210715D
:10207C00002000F053FA5AE0154B01229A70144BD1
:10208C0001221A70134B1B78002B08D10F4B152211
:10209C001A7047F23051032000F040FA49E00E4B21
:1020AC00DB68012B45D10C4B0022DA60074B1A225E
:1020BC001A703EE0064B01229A70054B01221A70F1
:1020CC0038E000BFC8000020ABAAAAAAD8000020A4
:1020DC0000000020C0000020EC0100206001002066
:1020EC0078010020154B00229A70144B01225A7073
:1020FC00134B5B68012B06D1114B00225A60114B1C
:10210C0001221A7016E040F6B831012000F006FAF0
:10211C0010E00C4B01221A700CE000BF0AE000BF6B
:10212C0008E000BF06E000BF04E000BF02E000BF13
:10213C0000E000BF1037BD4680BD00BF000000208E
:10214C00EC010020D800002080B483B000AF03461F
:10215C00FB71054AFB791370034B00225A7000BFC8
:10216C000C37BD4680BC7047C400002080B483B0DF
:10217C0000AF0346FB71054AFB791370034B012238
:10218C005A7000BF0C37BD4680BC7047C40000209D
:10219C0080B400AF034B01229A7000BFBD4680BCD7
:1021AC00704700BFC000002080B400AF034B012279
:1021BC005A7000BFBD4680BC704700BFC0000020F5
:1021CC0080B400AF034B00221A7000BFBD4680BC28
:1021DC00704700BFC000002080B400AF034B012249
:1021EC001A7000BFBD4680BC704700BFC000002005
:1021FC0080B584B000AF78607B68002B01D10023E0
:10220C0011E07868FDF7A6FFF860FB68042B01D09D
:10221C00002308E07B681B681A46054B1A60044BC8
:10222C0000221A71012318461037BD4680BD00BF2D
:10223C00B801002080B485B000AF154B9B69144ADF
:10224C0043F001039361124B9B6903F00103BB60E4
:10225C00BB680F4BDB690E4A43F08053D3610C4BC8
:10226C00DB6903F080537B607B680A4B5B68FB6027
:10227C00FB6823F0E063FB60FB6843F08063FB606A
:10228C00044AFB68536000BF1437BD4680BC7047DE
:10229C00001002400000014080B588B000AF7860AB
:1022AC0007F1100300221A605A609A60DA607B68AA
:1022BC001B68184A934229D1174B9B69164A43F461
:1022CC0000739361144B9B6903F40073FB60FB6810
:1022DC00114B9B69104A43F0040393610E4B9B69AD
:1022EC0003F00403BB60BB6801233B6103237B61E8
:1022FC0007F110031946094801F0D6F80022002115
:10230C00122001F014F8122001F02DF800BF203734
:10231C00BD4680BD00240140001002400008014071
:10232C0080B588B000AF786007F1100300221A6006
:10233C005A609A60DA607B681B681D4A934233D1FD
:10234C001C4B9B691B4A43F008039361194B9B6917
:10235C0003F00803FB60FB68C0233B6112237B6125
:10236C000323FB6107F110031946134801F09CF895
:10237C00104BDB690F4A43F40013D3610D4BDB693F
:10238C0003F40013BB60BB68002200211F2000F087
:10239C00CEFF1F2000F0E7FF00220021202000F0DC
:1023AC00C6FF202000F0DFFF00BF2037BD4680BDF8
:1023BC000054004000100240000C014080B584B075
:1023CC0000AF78607B681B68B3F1804F13D10C4B66
:1023DC00DB690B4A43F00103D361094BDB6903F062
:1023EC000103FB60FB68002200211C2000F09FFF12
:1023FC001C2000F0B8FF00BF1037BD4680BD00BFE9
:10240C000010024080B400AFFEE780B400AFFEE7DE
:10241C0080B400AFFEE780B400AFFEE780B400AF3D
:10242C00FEE780B400AF00BFBD4680BC704780B4EF
:10243C0000AF00BFBD4680BC704780B400AF00BF8A
:10244C00BD4680BC704780B500AF00F027F900BFD7
:10245C0080BD000080B500AF024800F023FC00BF37
:10246C0080BD00BF6802002080B500AF024804F0B8
:10247C0042F900BF80BD00BF9802002080B500AFBC
:10248C00024801F01BFC00BF80BD00BF14020020FD
:10249C0080B500AF024801F082FD00BF80BD00BFD7
:1024AC001402002080B586B000AF7860144A154B3A
:1024BC00D31A7B617B693B61134B1B68002B02D1E8
:1024CC00114B124A1A60104B1A687B6813443A6914
:1024DC009A4207D204F05EFC03460C221A604FF0BD
:1024EC00FF3309E0084B1B68FB60074B1A687B68DD
:1024FC001344054A1360FB6818461837BD4680BD67
:10250C000050002000040000640100201806002088
:10251C0080B400AF00BFBD4680BC704780B483B0B0
:10252C0000AF786039607B68002B10DB7B68092B6F
:10253C000DDC094B1B683A6892FBF3F207497B6888
:10254C0041F82320064A7B68002142F8231000BF83
:10255C000C37BD4680BC704728000020900100203D
:10256C00EC01002080B483B000AF00237B601CE042
:10257C00124A7B6852F82330002B13DD0F4A7B681C
:10258C0052F823305A1E0D497B6841F823200B4A20
:10259C007B6852F82330002B04DC094A7B6801214C
:1025AC0042F823107B6801337B607B68092BDFDDED
:1025BC0000BF00BF0C37BD4680BC704790010020A7
:1025CC00EC010020FFF7A4FF0B480C490C4A002338
:1025DC0002E0D458C4500433C4188C42F9D3094ACD
:1025EC00094C002301E013600432A242FBD304F037
:1025FC00D7FBFEF749FB704700000020A00000202D
:10260C0028790008A000002014060020FEE7000036
:10261C0080B500AF084B1B68074A43F010031360EA
:10262C00032000F079FE0F2000F008F8FFF702FEFF
:10263C000023184680BD00BF0020024080B582B048
:10264C0000AF7860124B1A68124B1B7819464FF486
:10265C007A73B3FBF1F3B2FBF3F3184600F091FE7F
:10266C000346002B01D001230EE07B680F2B0AD808
:10267C00002279684FF0FF3000F059FE064A7B6863
:10268C001360002300E0012318460837BD4680BDC7
:10269C0030000020380000203400002080B400AF4F
:1026AC00054B1B781A46054B1B681344034A1360F1
:1026BC0000BFBD4680BC70473800002000060020DB
:1026CC0080B400AF024B1B681846BD4680BC7047F7
:1026DC000006002080B584B000AF7860FFF7F0FFF3
:1026EC00B8607B68FB60FB68B3F1FF3F05D00A4B19
:1026FC001B781A46FB681344FB6000BFFFF7E0FF32
:10270C000246BB68D31AFA689A42F7D800BF00BFDA
:10271C001037BD4680BD00BF3800002080B586B0A4
:10272C0000AF78600023FB7500233B610023BB6086
:10273C000023FB607B68002B01D10123BEE07B688A
:10274C009B68002B7B689B6A002B09D17B6800225D
:10275C00DA627B68002283F824207868FFF79CFDFE
:10276C00786800F0C3FC0346FB757B689B6A03F03A
:10277C001003002B40F09980FB7D002B40F09580DE
:10278C007B689B6A23F4885323F0020343F0020214
:10279C007B689A627B685A687B68DB691A437B6842
:1027AC001B7B5B001343BA681343BB607B689B685D
:1027BC00B3F5807F03D07B689B68012B02D14FF46B
:1027CC00807300E000233A6913433B617B681B7DF7
:1027DC00012B19D17B681B7B002B09D17B689B6972
:1027EC00013B5A033B69134343F400633B610BE029
:1027FC007B689B6A43F020027B689A627B68DB6A89
:10280C0043F001027B68DA627B681B685B6823F427
:10281C0069417B681B683A690A435A607B681B688C
:10282C009A68284B13407A681268B9680B43936016
:10283C007B689B68B3F5807F03D07B689B68012B1A
:10284C0004D17B681B69013B1B05FB607B681B6823
:10285C00DB6A23F470017B681B68FA680A43DA624E
:10286C007B681B689A68184B1340BA689A420BD164
:10287C007B680022DA627B689B6A23F0030343F0D7
:10288C0001027B689A6218E07B689B6A23F0120352
:10289C0043F010027B689A627B68DB6A43F00102AA
:1028AC007B68DA620123FB7507E07B689B6A43F067
:1028BC0010027B689A620123FB75FB7D1846183762
:1028CC00BD4680BDFDF7E1FFFE0E1FFF80B584B055
:1028DC0000AF78600023FB737B6893F82430012BE6
:1028EC0001D1022398E07B68012283F824207868C8
:1028FC0000F0A2FB0346FB73FB7B002B40F08780B0
:10290C007B689B6A23F4407323F0010343F48072C9
:10291C007B689A627B681B68414A934205D1414BA4
:10292C005B6803F47023002B15D17B689B6A23F43E
:10293C0080127B689A627B681B685B6803F4806317
:10294C00002B26D07B689B6A23F4405343F48052BF
:10295C007B689A621DE07B689B6A43F480127B68FB
:10296C009A627B681B682F4A934204D07B681B6871
:10297C002B4A93420DD12B4B5B6803F48063002BE5
:10298C0007D07B689B6A23F4405343F480527B68E6
:10299C009A627B689B6A03F48053002B06D07B6899
:1029AC00DB6A23F006027B68DA6202E07B680022B5
:1029BC00DA627B68002283F824207B681B686FF046
:1029CC0002021A607B681B689B6803F46023B3F5F2
:1029DC00602F13D17B681B68114A934205D1114BB0
:1029EC005B6803F47023002B08D17B681B689A6822
:1029FC007B681B6842F4A0029A600CE07B681B6841
:102A0C009A687B681B6842F480129A6003E07B68CA
:102A1C00002283F82420FB7B18461037BD4680BD6E
:102A2C00002801400024014080B584B000AF7860DC
:102A3C000023FB737B6893F82430012B01D1022314
:102A4C001AE07B68012283F82420786800F04EFBA2
:102A5C000346FB73FB7B002B09D17B689B6A23F439
:102A6C00885323F0010343F001027B689A627B6870
:102A7C00002283F82420FB7B18461037BD4680BD0E
:102A8C0090B587B000AF7860396000237B6100237C
:102A9C00FB6000233B61FFF713FE78617B681B68CA
:102AAC009B6803F48073002B0BD07B689B6A43F00C
:102ABC0020027B689A627B68002283F82420012321
:102ACC00D3E07B681B685B6803F48073002B31D107
:102ADC007B681B68DB6A03F47003002B2AD121E0AE
:102AEC003B68B3F1FF3F1DD03B68002B07D0FFF7CD
:102AFC00E7FD02467B69D31A3A689A4212D27B6888
:102B0C001B681B6803F00203002B0BD17B689B6ACC
:102B1C0043F004027B689A627B68002283F82420CD
:102B2C000323A2E07B681B681B6803F00203002BE5
:102B3C00D6D070E04F4B1C68022003F0D7FC034644
:102B4C00B4FBF3F27B681B6819694B4B0B40002BF1
:102B5C0018D17B681B68D968484B0B40002B11D1EE
:102B6C007B681B681969464B0B40002B08D17B68AE
:102B7C001B68D968434B0B40002B01D1142320E078
:102B8C0029231EE07B681B6819693D4B0B40002B09
:102B9C0006D17B681B68D9683A4B0B40002B0DD0D3
:102BAC007B681B681969384B0B40002B08D17B687C
:102BBC001B68D968344B0B40002B01D1542300E027
:102BCC00FC2302FB03F33B6121E03B68B3F1FF3FC5
:102BDC001AD03B68002B07D0FFF772FD02467B69C9
:102BEC00D31A3A689A420FD2FB683A699A420BD9C7
:102BFC007B689B6A43F004027B689A627B680022C4
:102C0C0083F82420032330E0FB680133FB60FB686E
:102C1C003A699A42D9D87B681B686FF012021A6025
:102C2C007B689B6A43F400727B689A627B681B68C2
:102C3C009B6803F46023B3F5602F15D17B681B7B75
:102C4C00002B11D17B689B6A23F480727B689A629B
:102C5C007B689B6A03F48053002B05D17B689B6ACD
:102C6C0043F001027B689A62002318461C37BD466C
:102C7C0090BD00BF300000202449922424499200CA
:102C8C0092244912922449004992240080B483B0C2
:102C9C0000AF78607B681B68DB6C18460C37BD4650
:102CAC0080BC704780B584B000AF78607B681B68CF
:102CBC001B68FB607B681B685B68BB60BB6803F0D0
:102CCC002003002B3ED0FB6803F00203002B39D00D
:102CDC007B689B6A03F01003002B05D17B689B6A11
:102CEC0043F400727B689A627B681B689B6803F4F0
:102CFC006023B3F5602F1DD17B681B7B002B19D192
:102D0C007B681B685A687B681B6822F020025A603B
:102D1C007B689B6A23F480727B689A627B689B6AEF
:102D2C0003F48053002B05D17B689B6A43F00102AE
:102D3C007B689A62786800F074F87B681B686FF0A7
:102D4C0012021A60BB6803F08003002B4DD0FB68A5
:102D5C0003F00403002B48D07B689B6A03F010033C
:102D6C00002B05D17B689B6A43F400527B689A6206
:102D7C007B681B689B6803F4E043B3F5E04F12D00B
:102D8C007B681B685B6803F48063002B25D17B6830
:102D9C001B689B6803F46023B3F5602F1DD17B681F
:102DAC001B7B002B19D17B681B685A687B681B68DE
:102DBC0022F080025A607B689B6A23F480527B6805
:102DCC009A627B689B6A03F48073002B05D17B6845
:102DDC009B6A43F001027B689A62786800F0C7F93D
:102DEC007B681B686FF00C021A60BB6803F0400331
:102DFC00002B12D0FB6803F00103002B0DD07B6875
:102E0C009B6A43F480327B689A62786800F012F80F
:102E1C007B681B686FF001021A6000BF1037BD465B
:102E2C0080BD80B483B000AF786000BF0C37BD4666
:102E3C0080BC704780B483B000AF786000BF0C37A3
:102E4C00BD4680BC7047000080B485B000AF786090
:102E5C0039600023FB730023BB607B6893F824303C
:102E6C00012B01D10223DCE07B68012283F82420B2
:102E7C003B685B68062B1CD87B681B68596B3B68EE
:102E8C005A6813469B001344053B1F2202FA03F3B6
:102E9C00DB4319403B6818683B685A6813469B0033
:102EAC001344053B00FA03F27B681B680A435A6320
:102EBC003CE03B685B680C2B1CD87B681B68196B6F
:102ECC003B685A6813469B001344233B1F2202FAAB
:102EDC0003F3DB4319403B6818683B685A68134698
:102EEC009B001344233B00FA03F27B681B680A43E4
:102EFC001A631BE07B681B68D96A3B685A681346E7
:102F0C009B001344413B1F2202FA03F3DB4319409D
:102F1C003B6818683B685A6813469B001344413B56
:102F2C0000FA03F27B681B680A43DA623B681B6891
:102F3C00092B1CD97B681B68D9683B681A68134637
:102F4C005B0013441E3B072202FA03F3DB431940D8
:102F5C003B6898683B681A6813465B0013441E3B39
:102F6C0000FA03F27B681B680A43DA6019E07B689D
:102F7C001B6819693B681A6813465B0013440722E7
:102F8C0002FA03F3DB4319403B6898683B681A6804
:102F9C0013465B00134400FA03F27B681B680A4378
:102FAC001A613B681B68102B03D03B681B68112B04
:102FBC0032D17B681B681D4A934225D17B681B6804
:102FCC009B6803F40003002B26D17B681B689A686E
:102FDC007B681B6842F400029A603B681B68102BEC
:102FEC001AD1134B1B68134AA2FB03239A0C1346EA
:102FFC009B0013445B00BB6002E0BB68013BBB6001
:10300C00BB68002BF9D107E07B689B6A43F0200278
:10301C007B689A620123FB737B68002283F824206F
:10302C00FB7B18461437BD4680BC7047002401401A
:10303C003000002083DE1B4380B584B000AF786085
:10304C000023FB600023BB607B681B689B6803F05C
:10305C000103012B40D07B681B689A687B681B6856
:10306C0042F001029A601F4B1B681F4AA2FB03230C
:10307C009B0CBB6002E0BB68013BBB60BB68002BD8
:10308C00F9D1FFF71DFBF8601FE0FFF719FB0246B3
:10309C00FB68D31A022B18D97B681B689B6803F05A
:1030AC000103012B11D07B689B6A43F010027B68F3
:1030BC009A627B68DB6A43F001027B68DA627B68A8
:1030CC00002283F82420012307E07B681B689B689F
:1030DC0003F00103012BD8D1002318461037BD464D
:1030EC0080BD00BF3000002083DE1B4380B584B060
:1030FC0000AF78600023FB607B681B689B6803F063
:10310C000103012B2ED17B681B689A687B681B68B6
:10311C0022F001029A60FFF7D3FAF8601BE0FFF788
:10312C00CFFA0246FB68D31A022B14D97B681B68B2
:10313C009B6803F00103012B0DD17B689B6A43F064
:10314C0010027B689A627B68DB6A43F001027B6841
:10315C00DA62012307E07B681B689B6803F00103BC
:10316C00012BDCD0002318461037BD4680BD80B43F
:10317C0083B000AF786000BF0C37BD4680BC704791
:10318C0080B485B000AF78607B6803F00703FB6008
:10319C000C4BDB68BB60BA684FF6FF031340BB6097
:1031AC00FB681A02BB68134343F0BF6343F400335C
:1031BC00BB60044ABB68D36000BF1437BD4680BCFB
:1031CC00704700BF00ED00E080B400AF044BDB683B
:1031DC001B0A03F007031846BD4680BC704700BFAE
:1031EC0000ED00E080B483B000AF0346FB7197F9AB
:1031FC000730002B0BDBFB7903F01F02064997F914
:10320C0007305B09012000FA02F241F8232000BFCD
:10321C000C37BD4680BC704700E100E080B483B041
:10322C0000AF03463960FB7197F90730002B0ADBBE
:10323C003B68DAB20C4997F907301201D2B20B4451
:10324C0083F800230AE03B68DAB20849FB7903F003
:10325C000F03043B1201D2B20B441A7600BF0C3799
:10326C00BD4680BC704700BF00E100E000ED00E00F
:10327C0080B489B000AFF860B9607A60FB6803F085
:10328C000703FB61FB69C3F10703042B28BF04236D
:10329C00BB61FB690433062B02D9FB69033B00E0DD
:1032AC0000237B614FF0FF32BB6902FA03F3DA4370
:1032BC00BB681A407B699A404FF0FF317B6901FA79
:1032CC0003F3D9437B680B40134318462437BD46A0
:1032DC0080BC704780B582B000AF78607B68013BE2
:1032EC00B3F1807F01D301230FE00A4A7B68013BD5
:1032FC0053600F214FF0FF30FFF790FF054B00227A
:10330C009A60044B07221A60002318460837BD4602
:10331C0080BD00BF10E000E080B582B000AF7860E7
:10332C007868FFF72DFF00BF0837BD4680BD80B51C
:10333C0086B000AF0346B9607A60FB7300237B61F3
:10334C00FFF742FF78617A68B9687869FFF790FFF8
:10335C00024697F90F3011461846FFF75FFF00BF82
:10336C001837BD4680BD80B582B000AF0346FB71F7
:10337C0097F907301846FFF735FF00BF0837BD46F1
:10338C0080BD80B582B000AF78607868FFF7A2FF8F
:10339C00034618460837BD4680BD000080B584B092
:1033AC0000AF78600023FB737B6893F82130DBB2AD
:1033BC00022B05D07B6804229A630123FB7351E036
:1033CC007B681B681A687B681B6822F00E021A6007
:1033DC007B681B681A687B681B6822F001021A6004
:1033EC007B681B68224A934229D07B681B68214A60
:1033FC00934222D07B681B681F4A93421AD07B6889
:10340C001B681E4A934212D07B681B681C4A93426D
:10341C000AD07B681B681B4A934202D14FF480137D
:10342C000EE04FF080730BE04FF4803308E04FF464
:10343C00805305E04FF4807302E0102300E0012379
:10344C00114A53607B68012283F821207B6800229B
:10345C0083F820207B685B6B002B03D07B685B6B55
:10346C0078689847FB7B18461037BD4680BD00BF77
:10347C00080002401C0002403000024044000240A0
:10348C00580002406C0002400000024080B483B03F
:10349C0000AF78607B6893F82130DBB218460C37AC
:1034AC00BD4680BC7047000080B48BB000AF786024
:1034BC00396000237B6200233B6269E101227B6A55
:1034CC0002FA03F3FB613B681B68FA691340BB61AA
:1034DC00BA69FB699A4240F058813B685B689A4A2A
:1034EC0093425ED0984A934275D8984A934258D0EA
:1034FC00964A93426FD8964A934252D0944A93423A
:10350C0069D8944A93424CD0924A934263D8924AD7
:10351C00934246D0904A93425DD8122B2AD8122B54
:10352C0059D801A252F823F0AF35000889350008AC
:10353C009B350008DD350008E3350008E33500084D
:10354C00E3350008E3350008E3350008E3350008EF
:10355C00E3350008E3350008E3350008E3350008DF
:10356C00E3350008E3350008E33500089135000821
:10357C00A5350008794A934213D02CE03B68DB68F0
:10358C003B6229E03B68DB6804333B6224E03B6828
:10359C00DB6808333B621FE03B68DB680C333B6243
:1035AC001AE03B689B68002B02D104233B6213E0BA
:1035BC003B689B68012B05D108233B627B68FA6949
:1035CC001A6109E008233B627B68FA695A6103E0DF
:1035DC0000233B6200E000BFBB69FF2B01D87B6876
:1035EC0001E07B6804337B61BB69FF2B02D87B6AEB
:1035FC009B0002E07B6A083B9B003B617B691A687D
:10360C000F213B6901FA03F3DB431A40396A3B692A
:10361C0001FA03F31A437B691A603B685B6803F099
:10362C008053002B00F0B1804D4B9B694C4A43F00A
:10363C00010393614A4B9B6903F00103BB60BB68B8
:10364C00484A7B6A9B08023352F82330FB607B6A42
:10365C0003F003039B000F2202FA03F3DB43FA6827
:10366C001340FB607B68404A934213D07B683F4A0F
:10367C0093420DD07B683E4A934207D07B683D4A0B
:10368C00934201D1032306E0042304E0022302E069
:10369C00012300E000237A6A02F0030292009340B7
:1036AC00FA681343FB602F497B6A9B080233FA6864
:1036BC0041F823203B685B6803F48013002B06D091
:1036CC002D4B9A682C49BB6913438B6006E02A4B3F
:1036DC009A68BB69DB43284913408B603B685B6885
:1036EC0003F40013002B06D0234BDA682249BB6984
:1036FC001343CB6006E0204BDA68BB69DB431E4901
:10370C001340CB603B685B6803F40033002B06D09E
:10371C00194B5A681849BB6913434B6006E0164BAA
:10372C005A68BB69DB43144913404B603B685B68C8
:10373C0003F48033002B21D00F4B1A680E49BB6960
:10374C0013430B6021E000BF000032100000311069
:10375C0000002210000021100000121000001110B7
:10376C00001002400000014000080140000C014024
:10377C000010014000140140000401400B4B1A687A
:10378C00BB69DB43094913400B607B6A01337B62E5
:10379C003B681A687B6A22FA03F3002B7FF48EAE27
:1037AC0000BF00BF2C37BD4680BC704700040140F1
:1037BC0080B485B000AF78600B467B807B689A68DC
:1037CC007B881340002B02D00123FB7301E0002304
:1037DC00FB73FB7B18461437BD4680BC704780B426
:1037EC0083B000AF78600B467B8013467B707B7890
:1037FC00002B03D07A887B681A6103E07B881A045B
:10380C007B681A6100BF0C37BD4680BC7047000056
:10381C0080B584B000AF78607B68002B01D10123A8
:10382C002BE17B6893F83D30DBB2002B06D17B6833
:10383C00002283F83C207868FEF772FD7B68242216
:10384C0083F83D207B681B681A687B681B6822F034
:10385C0001021A607B681B681A687B681B6842F45B
:10386C0000421A607B681B681A687B681B6822F42C
:10387C0000421A6002F03EFDF8607B685B68814A8A
:10388C00934207D8FB68804A934294BF01230023DC
:10389C00DBB206E0FB687D4A934294BF0123002310
:1038AC00DBB2002B01D00123E7E0FB68784AA2FBD6
:1038BC0003239B0CBB607B681B685B6823F03F0198
:1038CC007B681B68BA680A435A607B681B681B6A72
:1038DC0023F03F017B685B686A4A934202D8BB685D
:1038EC00013309E0BB684FF4967202FB03F3694A9B
:1038FC00A2FB03239B0901337A6812680B43136202
:10390C007B681B68DB6923F44F4222F0FF027B6863
:10391C005B685C498B4219D8FB68591E7B685B68F5
:10392C005B00B1FBF3F3591C40F6FC730B40002B0E
:10393C000AD0FB68591E7B685B685B00B1FBF3F334
:10394C000133C3F30B0351E004234FE07B689B6806
:10395C00002B11D1FB68581E7B6859680B465B0025
:10396C000B44B0FBF3F30133C3F30B03002B0CBF7D
:10397C0001230023DBB212E0FB68581E7B685968F8
:10398C000B469B000B4499000B44B0FBF3F3013343
:10399C00C3F30B03002B0CBF01230023DBB2002B62
:1039AC0001D0012322E07B689B68002B0ED1FB68C1
:1039BC00581E7B6859680B465B000B44B0FBF3F355
:1039CC000133C3F30B0343F400430FE0FB68581EB1
:1039DC007B6859680B469B000B4499000B44B0FB69
:1039EC00F3F30133C3F30B0343F4404379680968E1
:1039FC001343CB617B681B681B6823F0C0017B6899
:103A0C00DA697B681B6A1A437B681B680A431A6075
:103A1C007B681B689B6823F4034323F0FF037A68DD
:103A2C0011697A68D26811437A6812680B43936003
:103A3C007B681B68DB6823F0FF017B685A697B6835
:103A4C009B691A437B681B680A43DA607B681B68B6
:103A5C001A687B681B6842F001021A607B680022BE
:103A6C001A647B68202283F83D207B6800221A634D
:103A7C007B68002283F83E20002318461037BD4691
:103A8C0080BD00BFA08601007F841E00FF083D00A2
:103A9C0083DE1B43D34D621080B483B000AF7860DB
:103AAC007B681B685B6903F08003802B03D17B6808
:103ABC001B6800221A6100BF0C37BD4680BC7047E2
:103ACC0080B588B002AFF8607A601A460B467B81ED
:103ADC0013463B81FEF7F4FD7861FB6893F83D30AB
:103AEC00DBB2202B40F0E0807B690093192301228C
:103AFC007049F86801F012FE0346002B01D0022336
:103B0C00D3E0FB6893F83C30012B01D10223CCE0CD
:103B1C00FB68012283F83C20FB681B681B6803F0E0
:103B2C000103012B07D0FB681B681A68FB681B6834
:103B3C0042F001021A60FB681B681A68FB681B687C
:103B4C0022F400621A60FB68212283F83D20FB6896
:103B5C00102283F83E20FB6800221A64FB687A6806
:103B6C005A62FB683A895A85FB685B8D9AB2FB688E
:103B7C001A85FB68504ADA6279897B693A6AF86877
:103B8C0001F0A2FC0346002B01D001238DE00023A1
:103B9C003B61FB681B685B693B61FB681B689B694D
:103BAC003B613B6966E07A69396AF86801F0D0FEDE
:103BBC000346002B0DD0FB681B6C042B07D1FB6854
:103BCC001B681A68FB681B6842F400721A600123B8
:103BDC006BE0FB685B6A1A78FB681B681A61FB6810
:103BEC005B6A5A1CFB685A62FB685B8D9BB2013B9B
:103BFC009AB2FB685A85FB681B8D013B9AB2FB6835
:103C0C001A85FB681B685B6903F00403042B1BD14A
:103C1C00FB681B8D002B17D0FB685B6A1A78FB685E
:103C2C001B681A61FB685B6A5A1CFB685A62FB686A
:103C3C005B8D9BB2013B9AB2FB685A85FB681B8D6E
:103C4C00013B9AB2FB681A857A69396AF86801F007
:103C5C00C7FE0346002B0DD0FB681B6C042B07D151
:103C6C00FB681B681A68FB681B6842F400721A60D8
:103C7C0001231AE0FB681B8D002B94D1FB681B6899
:103C8C001A68FB681B6842F400721A60FB682022F9
:103C9C0083F83D20FB68002283F83E20FB6800225D
:103CAC0083F83C20002300E0022318461837BD4659
:103CBC0080BD00BF020010000000FFFF80B588B07F
:103CCC0000AF78600023BB617B681B685B687B611D
:103CDC007B68DB6A3B617B6893F83E30FB737B68E7
:103CEC0093F83D30BB73FB7B102B03D0FB7B402B3D
:103CFC0040F0C1807B681B689B69BB617B681B685B
:103D0C005B69FB61FB6903F00103002B0DD13B697F
:103D1C00B3F52A0F03D03B69B3F12A4F01D101232C
:103D2C0000E00023012B00F03281FB6903F001035A
:103D3C00002B0CD07B695B0A03F00103002B06D02F
:103D4C00786801F0F5FE786800F099FD92E0FB6967
:103D5C00DB0803F00103002B09D07B695B0A03F03D
:103D6C000103002B03D0786800F00EFE82E0FB69A3
:103D7C005B0803F00103002B09D07B695B0A03F09D
:103D8C000103002B03D0786800F027FE72E0BB69BA
:103D9C009B0803F00103002B3BD07B681B685B681E
:103DAC0003F40063B3F5006F00F0F380FB69DB09EB
:103DBC0003F00103002B0FD07B699B0A03F0010376
:103DCC00002B09D0FB699B0803F00103002B03D1E6
:103DDC00786800F0F1F94DE0FB699B0803F00103F2
:103DEC00002B00F0D6807B695B0A03F00103002BEB
:103DFC0000F0CF80BB7B212B03D1786800F078FAE0
:103E0C00C7E0FB7B402B40F0C480786800F0E6FAFA
:103E1C00BFE07B681B685B6803F40063B3F5006F5D
:103E2C0000F0B780FB699B0903F00103002B0FD056
:103E3C007B699B0A03F00103002B09D0FB699B08EB
:103E4C0003F00103002B03D1786800F05FFB11E055
:103E5C00FB699B0803F00103002B00F09A807B693F
:103E6C005B0A03F00103002B00F09380786800F0EC
:103E7C0015FC8EE08DE07B681B6C002B04D07B68FE
:103E8C001B685B69FB6107E07B681B689B69BB6116
:103E9C007B681B685B69FB61FB695B0803F00103D2
:103EAC00002B12D07B695B0A03F00103002B0CD0B2
:103EBC007B681B6C002B03D07B681B689B69BB6108
:103ECC00B969786800F0E0FF66E0FB691B0903F054
:103EDC000103002B09D07B695B0A03F00103002B63
:103EEC0003D0786801F01AF856E0BB7B212B02D086
:103EFC00BB7B292B25D1FB69DB0903F00103002BCC
:103F0C000FD07B699B0A03F00103002B09D0FB69DE
:103F1C009B0803F00103002B03D1786800F0F8FE36
:103F2C0039E0FB699B0803F00103002B33D07B695C
:103F3C005B0A03F00103002B2DD0786800F025FFFD
:103F4C0029E0FB699B0903F00103002B0FD07B696F
:103F5C009B0A03F00103002B09D0FB699B0803F0BB
:103F6C000103002B03D1786800F02FFF14E0FB69EC
:103F7C009B0803F00103002B0ED07B695B0A03F056
:103F8C000103002B08D0786800F05DFF04E000BF4F
:103F9C0002E000BF00E000BF2037BD4680BD80B509
:103FAC008AB000AF78607B681B685B693B627B689A
:103FBC001B685B68FB6100237B627B6893F83E3077
:103FCC00FB763B6A1B0A03F00103002B16D0FB693E
:103FDC001B0A03F00103002B10D07B6A43F0010392
:103FEC007B627B681B686FF480725A617B681B680C
:103FFC001A687B681B6842F400421A603B6A5B0AD1
:10400C0003F00103002B0ED0FB691B0A03F0010324
:10401C00002B08D07B6A43F002037B627B681B6831
:10402C006FF400725A613B6A9B0A03F00103002B88
:10403C003FD0FB691B0A03F00103002B39D0FB7E38
:10404C00BB767B685B8D9BB27B617B6893F83D3064
:10405C00FB747B681B6BFB60BB7E202B12D17B69D6
:10406C00002B0FD1FB7C212B08D0FB7C292B05D0FE
:10407C00FB7C282B06D1FB68212B03D1786801F03F
:10408C007DF816E07B681B686FF480625A617B6A6E
:10409C0043F004037B62FB7E102B02D0FB7E402B93
:1040AC0007D17B681B681A687B681B6842F4007236
:1040BC001A603B6ADB0A03F00103002B0ED0FB698C
:1040CC001B0A03F00103002B08D07B6A43F00803A2
:1040DC007B627B681B686FF400625A617B6A002B01
:1040EC0008D07B681A6C7B6A1A437B681A64786800
:1040FC0001F0B8F800BF2837BD4680BD80B483B04E
:10410C0000AF786000BF0C37BD4680BC704780B4F0
:10411C0083B000AF786000BF0C37BD4680BC7047E1
:10412C0080B483B000AF786000BF0C37BD4680BC54
:10413C00704780B483B000AF786000BF0C37BD46C9
:10414C0080BC704780B483B000AF78600B46FB70C6
:10415C0013463B8000BF0C37BD4680BC704780B413
:10416C0083B000AF786000BF0C37BD4680BC704791
:10417C0080B483B000AF786000BF0C37BD4680BC04
:10418C00704780B483B000AF786000BF0C37BD4679
:10419C0080BC704780B483B000AF786000BF0C3730
:1041AC00BD4680BC704780B483B000AF786000BF60
:1041BC000C37BD4680BC704780B584B000AF7860CA
:1041CC007B6893F83D30FB737B6893F83E30BB7390
:1041DC007B68DB6ABB607B681B8D002B50D1FB7B43
:1041EC00212B4DD1BB68082B1DD0BB68202B1AD0BE
:1041FC00BB6813F5803F16D07B681B685A687B68D8
:10420C001B6822F4E0625A607B6811221A637B6897
:10421C00002283F83E207B68202283F83D207868BA
:10422C00FFF76CFF60E07B681B685A687B681B6853
:10423C0022F4E0625A607B681B681A687B681B6812
:10424C0042F400721A607B6800221A637B68202299
:10425C0083F83D207B6893F83E30DBB2402B07D1CE
:10426C007B68002283F83E207868FFF781FF3BE0F3
:10427C007B68002283F83E207868FFF73FFF33E02D
:10428C00FB7B212B05D0BB7B402B2DD1FB7B222B29
:10429C002AD17B685B8D9BB2002B08D17B681B6895
:1042AC005A687B681B6822F480625A601CE07B6849
:1042BC0093F83E30DBB2402B03D1786800F08EF8D7
:1042CC0012E07B685B6A1A787B681B681A617B68F2
:1042DC005B6A5A1C7B685A627B685B8D9BB2013BA4
:1042EC009AB27B685A85FFE700BF1037BD4680BD88
:1042FC0080B584B000AF78607B68DB6AFB607B685C
:10430C0093F83D30DBB2212B64D17B685B8D9BB283
:10431C00002B12D07B685B6A1A787B681B681A6169
:10432C007B685B6A5A1C7B685A627B685B8D9BB2AC
:10433C00013B9AB27B685A854CE0FB68082B1DD078
:10434C00FB68202B1AD0FB6813F5803F16D07B68D6
:10435C001B685A687B681B6822F4E0625A607B68B1
:10436C0011221A637B68002283F83E207B6820228E
:10437C0083F83D207868FFF7C1FE2BE07B681B6853
:10438C005A687B681B6822F4E0625A607B681B6881
:10439C001A687B681B6842F400721A607B68002202
:1043AC001A637B68202283F83D207B6893F83E30AB
:1043BC00DBB2402B07D17B68002283F83E20786863
:1043CC00FFF7D6FE06E07B68002283F83E20786873
:1043DC00FFF794FE00BF1037BD4680BD80B584B09A
:1043EC0000AF78607B6893F83D30FB737B681B6D86
:1043FC00002B1DD17B68DB6C012B0BD17B689B6C7C
:10440C00DAB27B681B681A617B681B6D9A1C7B682F
:10441C001A6577E07B689B6C9BB21B12DAB27B68E7
:10442C001B681A617B681B6D5A1C7B681A6569E0F6
:10443C007B681B6D012B0BD17B689B6CDAB27B68A4
:10444C001B681A617B681B6D5A1C7B681A6559E0E6
:10445C007B681B6D022B52D1FB7B222B0DD17B6811
:10446C001B681A687B681B6842F480721A607B6850
:10447C001B6D5A1C7B681A6544E07B685B8D9BB294
:10448C00002B15D0FB7B212B12D17B685B6A1A7831
:10449C007B681B681A617B685B6A5A1C7B685A6272
:1044AC007B685B8D9BB2013B9AB27B685A8529E095
:1044BC007B685B8D9BB2002B24D1FB7B212B21D104
:1044CC007B681B685A687B681B6822F4E0625A6040
:1044DC007B681B681A687B681B6842F400721A6060
:1044EC007B6800221A637B68202283F83D207B685E
:1044FC00002283F83E207868FFF73AFE02E07868E5
:10450C00FFF7CAFA00BF1037BD4680BD80B584B036
:10451C0000AF78607B6893F83D30DBB2222B40F023
:10452C00B9807B68DB6AFB607B685B8D9BB2BB6090
:10453C00BB68032B21D97B681B681A697B685B6A93
:10454C00D2B21A707B685B6A5A1C7B685A627B68B1
:10455C005B8D9BB2013B9AB27B685A857B685B8D05
:10456C009BB2032B40F096807B681B685A687B6873
:10457C001B6822F480625A608CE07B68DB6A022B39
:10458C007FD0BB68012B02D0BB68002B79D1786837
:10459C0001F06EFA0346002B4CD17B681B681A683D
:1045AC007B681B6822F480621A607B681B685A68FF
:1045BC007B681B6822F4E0625A607B681B681A698E
:1045CC007B685B6AD2B21A707B685B6A5A1C7B6828
:1045DC005A627B685B8D9BB2013B9AB27B685A85B1
:1045EC007B68202283F83D207B6893F83E30DBB259
:1045FC00402B0AD17B68002283F83E207B68002286
:10460C001A637868FFF7BDFD44E07B68002283F8ED
:10461C003E20FB68082B02D0FB68202B03D17B6863
:10462C0000221A6302E07B6812221A637868FFF793
:10463C006EFD2FE07B681B685A687B681B6822F450
:10464C00E0625A607B681B681A697B685B6AD2B24D
:10465C001A707B685B6A5A1C7B685A627B685B8D3C
:10466C009BB2013B9AB27B685A857B68202283F807
:10467C003D207B68002283F83E207868FFF78AFD96
:10468C0008E07B681B685A687B681B6822F48062B0
:10469C005A60FFE700BF1037BD4680BD80B584B0BF
:1046AC0000AF78607B68DB6AFB607B685B8D9BB2DC
:1046BC00042B1BD17B681B685A687B681B6822F42F
:1046CC0080625A607B681B681A697B685B6AD2B22D
:1046DC001A707B685B6A5A1C7B685A627B685B8DBC
:1046EC009BB2013B9AB27B685A85C4E07B685B8DB8
:1046FC009BB2032B29D17B681B685A687B681B68AB
:10470C0022F480625A60FB68042B0AD0FB68022BEF
:10471C0007D07B681B681A687B681B6822F4806270
:10472C001A607B681B681A697B685B6AD2B21A7064
:10473C007B685B6A5A1C7B685A627B685B8D9BB298
:10474C00013B9AB27B685A8595E07B685B8D9BB286
:10475C00022B7DD1FB68012B02D0FB68102B08D1FA
:10476C007B681B681A687B681B6822F480621A607D
:10477C0016E0FB68042B02D0FB68022B08D17B6887
:10478C001B681A687B681B6842F480621A6007E039
:10479C007B681B681A687B681B6842F400721A609D
:1047AC007B681B681A697B685B6AD2B21A707B687B
:1047BC005B6A5A1C7B685A627B685B8D9BB2013BBF
:1047CC009AB27B685A857B681B681A697B685B6A3E
:1047DC00D2B21A707B685B6A5A1C7B685A627B681F
:1047EC005B8D9BB2013B9AB27B685A857B681B68D8
:1047FC005A687B681B6822F440725A607B682022DE
:10480C0083F83D207B6893F83E30DBB2402B0AD115
:10481C007B68002283F83E207B6800221A6378684C
:10482C00FFF7AFFC27E07B68002283F83E20FB6893
:10483C00082B02D0FB68202B03D17B6800221A6363
:10484C0002E07B6812221A637868FFF760FC12E0C2
:10485C007B681B681A697B685B6AD2B21A707B68CA
:10486C005B6A5A1C7B685A627B685B8D9BB2013B0E
:10487C009AB27B685A8500BF1037BD4680BD80B4A4
:10488C0083B000AF78607B6893F83E30DBB2402B8E
:10489C0017D17B681B6D002B09D17B685B6CDBB27D
:1048AC001A467B681B6802F0FE021A6167E07B689F
:1048BC005B6CDBB243F00103DAB27B681B681A61F4
:1048CC005DE07B681B69B3F5804F33D17B6893F84F
:1048DC003D30DBB2212B09D17B685B6CDBB21A4615
:1048EC007B681B6802F0FE021A6108E07B685B6C57
:1048FC00DBB243F00103DAB27B681B681A617B6898
:10490C005B6B002B04D07B685B6B9B6A002B08D124
:10491C007B689B6B002B32D07B689B6B9B6A002B5C
:10492C002DD07B681B685A687B681B6842F4006258
:10493C005A6024E07B681B6D002B0ED17B685B6C8E
:10494C009BB2DB11DBB203F00603DBB263F00F03A7
:10495C00DAB27B681B681A6111E07B681B6D012B56
:10496C000DD17B685B6C9BB2DB11DBB203F00603F1
:10497C00DBB263F00E03DAB27B681B681A6100BF0E
:10498C000C37BD4680BC704780B483B000AF7860F4
:10499C007B685B6CDAB27B681B681A617B685B6B4B
:1049AC00002B04D07B685B6B9B6A002B08D17B6867
:1049BC009B6B002B0CD07B689B6B9B6A002B07D0EE
:1049CC007B681B685A687B681B6842F400625A60FB
:1049DC0000BF0C37BD4680BC704780B491B000AFAF
:1049EC0078607B6893F83E3087F83F307B68DB6AF1
:1049FC00BB637B681B6B7B637B6893F83D30DBB2DE
:104A0C00222B40F074817B681B6D002B0FD197F823
:104A1C003F30402B0BD100233B637B681B685B69E9
:104A2C003B637B681B689B693B633B6B6BE17B68FF
:104A3C001B6D002B1DD17B681B69B3F5404F18D142
:104A4C000023FB627B681B685B69FB627B681B68ED
:104A5C009B69FB62FB6A7B681B681A687B681B6836
:104A6C0042F480721A607B681B6D5A1C7B681A6555
:104A7C0049E17B685B8D9BB2002B13D10023BB6299
:104A8C007B681B685B69BB627B681B689B69BB624C
:104A9C00BB6A7B681B681A687B681B6842F40072EF
:104AAC001A6020E17B685B8D9BB2012B40F08A8001
:104ABC00BB6B13F5803F37D17B681B681A687B682A
:104ACC001B6822F480621A607B681B685B6803F4C5
:104ADC000063B3F5006F13D17B681B681A687B68A1
:104AEC001B6822F480621A6000237B627B681B685F
:104AFC005B697B627B681B689B697B627B6AF2E00B
:104B0C0000233B627B681B685B693B627B681B68AC
:104B1C009B693B623B6A7B681B681A687B681B68F5
:104B2C0042F400721A60DEE0BB6B082B2ED0BB6B1C
:104B3C00202B2BD07B6B122B02D1BB6B012B25D1E5
:104B4C00BB6B042B0ED0BB6B022B0BD0BB6B102B97
:104B5C0008D07B681B681A687B681B6822F480622B
:104B6C001A6007E07B681B681A687B681B6842F454
:104B7C0080621A600023FB617B681B685B69FB61C8
:104B8C007B681B689B69FB61FB69ACE07B681B68FD
:104B9C001A687B681B6822F480621A600023BB6170
:104BAC007B681B685B69BB617B681B689B69BB612D
:104BBC00BB697B681B681A687B681B6842F40072CF
:104BCC001A6090E07B685B8D9BB2022B58D1BB6B5B
:104BDC00042B21D0BB6B022B1ED0BB6B102B1BD01C
:104BEC007B681B681A687B681B6842F400621A6059
:104BFC0000237B617B681B685B697B617B681B683E
:104C0C009B697B617B697B681B681A687B681B6886
:104C1C0022F480621A6012E07B681B681A687B6859
:104C2C001B6842F480621A6000233B617B681B683E
:104C3C005B693B617B681B689B693B613B697B687B
:104C4C001B685B6803F40063B3F5006F4BD1BB6B5F
:104C5C0013F5803F0BD0BB6B012B08D0BB6B082B23
:104C6C0005D0BB6B102B02D0BB6B202B3BD17B68D0
:104C7C001B685A687B681B6842F480525A6032E0A9
:104C8C007B681B681A687B681B6842F480621A6038
:104C9C007B681B685B6803F40063B3F5006F17D186
:104CAC00BB6B13F5803F0BD0BB6B012B08D0BB6BE0
:104CBC00082B05D0BB6B102B02D0BB6B202B07D164
:104CCC007B681B685A687B681B6842F480525A6088
:104CDC000023FB607B681B685B69FB607B681B685F
:104CEC009B69FB60FB687B6800221A650BE0002364
:104CFC00BB607B681B685B69BB607B681B689B69DE
:104D0C00BB60BB68FFE700BF4437BD4680BC704743
:104D1C0080B584B000AF78607B6893F83D30FB734E
:104D2C007B685B8D9BB2002B2BD07B685B6A1A78FF
:104D3C007B681B681A617B685B6A5A1C7B685A62C9
:104D4C007B685B8D9BB2013B9AB27B685A857B6812
:104D5C005B8D9BB2002B14D1FB7B292B11D17B6873
:104D6C001B685A687B681B6822F480625A607B68F7
:104D7C0021221A637B68282283F83D207868FFF78C
:104D8C00CFF900BF1037BD4680BD80B483B000AFF3
:104D9C0078607B685B8D9BB2002B11D07B685B6A63
:104DAC001A787B681B681A617B685B6A5A1C7B6883
:104DBC005A627B685B8D9BB2013B9AB27B685A85C9
:104DCC0000BF0C37BD4680BC704780B584B000AFC7
:104DDC0078607B6893F83D30FB737B685B8D9BB28E
:104DEC00002B2CD07B681B681A697B685B6AD2B27B
:104DFC001A707B685B6A5A1C7B685A627B685B8D95
:104E0C009BB2013B9AB27B685A857B685B8D9BB2E7
:104E1C00002B14D1FB7B2A2B11D17B681B685A68A1
:104E2C007B681B6822F480625A607B6822221A63BA
:104E3C007B68282283F83D207868FFF77AF900BF59
:104E4C001037BD4680BD80B483B000AF78607B68FE
:104E5C005B8D9BB2002B12D07B681B681A697B6838
:104E6C005B6AD2B21A707B685B6A5A1C7B685A62A6
:104E7C007B685B8D9BB2013B9AB27B685A8500BF05
:104E8C000C37BD4680BC704780B584B000AF7860ED
:104E9C0039600023FB737B6893F83D30DBB203F081
:104EAC002803282B27D17B681B685A687B681B68F2
:104EBC0022F480625A603B689B0803F00103002BCC
:104ECC0001D10123FB733B68DB0903F00103002BC9
:104EDC0003D17B68DB68BB8102E07B689B69BB818B
:104EEC007B68002283F83C20BA89FB7B19467868E2
:104EFC00FFF728F90EE00023BB607B681B685B6939
:104F0C00BB607B681B689B69BB60BB687B680022CD
:104F1C0083F83C2000BF1037BD4680BD80B584B0FF
:104F2C0000AF78607B6893F83D30FB737B681B683F
:104F3C005A687B681B6822F4E0625A600023BB60ED
:104F4C007B681B685B69BB607B681B681A687B6845
:104F5C001B6842F001021A60BB687B681B681A6808
:104F6C007B681B6822F480621A607B681B685B6834
:104F7C0003F40063B3F5006F72D1FB7B222B02D0DC
:104F8C00FB7B2A2B35D17B689B6B1B685B689AB2C9
:104F9C007B685A857B685B8D9BB2002B05D07B6848
:104FAC001B6C43F004027B681A647B681B685A68AC
:104FBC007B681B6822F400625A607B689B6B184606
:104FCC00FEF764FA0346012B49D07B689B6B694A58
:104FDC005A637B689B6B1846FEF7E0F90346002B7F
:104FEC003DD07B689B6B5B6B7A68926B10469847E5
:104FFC0035E07B685B6B1B685B689AB27B685A8593
:10500C007B685B8D9BB2002B05D07B681B6C43F0DF
:10501C0004027B681A647B681B685A687B681B688F
:10502C0022F400625A607B685B6B1846FEF72EFA1E
:10503C000346012B14D07B685B6B4E4A5A637B682A
:10504C005B6B1846FEF7AAF90346002B08D07B6869
:10505C005B6B5B6B7A68526B1046984700E000BF45
:10506C007B685B8D9BB2002B3ED07B681B685B69B9
:10507C0003F00403042B12D17B681B681A697B684C
:10508C005B6AD2B21A707B685B6A5A1C7B685A6284
:10509C007B685B8D9BB2013B9AB27B685A857B68BF
:1050AC001B685B6903F04003402B12D17B681B68C3
:1050BC001A697B685B6AD2B21A707B685B6A5A1C8D
:1050CC007B685A627B685B8D9BB2013B9AB27B68B2
:1050DC005A857B685B8D9BB2002B05D07B681B6C63
:1050EC0043F004027B681A647B681B6C002B03D0B2
:1050FC00786800F0B7F839E0FB7B2A2B09D17B6884
:10510C0000221A637B68282283F83D207868FFF719
:10511C0010F87B6893F83D30DBB2282B11D17B68FB
:10512C00154ADA627B6800221A637B68202283F8B6
:10513C003D207B68002283F83E207868FFF70FF84B
:10514C0014E07B681B6B222B02D0FB7B222B0DD136
:10515C007B6800221A637B68202283F83D207B68E1
:10516C00002283F83E207868FEF7E3FF00BF10377B
:10517C00BD4680BDD95500080000FFFF80B584B046
:10518C0000AF78607B6893F83D30FB737B68DB6A1B
:10519C00BB60BB68082B02D0BB68202B29D1FB7BE2
:1051AC00282B26D17B682E4ADA627B681B685A68EA
:1051BC007B681B6822F4E0625A607B681B686FF4A2
:1051CC0080625A617B681B681A687B681B6822F4D2
:1051DC0080621A607B6800221A637B68202283F845
:1051EC003D207B68002283F83E207868FEF7B7FFED
:1051FC0031E0FB7B212B29D17B68194ADA627B6871
:10520C0021221A637B68202283F83D207B680022D0
:10521C0083F83E207B681B685A687B681B6822F405
:10522C00E0625A607B681B686FF480625A617B682D
:10523C001B681A687B681B6822F480621A607868A5
:10524C00FEF72AFC7868FEF76BFF04E07B681B68AE
:10525C006FF480625A6100BF1037BD4680BD00BF3D
:10526C000000FFFF80B584B000AF78607B6893F8D6
:10527C003D30FB737B6893F83E30BB73BB7B102BCC
:10528C0002D0BB7B402B0AD1FB7B222B07D17B6846
:10529C001B681A687B681B6822F400621A60FB7B2F
:1052AC0003F02803282B07D17B6800221A637B6844
:1052BC00282283F83D2015E07B681B685B6803F4AB
:1052CC000063B3F5006F0AD0FB7B602B07D07B68C3
:1052DC00202283F83D207B68002283F83E207B68E7
:1052EC0000221A637B681B685B6803F40063B3F5E8
:1052FC00006F62D17B681B685A687B681B6822F45C
:10530C0000625A607B685B6B93F82130DBB2012B37
:10531C0020D07B685B6B6A4A5A637B685B6B184670
:10532C00FEF73CF80346002B00F089807B681B6875
:10533C001A687B681B6822F001021A607B682022C5
:10534C0083F83D207B685B6B5B6B7A68526B104615
:10535C00984774E07B689B6B594A5A637B689B6BDC
:10536C001846FEF71BF80346002B68D07B681B68B9
:10537C005B6903F04003402B0BD17B681B681A69F7
:10538C007B685B6AD2B21A707B685B6A5A1C7B685A
:10539C005A627B681B681A687B681B6822F00102E2
:1053AC001A607B68202283F83D207B689B6B5B6BCB
:1053BC007A68926B1046984741E07B6893F83D30D1
:1053CC00DBB2602B25D17B68202283F83D207B68E3
:1053DC0000221A647B681B685B6903F04003402B56
:1053EC000BD17B681B681A697B685B6AD2B21A7036
:1053FC007B685B6A5A1C7B685A627B681B681A68FC
:10540C007B681B6822F001021A607868FEF7CBFEFD
:10541C0015E07B681B685B6903F04003402B0BD1E4
:10542C007B681B681A697B685B6AD2B21A707B68EE
:10543C005B6A5A1C7B685A627868FEF7ABFE7B6825
:10544C001B6CBB60BB6803F00103002B0ED1BB6867
:10545C0003F00203002B09D1BB6803F00403002BFB
:10546C0004D1BB6803F00803002B07D07B681B68D2
:10547C005A687B681B6822F4E0625A607B6893F878
:10548C003D30FB737B681B6C03F00403042B13D1BE
:10549C00FB7B282B10D17B680A4ADA627B680022DE
:1054AC001A637B68202283F83D207B68002283F8F6
:1054BC003E207868FEF753FE00BF1037BD4680BD16
:1054CC00D95500080000FFFF80B588B002AFF86026
:1054DC007A603B600B467B81FB68DB6A7B617B6996
:1054EC00082B06D07B69012B03D07B6913F5803F19
:1054FC0008D1FB681B681A68FB681B6842F4807251
:10550C001A600BE0FB681B6B122B07D1FB681B6846
:10551C001A68FB681B6842F480721A603B6800933F
:10552C007B6800224FF00111F86800F0F7F8034691
:10553C00002B0DD0FB681B681B6803F48073B3F55C
:10554C00807F03D1FB684FF400721A64032335E0AB
:10555C00FB681B69B3F5804F08D17B89DBB21A4617
:10556C00FB681B6802F0FE021A611BE07B89DB11F1
:10557C00DBB203F00603DBB263F00F03DAB2FB68B5
:10558C001B681A613B687A680E49F86800F040F9AC
:10559C000346002B01D0012310E07B89DAB2FB68B3
:1055AC001B681A613B687A680749F86800F030F9A3
:1055BC000346002B01D0012300E0002318461837C6
:1055CC00BD4680BD080001000200010080B586B018
:1055DC0000AF78600023FB607B685B6A7B617B6952
:1055EC0093F83D30FB744B4B1B68DB084A4AA2FB1B
:1055FC0003231A0A13469B001344DA00D31AFB60E8
:10560C00FB68002B06D17B691B6C43F020027B6985
:10561C001A640AE0FB68013BFB607B691B681B6832
:10562C0003F40073B3F5007FEAD07B695B6B002B4E
:10563C0003D07B695B6B00229A627B699B6B002BAE
:10564C0003D07B699B6B00229A627B691B681A688A
:10565C007B691B6822F480621A607B6900225A8580
:10566C007B695B6B002B03D07B695B6B00225A63FD
:10567C007B699B6B002B03D07B699B6B00225A636D
:10568C007B691B681A687B691B6822F001021A602F
:10569C007B6993F83D30DBB2602B0ED17B69202205
:1056AC0083F83D207B69002283F83E207B69002231
:1056BC001A647869FEF777FD27E0FB7C03F028037A
:1056CC00282B17D17B691B681A687B691B6842F011
:1056DC0001021A607B691B681A687B691B6842F4BB
:1056EC0080621A607B6900221A637B69282283F826
:1056FC003D2007E07B69202283F83D207B69002256
:10570C0083F83E207869FEF745FD00BF1837BD468B
:10571C0080BD00BF3000002089B5F81480B584B07E
:10572C0000AFF860B9603B601346FB7148E03B6822
:10573C00B3F1FF3F44D0FCF7C3FF0246BB69D31A59
:10574C003A689A4202D33B68002B39D1BB681B0CD8
:10575C00DBB2012B0DD1FB681B685B69DA43BB68BC
:10576C0013409BB2002B0CBF01230023DBB21A4663
:10577C000CE0FB681B689B69DA43BB6813409BB267
:10578C00002B0CBF01230023DBB21A46FB799A4293
:10579C0016D1FB6800221A63FB68202283F83D2097
:1057AC00FB68002283F83E20FB681B6C43F0200250
:1057BC00FB681A64FB68002283F83C20012323E079
:1057CC00BB681B0CDBB2012B0DD1FB681B685B6942
:1057DC00DA43BB6813409BB2002B0CBF01230023A0
:1057EC00DBB21A460CE0FB681B689B69DA43BB68AA
:1057FC0013409BB2002B0CBF01230023DBB21A46D3
:10580C00FB799A4293D0002318461037BD4680BDD1
:10581C0080B584B000AFF860B9607A603B6071E02D
:10582C00FB681B685B6903F48063B3F5806F23D15D
:10583C00FB681B681A68FB681B6842F400721A60EC
:10584C00FB681B686FF480625A61FB6800221A6364
:10585C00FB68202283F83D20FB68002283F83E2061
:10586C00FB681B6C43F00402FB681A64FB680022A3
:10587C0083F83C20012367E07B68B3F1FF3F41D004
:10588C00FCF71EFF02463B68D31A7A689A4202D391
:10589C007B68002B36D1BB681B0CDBB2012B0CD107
:1058AC00FB681B685B69DA43BB6813409BB2002B37
:1058BC0014BF01230023DBB20BE0FB681B689B6960
:1058CC00DA43BB6813409BB2002B14BF01230023A7
:1058DC00DBB2002B16D0FB6800221A63FB68202277
:1058EC0083F83D20FB68002283F83E20FB681B6C8C
:1058FC0043F02002FB681A64FB68002283F83C200A
:10590C00012321E0BB681B0CDBB2012B0CD1FB6823
:10591C001B685B69DA43BB6813409BB2002B14BF56
:10592C0001230023DBB20BE0FB681B689B69DA43A5
:10593C00BB6813409BB2002B14BF01230023DBB2C6
:10594C00002B7FF46DAF002318461037BD4680BD89
:10595C0080B584B000AFF860B9607A6034E0F86864
:10596C0000F0B8F80346002B01D0012334E0BB68EB
:10597C00B3F1FF3F28D0FCF7A3FE02467B68D31A95
:10598C00BA689A4202D3BB68002B1DD1FB681B6816
:10599C005B6903F08003802B16D0FB6800221A632E
:1059AC00FB68202283F83D20FB68002283F83E2010
:1059BC00FB681B6C43F02002FB681A64FB68002236
:1059CC0083F83C20012307E0FB681B685B6903F04C
:1059DC008003802BC3D1002318461037BD4680BDF1
:1059EC0080B584B000AFF860B9607A6034E0F868D4
:1059FC0000F070F80346002B01D0012334E0BB68A3
:105A0C00B3F1FF3F28D0FCF75BFE02467B68D31A4C
:105A1C00BA689A4202D3BB68002B1DD1FB681B6885
:105A2C005B6903F00403042B16D0FB6800221A6395
:105A3C00FB68202283F83D20FB68002283F83E207F
:105A4C00FB681B6C43F02002FB681A64FB680022A5
:105A5C0083F83C20012307E0FB681B685B6903F0BB
:105A6C000403042BC3D1002318461037BD4680BD58
:105A7C0080B485B000AF78600023FB60134B1B68CB
:105A8C00DB08134AA2FB03231A0A13469B00134498
:105A9C00FB60FB68013BFB60FB68002B07D17B685C
:105AAC001B6C43F020027B681A64012308E07B68BE
:105ABC001B681B6803F40073B3F5007FE9D0002367
:105ACC0018461437BD4680BC704700BF300000201C
